:020000040002F8
:10300000A0610020E9350200F1350200F33502002D
:10301000F5350200F7350200F93502000000000026
:10302000000000000000000000000000FB3502006E
:10303000FD35020000000000FF35020001360200ED
:103040008D390200033602008D3D02000336020076
:103050000336020003360200B537020003360200D1
:103060000336020003360200033602000336020074
:103070000336020003360200033602000336020064
:1030800003360200E539020003360200033602006F
:10309000693A0200033602006D3A0200033602006C
:1030A0000336020003360200033602000336020034
:1030B000033602000336020000000000000000009A
:1030C0000336020003360200033602000336020014
:1030D000033602000336020003360200000000003F
:1030E00000000000000000000000000000000000E0
:1030F00000000000000000000000000000000000D0
:1031000000000000000000000000000000000000BF
:1031100000000000000000000000000000000000AF
:10312000000000000000000000000000000000009F
:10313000000000000000000000000000000000008F
:10314000000000000000000000000000000000007F
:10315000000000000000000000000000000000006F
:10316000000000000000000000000000000000005F
:10317000000000000000000000000000000000004F
:10318000000000000000000000000000000000003F
:10319000000000000000000000000000000000002F
:1031A000000000000000000000000000000000001F
:1031B000000000000000000000000000000000000F
:1031C00000000000000000000000000000000000FF
:1031D00000000000000000000000000000000000EF
:1031E00000000000000000000000000000000000DF
:1031F00000000000000000000000000000000000CF
:10320000DFF80CD000F098FA0048004799730200EC
:10321000A061002030B4044654E8000F0D4644E895
:103220000053002BF8D1156030BC704730B4044611
:1032300054E8000F40EA010544E80053002BF7D1A1
:10324000156030BC704730B4044654E8000F00EA03
:10325000010544E80053002BF7D1156030BC7047DE
:1032600030B4044654E8000F80EA010544E80053F6
:10327000002BF7D1156030BC704730B4044654E8D9
:10328000000F00EB010544E80053002BF7D1156057
:1032900030BC704730B4044654E8000FA0EB010581
:1032A00044E80053002BF7D1156030BC7047000094
:1032B00030B450E8012F93B2C48923448489A342D7
:1032C00028BF1B1B0489A34202BFBFF32F8F00201E
:1032D00007E0C3EA020340E80134002CE9D14FF0D3
:1032E00001000A6030BC704750E8012FC2EA024278
:1032F00040E801210029F7D1704730B450E8022F8F
:103300001FFAA2F3C488A34202BFBFF32F8F00208D
:103310000DE0C48923448489A34228BF1B1BC2EA51
:10332000034340E80234002CE8D14FF001000A606A
:1033300030BC704750E8022FC2EA224240E8022126
:103340000029F7D17047034653E8022FD988B2EB22
:10335000324F4FF0000017BF92B241EA014142EAFA
:10336000014104E05A68B2EB324F08BF012043E844
:103370000212002AE8D1704730B4044654E8000F26
:103380000D4644E80053002BF8D1156030BC70475F
:1033900030B4044654E8000F40EA010544E8005305
:1033A000002BF7D1156030BC704730B4044654E8A8
:1033B000000F00EA010544E80053002BF7D1156027
:1033C00030BC704730B4044654E8000F80EA010571
:1033D00044E80053002BF7D1156030BC704730B47F
:1033E000044654E8000F00EB010544E80053002BAD
:1033F000F7D1156030BC704730B4044654E8000F74
:10340000A0EB010544E80053002BF7D1156030BC58
:103410007047000030B4044654E8000F0D4644E8FD
:103420000053002BF8D1156030BC704730B404460F
:1034300054E8000F40EA010544E80053002BF7D19F
:10344000156030BC704730B4044654E8000F00EA01
:10345000010544E80053002BF7D1156030BC7047DC
:1034600030B4044654E8000F80EA010544E80053F4
:10347000002BF7D1156030BC704730B4044654E8D7
:10348000000F00EB010544E80053002BF7D1156055
:1034900030BC704730B4044654E8000FA0EB01057F
:1034A00044E80053002BF7D1156030BC7047000092
:1034B00030B4044654E8000F0D4644E80053002B96
:1034C000F8D1156030BC704730B4044654E8000FA2
:1034D00040EA010544E80053002BF7D1156030BCE9
:1034E000704730B4044654E8000F00EA010544E890
:1034F0000053002BF7D1156030BC704730B4044640
:1035000054E8000F80EA010544E80053002BF7D18E
:10351000156030BC704730B4044654E8000F00EB2F
:10352000010544E80053002BF7D1156030BC70470B
:1035300030B4044654E8000FA0EB010544E8005302
:10354000002BF7D1156030BC7047000030B4044642
:1035500054E8000F0D4644E80053002BF8D11560E5
:1035600030BC704730B4044654E8000F40EA01050F
:1035700044E80053002BF7D1156030BC704730B4DD
:10358000044654E8000F00EA010544E80053002B0C
:10359000F7D1156030BC704730B4044654E8000FD2
:1035A00080EA010544E80053002BF7D1156030BCD8
:1035B000704730B4044654E8000F00EB010544E8BE
:1035C0000053002BF7D1156030BC704730B404466F
:1035D00054E8000FA0EB010544E80053002BF7D19D
:1035E000156030BC70470000064880470648004719
:1035F000FEE7FEE7FEE7FEE7FEE7FEE7FEE7FEE7A3
:10360000FEE7FEE7713A0200013202002DE9F05FA9
:103610000546002092469B46884606468146402441
:103620001BE0284641464746224600F075F85346BF
:103630005A46C01A914110D311461846224600F04E
:103640005CF82D1A67EB01084F4622460120002145
:1036500000F053F817EB00094E41201EA4F10104BD
:10366000DFDC484631462A464346BDE8F09F00006D
:10367000004870471CC5020040EA01039B0703D0C5
:1036800009E008C9121F08C0042AFAD203E011F8A1
:10369000013B00F8013B521EF9D27047D2B201E063
:1036A00000F8012B491EFBD270470022F6E710B547
:1036B00013460A4604461946FFF7F0FF204610BDA0
:1036C000421C10F8011B0029FBD1801A704730B54D
:1036D00004460020034600E05B1C934203D2E05CFA
:1036E000CD5C401BF8D030BD034611F8012B00F82B
:1036F000012B002AF9D118467047202A04DB203A12
:1037000000FA02F1002070479140C2F1200320FA34
:1037100003F3194390407047202A04DB203A21FA32
:1037200002F00021704721FA02F3D040C2F12002DA
:103730009140084319467047064C074D06E0E06883
:1037400040F0010394E8070098471034AC42F6D3E8
:10375000FFF75AFD10CC020030CC020070B58C1877
:1037600010F8015B15F0070301D110F8013B2A1195
:1037700006D110F8012B03E010F8016B01F8016B82
:103780005B1EF9D12B0705D40023521E0DD401F87E
:10379000013BFAE710F8013BCB1A921C03E013F847
:1037A000015B01F8015B521EF9D5A142D8D300207C
:1037B00070BD00002DE9F04700268CB0DFF8609165
:1037C000B0464FF48075012437460696284604F02B
:1037D0009DFC38B1D9F80403204203D0284604F0F8
:1037E0008BFC26432D1D64007F1CADB2082FEDD34A
:1037F0004FF4BE74204604F089FC48B1204604F022
:103800007BFC46F0004606AA0121002004F060FC83
:10381000444D16F0FF0F15D00127002437420DD07C
:1038200009EB8401D1F81005D1F81015C0F304207C
:1038300055F82420C1F3014102B190477F00641C78
:10384000082CEBD3002E67DA4FF0FF30CDE908806B
:1038500000263446281910F8507F90F9000027F010
:10386000C008401C44D009A9404603F087FF58B364
:103870004FEA9719404601F039FE55F820701FB104
:10388000B9F1030F03D00FE0B9F1030F30D108A84D
:103890004FEAD80208F00703815C4FF0010C0CFAE4
:1038A00003FC41EA0C0181544FF0A04101EB880078
:1038B000D0F8000706A9C0F3014A404603F05EFFB6
:1038C00018B1BAF1020F03D012E0BAF1030F0FD111
:1038D000B9F1030F08D1BAF1020F1BD00221404603
:1038E00004F0DAFB761CF6B217B149464046B847F9
:1038F000641C042CAED3002E0ED06A460121002099
:1039000004F0E6FB06990098884205D006900898D6
:1039100009909DE70321E2E70CB0BDE8F0870000C5
:10392000006000409C36002000F01F020121914001
:103930004009800000F1E020C0F88012704700F0DC
:103940001F02012191404009800000F1E020C0F8F1
:103950000011704700F01F020121914040098000D2
:1039600000F1E020C0F8001270474907090E002856
:1039700006DA00F00F0000F1E02080F8141D704717
:1039800000F1E02080F80014704700002DE9F041BC
:103990004FF48077384603F0AFFF0124104EA5079F
:1039A00048B1384603F0AFFF0120C5F80803747032
:1039B000002001F0E1FD4FF48277384603F09CFFD0
:1039C00000280BD0384603F09EFF0220C5F80803FC
:1039D000B470BDE8F041012001F0CEBDBDE8F0813A
:1039E0008836002007480021C0F84011C0F8441173
:1039F000C0F84811C0F84C11C0F80011C0F804110B
:103A000007F0C4BE0010014000F0CEB970B50E46FC
:103A1000144900EB400001EBC0051446E86A183574
:103A200020B101280FD0022805D113E0284600F06C
:103A3000EFF9A04201D2002411E022463146284687
:103A400000F01EFA0BE0284600F0E2F9A042F4D2A2
:103A50000446F2E73146284600F0E5F904462046E0
:103A600070BD0000183F002007F0DEBD05F0AEB8C5
:103A7000F0B5B5480023021D0178101D01254FF057
:103A8000805406290BD11678360708D10678C6F37C
:103A90000316032E06D0042E04D0052E02D00629CC
:103AA00007D00EE0B4F82463A84FC6F304263E60A6
:103AB00002E01678360704D10678C6F30316032E03
:103AC00002D0062904D00FE0A24FA14E7E670EE07F
:103AD0001678360708D10678C6F30316032E06D0EB
:103AE000042E04D0052E02D0062907D00EE0D4F80B
:103AF0004462994FC6F342363E6002E016783607BC
:103B000004D10678C6F30316032E02D0062906D088
:103B100011E0924E376827F0807737600EE0167814
:103B2000360708D10678C6F30316032E06D0042EF6
:103B300004D0052E02D006290AD011E04FF08046AD
:103B4000C6F80C31C6F81031834E361F336002E0E0
:103B50001678360704D10678C6F30316032E02D072
:103B6000062905D00CE07C4F032664373E600AE04E
:103B70001678360704D10678C6F30316032E02D052
:103B800006290DD014E0764F05263E60744E783637
:103B90003560734E083633603F263F1D3E6002E0BD
:103BA0001678360704D10678C6F30316052E02D020
:103BB000062957D062E06B4E36686B4F3E60694E07
:103BC000361D36683F1D3E60664E083636683F1D1E
:103BD0003E60644E0C3636683F1D3E60614E1036C6
:103BE00036683F1D3E605F4E143636683F1D3E60AE
:103BF0005C4E183636685C4F20373E60594E1C3696
:103C000036683F1D3E60574E203636683F1D3E6089
:103C1000544E243636683F1D3E60524E2836366874
:103C20003F1D3E604F4E2C3636683F1D3E604D4E68
:103C3000303636684C4F40373E604A4E3436366830
:103C40003F1D3E60474E383636683F1D3E60454E4C
:103C50003C3636683F1D3E60424E403636683F1D5A
:103C60003E6002E01678360708D10678C6F30316E0
:103C7000032E06D0042E04D0052E02D0062907D02C
:103C800019E0D4F85812394A01F04F01116002E0EE
:103C9000117809070FD10078C0F30310032803D06F
:103CA000042801D0052806D131480168C90702D08F
:103CB0006FF001010160D4F83001062808D1D4F872
:103CC0003401062804D12B48016841F48061016069
:103CD00022487438016841F470010160BFF34F8FCE
:103CE000BFF36F8F4FF01021D1F80002002803DBE3
:103CF000D1F80402002822DA1F4A15601F48046820
:103D0000002CFCD01524C1F800420568002DFCD021
:103D1000C1F8044201680029FCD013600168002941
:103D2000FCD0BFF34F8F0D48F0380168144A01F4FE
:103D3000E06111430160BFF34F8F00BFFDE71249FF
:103D400010480860F0BD0000E00F00F04035014071
:103D50000DF0ADBA00C007403C050040FCED00E0AE
:103D6000105600400404001020C50040E40E00403E
:103D7000000400403C17004004E5014000E401401D
:103D80000400FA050090D003D02D00200448017FE4
:103D900004480029024901D007F027BE07F096BD6C
:103DA000F43600200020004010B5124C02202061A3
:103DB000606111A0A06104F17800E0614FF400702F
:103DC00020620020A06260620BA1A164E06204F5A1
:103DD0001E71E1641021A065C4E91410E06509A119
:103DE000E01DFFF781FC08A12046FFF77DFC2020A5
:103DF000A07110BD183F00205465726D696E616C32
:103E000000000000525454005345474745520000FB
:103E10000269C1688A4203D88068401A104400E0F1
:103E2000501A401E70472DE9F047C468174689466E
:103E300006464FF000083069A04201D9051B02E098
:103E4000B168201A0D1AB0686D1E001BA84200D878
:103E50000546BD4200D33D4670682A462044494687
:103E6000FFF70AFCB0687F1B2C44A844A944A04279
:103E700000D10024F460002FDDD14046BDE8F0877A
:103E80002DE9F04104468846D4E90207C51BE168E4
:103E9000606816460844B54206D94146FFF7ECFB78
:103EA000B819E060BDE8F0812A464146FFF7E4FB1F
:103EB000761B08EB050132466068FFF7DDFBE66024
:103EC000F0E702E008C8121F08C1002AFAD17047C3
:103ED0007047002001E001C1121F002AFBD170478A
:103EE0000121202803DA81400548014003E04028F1
:103EF00002DA2038814009B1012070470020704764
:103F0000FC06FFBD082806D228B1012803D00428EA
:103F100001D0012070470020704710B560B159B141
:103F200002780B785208B2EB530F05D10622401CE1
:103F3000491CFFF7CCFB08B1002010BD012010BDCB
:103F4000800701D00020704701207047C3688B4272
:103F500006D811440069491E814201D801207047EA
:103F60000020704770B500238D880C680DE0E618BE
:103F7000E15C7678864206D1E018801C491E10600C
:103F80009180002070BD0B445B1C9D42EFD8052042
:103F900070BD10B501220221002001F0C9F808B15E
:103FA000072810D107220221012001F0C1F808B131
:103FB000072808D100210A22084601F0B9F808B103
:103FC000072800D1002010BD70B58CB015460E46F4
:103FD00000236C46C3F10F01415CE1545B1C102BC4
:103FE000F8D30D2104F11000FFF75FFB0020C0F1B2
:103FF0000F02315C2244401C11740328F7D3684639
:1040000043DF0020C0F10F01214491F82010295412
:10401000401C0328F6D30CB070BD022000F066BF30
:104020000149097900F080BBE02C002070B5002424
:10403000064D06E06868012110F8340003F008FD21
:10404000641C28788442F5D3002070BD102D002018
:10405000F8B515460C460646052A01D20720F8BDDC
:1040600003F0DCFD18B903F0ABFD0028F7D11049CF
:1040700000204E600C70C1E902500E4D08610DE049
:1040800006EBC4006968009181788DF80110007812
:10409000094A694603F02EFD0028E0D1641EE4B20F
:1040A000EED2BDE8F840054A0021024800F050B8C1
:1040B000102D00204CC20200BD640200BD5702005A
:1040C00004F0B2FA04F0F2F80028FBD1104C012100
:1040D000208801EB00400FA104F0E0F910480068CF
:1040E000C00700D000BE2088022101EB00400DA1D6
:1040F00004F0D4F9BFF34F8F0948E43801680D4A42
:1041000001F4E06111430160BFF34F8F00BFFDE791
:10411000542E0020466174616C206572726F7200CB
:10412000F0ED00E053797374656D2072657365740A
:10413000000000000400FA050EB500210091CDE951
:1041400001106A4644F20100FFF7BAFF0EBD0000FD
:10415000074B9B7823B12AB120B10068037C1BB1C7
:104160000820704707207047417442610020704763
:104170003437002070B506F0BFFB104800240B2137
:10418000047044700E4D817014206C602C706C7043
:10419000FFF7CAFB07211420FFF7E7FB1420FFF706
:1041A000CEFB0848046007211120FFF7DEFB05481D
:1041B000001F0068A860002070BD00003437002098
:1041C000242D0020081501402DE9FC47DFF87890E8
:1041D00099F8023073B368B3052902D20720BDE80D
:1041E000FC87436933B3437C012B25D00027044669
:1041F0000025884616468DF80050684600F038F8CD
:1042000001A807F0E1FCC8B1012101700F49446029
:104210000968C0E90218C0E904769DF8040089F82D
:1042200001009DF8000000F047F81420FFF792FB12
:104230002846D4E70820D2E70F46D8E704259DF8A2
:10424000000000F039F8F3E734370020041501408E
:104250000649897839B130B1416921B10021017431
:10426000022107F06FBA08207047000034370020A1
:1042700030B5EFF3108172B60D4A9468012324B172
:104280000370002900D162B630BD93604FF0E02387
:10429000D3F88051074C25401560C3F88041D3F80E
:1042A000844154605A17C3F8842100220270E8E761
:1042B00040380020FC06FFBD0B498A68002A11D057
:1042C00000280FD1EFF3108072B60B684FF0E02298
:1042D000C2F800314B68C2F8043100228A6000281D
:1042E00000D162B670470000403800202DE9F04749
:1042F000074600888EB0804600F0DAF90646404650
:1043000002F0F6FB824604462E4800252A46017834
:10431000404600F01FFA002E50D07879400734D57F
:1043200001254FF6FF7603AB2A460721504605F0DC
:1043300013F9010004D0404606F0BCFD00252BE037
:10434000B1463146049802F026FB064648450FD098
:1043500004460146404602F0B5FB4046FFF760FECA
:1043600030B9404606F080FD4046FFF759FE48B19F
:1043700022460721504605F085F9010003D040464A
:1043800006F098FD00254E4506D0404605F0E8FAB7
:1043900010B1504602F098FB02208DF81800ADF8DD
:1043A0001A807879400701D5012000E002208DF8BD
:1043B00020008DF8215006A801F0E0FB0EB0BDE80A
:1043C000F0870000E02C002070B50A780C46054606
:1043D00072B119480321012A008801EB004026D060
:1043E000022A27D1227915A1BDE8704004F05AB8FD
:1043F0006188221D00F092F808B1FFF79DFE6088E9
:10440000002105F041FD082802D008B1FFF794FE15
:10441000284600F05FF808B1FFF78EFE284600F04E
:104420002DF8002806D0BDE87040FFF785BE227940
:104430000AA1D9E770BD0000542E002042617474B7
:10444000657279204C6576656C20526561642061E7
:10445000732025642025252E00000000426174741D
:10446000657279204C6576656C2072656365697646
:1044700065642025642025252E00000070B518B342
:104480000288A2F57F41FF391CD0104C4388104DA3
:10449000206800EB8001401C00F00700206005EB65
:1044A000810102204B81C881081D086100248C8194
:1044B0000120087208714C710A80887007F0A0F919
:1044C000204670BD082070BD0E2070BD002D00205C
:1044D0004835002010B5D8B10188A1F57F42FF3AD8
:1044E00014D00C4B0C4C1A6802EB8201521C02F0E7
:1044F000070204EB81011A6082888A8000880880A4
:104500000020887007F07CF9002010BD082010BD45
:104510000E2010BD002D00204835002030B1018054
:1045200012B11168C0F80210002070470E207047C9
:1045300008B598B191B101228DF8022041F60F0221
:10454000ADF800204FF6FF72028000224280828088
:1045500009688160684600F015F908BD0E2008BDA5
:104560001CB5002822D0002920D00288112A3DD075
:10457000362A21D0382A1AD0392A17D10A460B8870
:1045800081888B4212D143899488A3420ED1C3897A
:10459000012B0BD1ADF8021001218DF80010007C29
:1045A0008DF8040093686946104698471CBD098839
:1045B00080888142FAD115E00A460B8881888B42B7
:1045C000F4D130F80A3F9488A3420BD1ADF8021021
:1045D00002218DF8001080798DF8040093686946F7
:1045E00010469847BDE81C4007F00AB90A88808841
:1045F0008242DBD14FF6FF7008800020488088801F
:104600001CBD00007CB50A78002A38D18A88A2F542
:10461000C0530F3B33D18A79012A30D100228DF863
:1046200000204A88ADF80220002242F619240B7AB5
:1046300014E000BF02EBC20501EB4505ED89A54280
:104640000AD102EBC20201EB42010A8BADF8042051
:10465000C98AADF8061003E0521CD2B29342E9D8E1
:104660000188A1F57F42FF3A06D0418821B98188AF
:1046700011B90199C0F802108268694690477CBD63
:1046800002494A6C091D06F0A1BA00001C2F002047
:1046900002460248016D001D06F085BA1C2F00205D
:1046A0000249C86C896C084006F0B5BA1C2F00207E
:1046B00070B50A4E054600242A46301D716C06F07E
:1046C00072FA40B12A46301DF16C06F06CFA08B15E
:1046D000022400E00124204670BD00001C2F0020B1
:1046E00010B50024204607F063FA28B1641CE4B238
:1046F000182CF7D3182010BD03480122A2400168EE
:1047000011430160204610BD1C2F002010B5044647
:1047100007F04EFA002803D0024800EB8400806DB9
:1047200010BD00001C2F002070B505460C46084641
:1047300007F03EFA002809D005482A4600EB84011C
:10474000001D896DBDE8704006F02DBA70BD0000F7
:104750001C2F002070B5064615460C46084607F08B
:1047600027FA00280AD006482B4600EB840132467F
:10477000BDE87040001D583106F05CBA70BD000005
:104780001C2F002070B540B10C4D297839B104467A
:1047900006F08CF828B1002070BD0E2070BD0820F6
:1047A00070BDE868062807D20549226801EB800140
:1047B000401C0A60E860EEE7042070BD942C0020E5
:1047C000D42F002040B1054900220123CA600B709C
:1047D000C1E90102104670470E207047942C00205A
:1047E00070B504002DD000292BD020480078002877
:1047F00027D020880D46112815D0302804D0322823
:1048000007D033281ED109E0211D284604F050FCB2
:1048100018E0211D284604F087FA13E0211D2846E0
:1048200004F05AFB0EE0A088B5F8CA12884209D1FC
:10483000002085F8C70285F8C8024FF6FF70A5F87A
:10484000CA0270BD95F8C8020028FAD02088302826
:10485000F7D34F28F5D8A088B5F8CA128842F0D10E
:104860002846BDE8704001F03FB80000942C0020BD
:1048700048B1084A137843B1D26832B190F8C722E0
:104880002AB1112070470E2070470820704701F0B0
:104890002BB80000942C00202DE9FF5F0188041D37
:1048A00005464FF0000B1F297ED034DC854E4FF0BB
:1048B00003071029308807EB004036D0112974D047
:1048C0001B2973D01D2946D1217A94F805C0A379FC
:1048D000E2798DE80E10637AA27A7BA103F0FAFDEB
:1048E000DFF808924FF0010A99F80000A8B3804859
:1048F0002379211D02785208B2EB530F2BD10622E7
:10490000401C491CFEF7E3FE002824D1308879A121
:1049100007EB004086E021296FD03B296ED0562955
:1049200019D1A888132176DFC5E07BA103F0B6FD7D
:104930006E48A9880E30FFF79BFF08B1FFF7FCFB1C
:104940005FF0070000F016FC08B1FFF7F5FBFFF77A
:10495000A7FE00287DD0BDE8FF9FFFE76448401E0A
:10496000FEF7AEFE010005F1180004F1040129D0A4
:104970000290C87B5E4DC008ADF80C006D1E6A4603
:1049800002A90920FFF7EEFAB8B16A4602A9082089
:10499000FFF7E8FA0028DED1BDF804202846009988
:1049A000FEF795FE002802E074E05EE063E0D2D1FD
:1049B00030885CA107EB004034E0BDF804202846B5
:1049C0000099EDE70290C87B41F60D05C008ADF8EF
:1049D0000C006A4602A90220FFF7C4FA30B16A4609
:1049E00002A90320FFF7BEFA0028B4D100204FF639
:1049F000FF7C5346BDF8042033E04FE058E000BF91
:104A0000009903EB400811F808100CEA01280099FE
:104A100011F8101041EA0801A94221D130884AA1B9
:104A200007EB004003F03AFD8BDF3048304A801D31
:104A300001230178D21D21F0020101700146201DE1
:104A40008CDF020089F801B085D031880AEB014083
:104A500000E01BE004B045A1BDE8F05F03F022BD1B
:104A6000401CB0EB520FCBD375E72A7A49A103F073
:104A700019FD002066E72179012907D00229F3D129
:104A800004B04BA1BDE8F05F03F008BDBDE8FF5FD7
:104A900005F076BF2088211D75DF0CE0CDF800B051
:104AA000A88869468FDF0028DED0FFF745FB52E774
:104AB000A888132176DF0028D6D004B0BDE8F05FC7
:104AC000FFF73ABB542E0020706565725F61646425
:104AD000722E61646472203D2025783A25783A254B
:104AE000783A25783A25783A25780D00A0290020D3
:104AF0005DC0020041646472657373206D6174630C
:104B0000682073656E6420636F6E6E6563745F7298
:104B10006571756573742E00436F6E6E65637465A1
:104B2000642E00004E616D65206D617463682073B2
:104B3000656E6420636F6E6E6563745F7265717518
:104B40006573742E0000000055554944206D617452
:104B500063682073656E6420636F6E6E6563745F57
:104B6000726571756573742E00000000436F6E6E80
:104B7000656374696F6E2052657175657374204644
:104B800061696C65642C20726561736F6E202564A9
:104B90002E000000446973636F6E6E656374656414
:104BA0002C20726561736F6E20307825782E00009E
:104BB000436F6E6E656374696F6E205265717565C3
:104BC00073742074696D6564206F75742E00000025
:104BD00010B51A4C0188606810290ED011292BD10C
:104BE000401E606028D1FFF7D4F9002824D0216846
:104BF000002921D0BDE810400847D0B9002101228A
:104C0000084600F095FA08B107280FD107220221C3
:104C1000012000F08DFA08B1072807D104220221F3
:104C2000002000F085FA20B1072802D0216801B1E8
:104C300088476068401C606010BD00008C2C00201C
:104C40002DE9F047044603883F480122A4B000F153
:104C5000480A102B09D0112B54D01A2B70D1217A6D
:104C6000B2EB111F53D2012352E0D0E911218A4344
:104C70000546011D12A805F0A9FF442212A901A8AA
:104C8000FEF7FAFCDFF8C0900026374609F1440928
:104C90000DF104080AE000BF08EB46001D228388DE
:104CA0004946281D009705F043FF761C0198B04245
:104CB000F2D8686CA688C04305F05CFFA0F57F4180
:104CC000FF3917D005EB400001238680324651465C
:104CD000281D05F0AFFF012332464946281D05F087
:104CE000A9FFE07B02280BD000231749A2884C3192
:104CF000281D20E024B00420BDE8F047FFF71CBACF
:104D00000123F2E70023A2885146001D13E000238F
:104D10000D490546A2885031001D05F08BFF207A11
:104D20000221B1EB101F01D2012300E0002306494C
:104D3000A2885431281D24B0BDE8F04705F07ABFA1
:104D400024B0BDE8F08700001C2F002010B50446F9
:104D50000748007800280AD0204601F04FFD204681
:104D600006F088F92046BDE8104001F081BA10BD78
:104D7000D02C002030B1018012B11168C0F80210AF
:104D8000002070470E20704770B5E8B10F4C0288C4
:104D9000438820680E4D00EB8001401C00F00700A6
:104DA000206005EB810102204B81C881081D08614C
:104DB00000248C810120087208714C710A8088706F
:104DC00006F042FD204670BD0E2070BD082D00206B
:104DD000E835002008B598B191B101228DF8022084
:104DE00041F60D02ADF80020096881604FF6FF71B1
:104DF00001800021418081806846FFF7C3FC08BD27
:104E00000E2008BD0A46014610001AD0002918D00D
:104E10000A88112A0BD0382A03D0392A11D104F07C
:104E20000DB90088898888420BD106F00DBD028833
:104E300089888A4205D14FF6FF71018000214180A7
:104E40008180704730B50A788DB0002A36D18A88C3
:104E5000A2F5C0530D3B31D18A79012A2ED18DF8AC
:104E600000204A88ADF80220002242F637240B7A4F
:104E700013E000BF02EBC20501EB4505ED89A54239
:104E80000AD102EBC20201EB42010A8BADF8042009
:104E9000C98AADF8061002E0521C9342EAD8018894
:104EA000A1F57F42FF3A06D0418821B9818811B926
:104EB0000199C0F802108268694690470DB030BD74
:104EC0000149085C7047000070C002000649095C97
:104ED0004FF0A040D0F81005C84010F0010000D0FD
:104EE000012080F00100704770C0020007490B5C90
:104EF0004FF0A041D1F804250120984020EA020398
:104F0000C1F808351040C1F80C0570476CC00200AC
:104F10000249085C012103F0D0B800006CC0020017
:104F20000249085C002103F0C8B800006CC0020010
:104F30000649095C4FF0A040D0F80405C84010F0C5
:104F4000010000D0012080F0010070476CC0020019
:104F50007CB50024084E25460122305D00950023D3
:104F60001146019503F063F8641C042CF4D3BDE8EA
:104F70007C4000F003B800006CC0020010B50024B3
:104F80002046FFF7C5FF641C042CF9D310BD10B5F3
:104F900000242046FFF7C4FF641C042CF9D310BD85
:104FA00010B50246064B4FF0FF3000215C5C944286
:104FB00001D1084610BD491C0429F7D310BD0000DB
:104FC00070C0020070B50C4E0C004FF00005306050
:104FD0000BD0012000F06AF808B1022004E00020A4
:104FE00000F064F800B10B202070706810B9FEF773
:104FF000D0FF0546284670BD8C2C002010B500203F
:1050000000F0EAF908B1062806D1012000F0E4F921
:1050100008B1062800D1002010BD00002DE9F0479E
:105020000D468146FFF7BCFF0446042836D2DFF860
:1050300074801B481C4EA8F10C0725B3012D0ED01F
:10504000022D2BD104EB440030444578002D25D0AF
:10505000B968002922D02846BDE8F047084704EB8C
:105060004401755C0E44717849B10E4A4FF4004119
:10507000093A8068FFF7A8F808B987F80390B17873
:1050800008F80410E2E78068FFF7E2F804EB440157
:10509000314418F804008D78A842D7D0BDE8F087D5
:1050A00074C00200882C0020F02E0020FFF70EBFF5
:1050B00010B5154C042808D0072811D00A2821D192
:1050C000BDE81040002003F0C3BB1321A08876DFA9
:1050D000082817D0002815D0BDE81040FFF72CB8DD
:1050E000607800280ED109480321008801EB0040B8
:1050F00007A103F0D3F9012060708BDFBDE81040F9
:1051000005F03EBC10BD0000A0290020542E002058
:1051100057686974656C6973742074656D706F721B
:105120006172696C792064697361626C65642E00D8
:1051300070B50023042810D20D4D00EB4004012A65
:1051400002D101290CD00022094E00EB400030446E
:1051500061B1012906D0022906D00723184670BD87
:105160000E30C2B22A55F9E74270F7E78270F5E7D0
:10517000F02E0020044A014600201279D20702D006
:10518000084600F04DB870477C2C002070B50646EC
:105190001E480024C0E90161B00720D50025012286
:1051A00011462846FFF7C4FF6D1C0446042D02D2A9
:1051B000002CF4D013E094B940F266620421144844
:1051C000FEF746FF04000AD1FEF730FF040006D1C7
:1051D0000F48104A0021001FFEF7BAFF0446F007EF
:1051E00001D0FFF7B5FE74B909480B4A00210C380D
:1051F000FEF7AEFF040006D10548084A0121083831
:10520000FEF7A6FF0446204670BD00007C2C00205F
:1052100080C00200815402004D6E02001B4002005B
:105220002DE9F05F6A4C054600266078B34618B158
:1052300084F801B001F0F2FD664F4FF47A694FF443
:10524000C87A4FF00108182D62D2DFE805F0AC0CE7
:105250000C31404D62676B746B74BE7D7D7D7D7DCE
:10526000ACAFB2B5BEBE0020FFF762FE00284FF023
:10527000000008D0FFF74CFE022D02D14FF4E16090
:1052800008E0484606E0FFF74BFE022D01D1C8209A
:1052900000E05046410CC0034FF4FA72801841F10F
:1052A0000001257052000023FEF7B0F901462AE004
:1052B0000020FFF73DFE00284FF0000004D0FFF76C
:1052C00027FE4FF44870E5E7FFF72AFEDFE70020EE
:1052D000FFF72EFE00284FF0000002D0FFF718FE67
:1052E000CFE7FFF71DFED4E70020FFF721FE0028DF
:1052F0004FF0000002D0FFF70BFE01E0FFF710FEB9
:10530000257041F69A1100223868FEF75DFF0646C7
:1053100046E00020FFF7EAFD257008E0002051E09C
:1053200025703DE084F801800120FFF7DFFD0022B9
:1053300040F6CD41E8E784F801800120FFF7D6FD73
:1053400000224FF48041DFE77868FEF781FF0646D0
:10535000D5F1110000D02EB10220FFF7D9FD84F85D
:1053600002B01DE0012816D980B2C8214843C117F8
:10537000C90341EA5041C0034FF4FA72801841F169
:10538000000152000023FEF741F90146002278682F
:10539000FEF71AFF06460220FFF7C2FD84F80280DE
:1053A0003046BDE8F09F01F039FDB9E701F036FD68
:1053B000B4E701F033FD04E001F030FD0020FFF719
:1053C000AFFD0120FFF7ACFDAAE7FFF7E0FDA7E77F
:1053D0007C2C002074C0020010B5FFF771FD032182
:1053E00002F049FE002010BDF8B5871C00208DF8A2
:1053F00000000E4601256846FEF73AFF124C206871
:105400003060D4E90001401AA168091ABE1C06E008
:1054100001F078FFD4E90001401AA168091A491C7B
:105420008E42F5D8A1682068084004EB8000C1686E
:1054300041F00301C1602068384420609DF80000FD
:10544000FEF73AFF2846F8BDF83A002030B48268EB
:105450000468531C8360A154D0E901128A4202D32C
:1054600030BC02F0F2BB30BC70470000034803C8F8
:10547000814201D10120704700207047F83A002096
:1054800000780221FFF7CABD05494FF0FF32082816
:1054900041F8202002D3084480F8482070470000DB
:1054A0009C360020F0B54FF0FF3512B100230826DE
:1054B00001E008230C260C4C05E000BF54F82370D3
:1054C0007F1C04D05B1CB342F8D32846F0BD2618DD
:1054D0005DB286F8305044F82310002AF5D1E11867
:1054E00081F84800F1E700009C360020024908449A
:1054F00090F93000704700009C36002008B5024645
:1055000090F8C6020B4600EB8001C1EB801002EB65
:10551000400092F8C52242B1521ED2B202EBC20143
:1055200000EB4102518A491C00E0C188ADF800102F
:105530000089ADF802006946184696DF08BD70B5CF
:1055400004464FF6FF750A462846AC4208D14FF490
:1055500080742146104604F087FDA04209D070BD3A
:10556000FF2CFCD82146104604F071FD08B12046FE
:1055700070BD284670BD000070B5084C050009D00C
:1055800010342168002907D008682060496828463F
:105590008847F6E70834F4E770BD0000883600203D
:1055A0002DE9F05F26484168F1B3DFF898B00E6846
:1055B0008146DBF8004087688078E11B21F07F4559
:1055C000ED1CB0B9DFF880804FF48030C8F8440398
:1055D000C8F804031120FEF7A7F91120FEF7AFF970
:1055E0004FF0010AC8F800A02F2002F095F989F8C1
:1055F00002A0B54200D23546124BE8193C3320F0E8
:105600007F401860DBF800105A46091B21F07F41EB
:10561000001B20F07F40C91C81420FD91068186020
:105620002F2002F079F900E004E0BDE8F05F1120DE
:10563000FEF790B9BDE8F05F05F05EB9BDE8F09FF8
:10564000242D00200415014000100140F0B585B064
:1056500016460F4604461D4614220B496846FEF7BF
:105660000BF80A488DF80870ADF80240ADF80A60F2
:105670008DF80C50017800222046FFF76BF8684641
:1056800000F07CFA05B0F0BD08C20200E02C00205A
:1056900010B5044601460548FFF7D4FB21460348F0
:1056A000BDE810400C30FEF7ADBF0000842E002096
:1056B0007FB50C4610B1012004B070BD20790026E2
:1056C00038B141F61D5501281BD0022826D00F20E5
:1056D000F2E70220207102960396E0680190694685
:1056E00001A805F049F850B102988188E18000884E
:1056F0002081BDF80010029805F0BCF8DCE70A2014
:10570000DAE70A4B6A460021A01D04F0F1FF38B128
:10571000064918398E61CE610A28CDD12846CBE7DB
:1057200002488188019805F0A5F8F5E7502D002082
:105730002DE9F843054690F8C6020F4600EB8001BC
:10574000C1EB801005EB400695F8C542914604EB8D
:10575000C40006EB40013279601C0A31904226D128
:105760006B460022284601F023FB18B310E0401ED0
:10577000A04201D1002004E004EBC40006EB40008D
:105780001C30804602466B46284601F011FB30B1C2
:10579000002038706946484697DFBDE8F88395F8E1
:1057A000C5024146401C641C85F8C502E4B230794C
:1057B000A042DCD8012038700020EEE72DE9F0414E
:1057C00000260125144C22E06068226900EBC60720
:1057D000387805FA00F1114217D08A43226102F0AD
:1057E000E5F902463878E36805FA00F1194002FA53
:1057F00000F3994209D17978012901D0012100E013
:10580000002151407A6802B19047761CF6B22078A8
:105810008642D9D3BDE8F081102D00202DE9F04754
:10582000894690F8C612904601EB8102C2EB8111C5
:1058300000EB4107384605F039F806002FD0194C27
:10584000A06806282BD2184D762205EBC0103946E9
:10585000A0F80280001DFDF70FFF0027B9F1000F2F
:1058600004D0A06805EBC010077004E0A168022016
:1058700005EBC1110870A06805EBC011401CCE6794
:10588000A060E16888420AD1002604E005EBC6105A
:10589000C16F8847761CE0688642F7D3A760BDE8F1
:1058A000F0870000942C0020EC2F002070B50E46ED
:1058B00090F8C612154601EB8102C2EB8111A0B02F
:1058C00000EB410004F0F2FF040009D07C220549FE
:1058D0006846FDF7D1FEADF8025068460196A04734
:1058E00020B070BDA0C0020070B50E4604464FF453
:1058F0003371FDF7DAFE11480025A4F8CA6285600D
:1059000084F8C9520E4884F8C65284F8C55200681B
:10591000206022460121304694DF0121112806D063
:10592000002809D184F8C71284F8C85203E084F82B
:10593000C71284F8C812002070BD0000942C00200B
:10594000D42F00200E4910B50A784C780023A242CB
:1059500012D0521CD2B20A70022A00D10B70084A2F
:105960000B780C3252F8232002608868104420F033
:105970007F408860012010BD0360002010BD000042
:10598000242D002013460A460021FFF75FBE0000C9
:105990002DE9F843104D0F4680461E469146694654
:1059A000286801F060FE040014D01C21FDF77DFE84
:1059B00001202071C4F81490380BC4F80080C4E9A9
:1059C00002606946286801F06FFE04F02DFE002099
:1059D000BDE8F8830420FBE77CC2020010B5037821
:1059E0000022072B06D2DFE803F005040610202969
:1059F00030000A7010BD01230B7003898B818388EE
:105A0000CB81C06888600A7410BD02220A700289C6
:105A10008A818288CA81C2688A60807D062802D015
:105A20000020087410BD0120FBE703220A70C28821
:105A30008A810289CA81C068886010BD04230B7006
:105A4000C0888881CA818A6010BD0520087010BD99
:105A500070B5064D0646002455F8241009B13046AD
:105A60008847641C042CF7D370BD00005838002010
:105A700030B50446006885B00D46806800281CD00B
:105A800014216846FDF711FE0195A0680490207965
:105A900010B101280DD104E001208DF8000020692B
:105AA00004E002208DF80000E068000302906069C5
:105AB0000390206881686846884705B030BD70B59E
:105AC00086B015460C00064619D0112C17D0082CAC
:105AD00015D014216846FDF7E8FDADF802603046A8
:105AE00001F006F8ADF804000D2C0AD0862C1CD06D
:105AF00007208DF800000294684600F04DF806B0CB
:105B000070BD03208DF8000025B12878C00701D0B2
:105B1000012000E002208DF8080000208DF80C0024
:105B200041F20110ADF80A00E6E706208DF800000A
:105B3000E2E7000010B50446408800F0D9FFA080DD
:105B4000024801682046BDE810400847AC2C002000
:105B50002DE9F04107460024064E074D05E000BF41
:105B600056F8241038468847641CE8788442F7DBEE
:105B7000BDE8F081FC340020D02C002010B5044694
:105B8000408800F0B5FFA080024801682046BDE8CB
:105B900010400847DCC102000149096808470000BD
:105BA00044C2020070B586B0044614216846FDF771
:105BB0007CFDA0890026A0F54040ADF804002078C7
:105BC0002D4D062835D2DFE800F0340303032E4EB6
:105BD000A08900F0C7F9012130B9E08943F6FE72CF
:105BE000A0F54040904224D8A07B8DF80800207892
:105BF000032810D05FF000008DF80900A068039022
:105C0000606850B109208DF8000060680490684613
:105C100003F080FD0DE00120EEE708208DF8000084
:105C20008DF81010F3E7A08900F09CF908B1E08925
:105C300038B16878002802D06E7003F09BFE06B081
:105C400070BD606838B10B208DF800006E70AE70CA
:105C500003F090FEDBE70A208DF80000BDF8040099
:105C600003F018FFF2E713208DF800004FF6FF70E5
:105C7000ADF80400CBE70000BC2C002038B504468A
:105C80000E480078A8B1A4F57F40FF380FD06846D1
:105C900004F004FC78B10521017001210171C48078
:105CA000684604F009FC04F0AFFC002038BD042075
:105CB00038BD022038BD082038BD0000582D002016
:105CC0000C4808B5007888B1684604F0E7FB78B165
:105CD00006210170684604F0EFFB0748017809B11E
:105CE0000121017304F090FC002008BD022008BDD2
:105CF000082008BD582D00201C390020F0B589B0BF
:105D000014216846FDF7D1FC2C4C207818B1684668
:105D1000FFF79EFE50E0201D012105AAFDF786FA3F
:105D2000B8BB4FF0102041690004026940694B1C68
:105D300001D100FB02F1224800220161A1F540518E
:105D4000C160204902F0A1F8002820D11F481C237F
:105D50008C221D49006801F073FC03F08FFA0500E6
:105D600014D0022D12D000270126062D12D006A82D
:105D700004F094FB88B106700C2D18D2DFE805F012
:105D8000170F170F17161716171113110B2009B03D
:105D9000F0BD11E026706760B9E70820F7E70771EA
:105DA00005E0032100E00221017100E0067106A870
:105DB00004F082FB04F028FC0020E8E7582D0020C6
:105DC000D42D00208CC202006838002054C202008A
:105DD00038B5040014D0694604F0CEFCA0B1BDF87B
:105DE000000000EB8001094800EB8100C16849B167
:105DF000A17A39B1C168491EC1600020A07238BDC6
:105E0000052038BD062038BD0A2038BDF4380020F2
:105E10001FB501A9684604F06BFC04B010BD07B5BE
:105E200013460A466946002004F062FC0EBD07B521
:105E300013460A460021684604F05AFC0EBD20B104
:105E400019B1006808600020704705207047000005
:105E50007CB50D46040019D0C5B1694604F08CFC30
:105E6000B0B1BDF800000B4900EB800001EB8000F1
:105E7000012101AA0C306668FDF7FFF92E60606809
:105E80000C3068600120A07200207CBD05207CBD24
:105E90000A207CBDF438002018B10323002205F04D
:105EA000B5BF052070470223002205F0AFBF12B135
:105EB000022305F0ABBF052070470000094908B573
:105EC0000A69042A0BD0084A096942F821000548EA
:105ED000012110306A46FDF7D0F9002008BD0C20E2
:105EE00008BD0000382D00205838002038B5044681
:105EF00009480D46007858B164B16946284606F055
:105F00007FF8002803D1BDF800102180658038BDDE
:105F1000022038BD052038BD582D002010B504469C
:105F20000E48007898B1A4B12188022913D80C4AF0
:105F300001EB810002EB800260885289C31C93420E
:105F400009D806F051F800202080608010BD0220A2
:105F500010BD052010BD042010BD0000582D0020EC
:105F6000F438002043F6FE71A0F54040884201D885
:105F7000012070470020704710B5044600781828AB
:105F800002D1FEF7ADFB207010BD10B504460078BD
:105F9000182802D1FEF7A4FB207010BD70B513467F
:105FA000002206461546862902D0112902D002E0B9
:105FB000012200E001250D4C73B1A179FEF7CAFB67
:105FC0002A4661793046FEF7C5FB0022A1783046AB
:105FD000FEF7C0FB002203E0A178FEF7BBFB2A46D8
:105FE00061783046BDE87040FEF7B4BBE82C002075
:105FF000406804F069BA00000C480A88032300884E
:10600000A2F5206203EB0040773A09D002F6FD7258
:10601000B2F5604F08D10B794A8805A102F049BA60
:106020008B884A880EA1F9E770470000542E0020A3
:1060300044617461206C656E67746820666F7220BD
:10604000636F6E6E656374696F6E2030782578209B
:106050007570646174656420746F2025642E00007F
:106060004741545420415454204D5455206F6E20C4
:10607000636F6E6E656374696F6E2030782578206B
:106080006368616E67656420746F2025642E00006C
:1060900070B508B1012070BD194C0025207B08B1F6
:1060A000257301E000F0A0F82078082826D2DFE868
:1060B00000F02504080C10251420BDE8704000F005
:1060C00021B8BDE8704000F07DB8BDE8704000F038
:1060D0005FB8BDE8704000F03BB86088084900EB4D
:1060E0008000283901EB80004068BDE8704003F073
:1060F000A5B86560BDE8704003F0AEB80F2070BD74
:106100001C3900201149F0B48A1C00200346A1F17B
:1061100028050C18A67A4EB1A37200EB800405EB9B
:106120008404E66816B9247C012C0AD0401C80B295
:106130000228EED30B704B804B60F0BC41F61D5033
:1061400070471080F0BC00F03DB800001C39002002
:106150000C48418801EB8102A0F1280101EB82018A
:10616000CA6852B105210170074802218180016887
:1061700000230122054801F061BE04220270496833
:10618000F6E700001C390020602D0020D42D0020EF
:1061900038B50A49084803240B684268898803EB2C
:1061A000810153880470DB1C00201B0400909B0BB2
:1061B000034801F009FF38BD1C390020602D002084
:1061C000D42D0020074910B54888091D04F024FB90
:1061D00018B1BDE81040FFF7DBBFBDE81040FFF786
:1061E000B7BF00001C390020F0B51F481F4901252A
:1061F000067802248B88A0F12802082E19D2DFE845
:1062000006F00418181B222F2F170189491C018141
:106210000021418080F80C1001EB810312F823303B
:1062200043B100234418491C89B2A3720229F3D355
:106230000570F0BD0123F5E742685288D21C1A446C
:106240008A800470F0BD46880D6806EB860602EB76
:10625000860256680E60556013818C80062100E02E
:1062600007210170F0BD00001C390020602D0020C6
:1062700030B501888588224C85B0502924D0522918
:1062800002D0542932D103E0284600F0E5FF2DE08A
:1062900014221C496846FDF7EFF9ADF80250284674
:1062A00000F026FCADF8040000F034F9002261791A
:1062B0002846FEF74FFA002221792846FEF74AFACF
:1062C0006846FFF737FC11E0017B01290ED1817A86
:1062D00001290BD10089A0F52451023906D10121F1
:1062E000284600F0EDFFA07803F0CCFCE07803F046
:1062F000C9FC207905B0BDE8304003F0C3BC000004
:10630000A42C002058C1020010B5044600780028D3
:106310000FD1608800F0A0FF608800F0A3F900288A
:1063200007D00449608801220979BDE81040FEF7D2
:1063300011BA10BDA42C002010B5124C0020207002
:10634000FEF7CEF9A070FEF7CBF9E070FEF7C8F9C2
:106350002071FEF7C5F96071A17818290FD0E17896
:1063600018290CD02179182909D0182807D0012123
:10637000601C03F065FE01202070002010BD03208A
:1063800010BD0000A42C00202DE9F04192B000F0D7
:10639000D9F86846FEF774F900246E460D4D4FF6A5
:1063A000FF780DE006EB4407B88800F0A1FB4045FC
:1063B00004D1B88801222979FEF7CCF9641CA4B273
:1063C0000098A042EED8287903F05CFC12B0BDE83A
:1063D000F0810000A42C00207CB5044600781C4D00
:1063E00008282FD1607A38BB207A4FF6FF76012833
:1063F0000DD0072802D0082824D11EE0A08800F084
:1064000061FAB0421ED0012100F05AFF1AE0A088C4
:106410006A46012103F076F870B90198007858B106
:10642000A08800F04FFAB0420CD001222979FEF783
:1064300091F9287903F026FC04E005480021401C6E
:1064400003F039FEA878BDE87C4003F01BBC0000D7
:10645000A42C002010B504460A4841782046FEF7D7
:1064600063F968B10848002101EB410200EB8202A8
:106470005288A24201D1C8B210BD491C1429F3D3DD
:10648000FF2010BDB62C0020EC32002070B5094D65
:10649000094E002404EB440005EB8000717840882D
:1064A000FEF742F920B1641C142CF3D3FF2070BD19
:1064B000E0B270BDEC320020B62C00202DE9F04196
:1064C000124E07460125BD403068FDF7C1FE002889
:1064D0000DD10F4C2069284207D1384601F066FBE8
:1064E0000028E06805D0284304E0A8432061BDE807
:1064F000F081A843E060206928432061A1683068EA
:10650000BDE8F0410022FDF75FBE00004CC2020072
:10651000102D00201CB5054AD2E90212CDE9001267
:106520000022694603F013F81CBD000070C1020090
:1065300003484FF6FF7181800121017000207047F0
:10654000B02C002010B54FF6FF7002F093FF034906
:106550008880BDE8104004F0D7BC0000B02C0020BB
:106560002DE9FC41804600F0C3FA002403250127F1
:10657000A0F57F412646FF3908D06A46082102F07F
:10658000C1FF18B90198841D8688056832462B46DC
:1065900021464046A9DF042804D0082804D00B284F
:1065A00008D002E0112000E00020002F00D10B20D5
:1065B000BDE8FC810027A80701D50125E6E73443A3
:1065C000F5D0002426460325E0E72DE9FC4180466E
:1065D00000F08EFA0646A0F57F40FF380ED0012568
:1065E0002A466D1C0027ADB26B460821304602F0EA
:1065F000B3FF040006D0072C25D025E043F20200AB
:10660000BDE8FC81019903230A1D0B604046891DEA
:10661000AADF040004D00C2C09D0052C09D009E015
:1066200032460821104603F02DF804460CE00127FD
:1066300000E000240821304603F010F800B10324E4
:10664000002FCDD100E00C242046D9E704488088F3
:10665000A0F57F41FF3901D004F056BC704700001F
:10666000B02C00200EB502A9019100F041FA6A4653
:10667000012102F047FF08B100200EBD019800780B
:106680000EBD00002DE9F04107464FF6FF760A489F
:10669000ABDF10B10320BDE8F081074C43F20305E6
:1066A000A41E324661883846A7DFA842F3D160882D
:1066B000401C6080F5E70000B22C0020428800EB0F
:1066C00082020C328A4201D9022070478188A1F5EA
:1066D0007F42FF3A03D0008808B1002070470120B4
:1066E0007047884204D20068401C01D001207047E6
:1066F0000020704770B5054608780C46012810D078
:10670000022832D119480321A288008801EB0040F9
:1067100017A101F0C7FEA279002A26D00021084661
:106720001FE06188221D2846FEF724FB08B1FDF713
:1067300003FD6088002103F0A7FB082802D008B100
:10674000FDF7FAFC2846FEF71FFB00280DD0BDE838
:106750007040FDF7F1BC00BF04EB4003401C1B89F7
:1067600019448242F8D8B1FBF2F070BD542E0020DB
:1067700048656172742052617465203D2025642E45
:10678000000000003EB5027802230C46B3EB520F26
:1067900017D1B0F80110ADF80010C1788DF80210D3
:1067A0008188ADF8041080798DF8060002AA01A94D
:1067B0002046FDF709FC032202A96846FCF787FF83
:1067C00008B100203EBD01203EBD000010B50C46C2
:1067D000FFF740FEFF280CD0074900EB400001EB1B
:1067E0008000416821600189A180807AA071002029
:1067F00010BD052010BD0000EC32002070B50188EE
:1068000092B0102959D1011D34226846FCF734FF9B
:106810009DF804004FF6FF76032134466D46B1EB38
:10682000500F2AD002F0E4FF9DF8040040080ED07B
:1068300001280CD0022820D118E00F99281D113111
:10684000FDF76BFB18B100BFBDF8344015E00EAA90
:106850000DA9072002F0A0FF0028EED10DE00F994E
:10686000281D491CFFF78EFF0028EDD10EAA0DA9A7
:10687000072002F091FF0028F1D1BDF80000291D8A
:1068800000F088FEB44218D0BDF80000214600F0A8
:1068900019F9BDF80000ADF836000020ADF8384019
:1068A000074E8DF834000DAD044600BF56F8241095
:1068B00028468847641C022CF8D312B070BD000033
:1068C00084C10200094A002101EB410332F8233060
:1068D000834205D101EB410002EB80004088704704
:1068E000491C1429F0D34FF6FF707047EC3200209A
:1068F0002DE9F041CEB00D46070019D0C5B10DF11C
:10690000B8085020CDE94B80B8216846FCF7CDFE91
:10691000002042A94FEA0D06C0EBC00202EB0012B4
:10692000324441F82020401C0828F5D300242BE0F5
:106930000022114610466FDF4EB0BDE8F0815021B5
:106940002EA8FCF7B2FE37F814004CAB4AAA072178
:1069500002F056FF05280AD0072808D09DF8C90084
:10696000400806D0012804D043F20220E4E70520C5
:10697000E2E7C4EBC40000EB04103044172208F136
:106980000101FCF779FE641CAC42D8D3EAB20021C5
:1069900042A86FDFD0E73EB50C46054602F028FF5F
:1069A0000BE0BDF80000A04207D02846029900F095
:1069B0002FF810B1BDF800003EBD01AA69460720BE
:1069C00002F0EAFE0028ECD14FF6FF703EBD000059
:1069D00010B50D4C18200D4A607000204FF6FF7165
:1069E00000EB400302EB8303401C59801428F7D3CB
:1069F000FDF776FE6070182803D00120207000207B
:106A000010BD032010BD0000B62C0020EC32002089
:106A10002DE9F0410C46054600F1110701F1110680
:106A20001022491C401CFCF752FE48B9681C00F0BB
:106A3000E5F928B1601C00F0E1F908B1012400E09B
:106A4000002431463846FDF768FA3B780222B2EB63
:106A5000530F0CD00321B1EB530F08D03378B2EBB6
:106A6000530F04D0B1EB530F01D0012100E00021FE
:106A7000084201D18C4302D00120BDE8F081002002
:106A8000FBE7018811B9421892780AB101207047DA
:106A9000491C0829F7D30020704710B50C4603465F
:106AA000FFF7EFFF00280AD018882188884205D117
:106AB0000822A11C981CFCF70AFE08B1002010BD9A
:106AC000012010BD03F03AB870B50446FFF7FAFE96
:106AD0000546204602F019FD4FF6FF7104468D422F
:106AE00003D014B9284603F029F8204670BD0000F1
:106AF00010B5FFF7AFFCFF2805D0044900EB4000BC
:106B000031F8200010BD4FF6FF7010BDEC320020B0
:106B10003EB5044602F06CFE0EE001992046463177
:106B2000FFF7BBFF28B9019920462A31FFF7B5FFCF
:106B300010B1BDF808003EBD6A4602A9072002F068
:106B40002BFE0028E9D14FF6FF703EBD7CB5144600
:106B50000A000A49897802D015688D4203D323B10F
:106B60001D688D4201D204207CBDCDE9004313464F
:106B70000246034803F026F87CBD0000B62C002036
:106B8000DC33002070B50C4606469AB01021184838
:106B9000FCF78BFD174800252EB324B384706200E8
:106BA00031461348FCF768FD382102A81895FCF718
:106BB0007CFD009518AB02AA21463046019503F0F2
:106BC00001F800280DD110AA0DF10801C0EBC00397
:106BD0000B4442F82030401C0828F7D3E1B210469D
:106BE0006EDF1AB070BD8570002108466EDFF8E7D1
:106BF000DC330020B62C002038B504460A480121B9
:106C00006A46FCF7C5FB68B90848606001F0F0FF10
:106C100005491C238C22087404488C39001F006825
:106C200000F00EFD002038BDC839002080C20200EF
:106C30002DE9F0412D4F002518B17D600120BDE800
:106C4000F0810879012258B1294E01280CD0274C37
:106C50004FF002080834022821D0032842D128E04E
:106C60000A7102F0F9FA3BE05FF0000000EB8001EE
:106C700016F82110022908D0401C80B20228F5D352
:106C80003A707D6041F61D50D9E700EB800006F8B0
:106C9000205006EB8000406802F0D0FA20E00D7131
:106CA000A4F80480002301221248216801F0C6F8EC
:106CB00016E00D71206802F0C1FA0D4923682831F1
:106CC000498801EB810206EB8201D1F804C0C4F8C7
:106CD00000C04B60A3880B81A4F8048006F8225002
:106CE0000028ACD07D600E20A9E70000582D0020C0
:106CF000F4380020D42D00202DE9FC5F0E008346DF
:106D0000DDE90C47C6F1000098469246814600D462
:106D10000846012503E000BF90FBFAF06D1C5045CA
:106D2000FADAA84500D9454624B1002E01DB7807E0
:106D300000D5641EB80702D5B8F1000F0AD0F807D5
:106D400008D13CB1A54205D220215846641EFEF769
:106D50007DFBF6E7002E02DA4E462D2102E0780791
:106D600003D52B215846FEF771FB07F003000228DC
:106D70000BD1B8F1000F08D13CB1A54205D23021AA
:106D80005846641EFEF762FBF6E7CDE9004743462E
:106D900052463146584604F0B1FEBDE8FC9F000063
:106DA0000248007A002800D001207047C83900202E
:106DB00010B509892AB1D088491C814218D1002018
:106DC00010BD90F8C62202EB8204C4EB821200EBE5
:106DD000420212899142F2D0491C198090F8C612E1
:106DE00001EB8102C2EB811100EB4100008902E05E
:106DF0001980D088401E5880012010BD0021425CBF
:106E00000AB101207047491C1029F8D300207047AF
:106E1000800701D000207047012070470A4810B554
:106E2000807860B1002401E0022C06D02046FEF7F5
:106E30006FF8641C042CF7D310BD0324F6E7BDE8FB
:106E40001040FEF79BB800007C2C0020034801791D
:106E5000C90702D00078FEF7E3B970477C2C002008
:106E600006490120086006480168C1F30041002975
:106E7000FAD1044900208870704700000C000040DF
:106E80001804004088360020F72101801721418036
:106E9000002101714171FB2181711B21C17170477A
:106EA0002DE9FE4F2A4D984691460F00824601D0AB
:106EB00000260DE0684600F099FB6A460021504626
:106EC00002F08FFA2878009E10B99DF8090098B159
:106ED0004A463146504604F031FA04460146002243
:106EE0005046FFF75BF8112C1AD008DC74B3082C5D
:106EF0002CD00D2C09D129E00520BDE8FE8F862C71
:106F00001AD0A4F54050023820D00325B8F1000F64
:106F100004D0324621465046FEF7D1FD2846ECE724
:106F20003A4629795046FDF715FC4A46E97850461D
:106F3000FDF710FC0025E9E73A4629795046FDF7B0
:106F400009FC4A46E9785046FDF704FC2546DDE792
:106F5000E82C00207CB50D4606466A4607212846E7
:106F600002F0D0FA040005D0052C0FD0112C1DD052
:106F700003241BE0019C94F84400183410F0010035
:106F800001D0019C34340CB110B106E011240DE0A5
:106F900004F11200FFF775FD38B1224604F1120129
:106FA000304685DF04000FD000E00B2400210022D2
:106FB000304603F025FF4CB100220023294630461D
:106FC00003F002FF20467CBD0121F0E70122F4E737
:106FD0002DE9FC4716000D4681464FF002084FF0A0
:106FE000000710D03078C00720D04FF6FF744FF064
:106FF0000108A54203D102F07BFA05460127A5420C
:1070000006D1032417E0002148467EDF04461BE03A
:107010006B4601220721284602F09EFA04000AD19D
:107020000721284602F042FB040004D131464846BD
:107030007EDF04001CD00721284602F00FFB18B1A8
:10704000052801D0032404E0042C01D084B100E021
:10705000112400214246484603F0D2FE54B10022DA
:107060003B462946484603F0AFFE2046BDE8FC8774
:107070000121EFE70122F3E72DE9F041204F0E4611
:10708000154604463978FDF74FFB002835D02046D9
:1070900002F082F950B32046FFF72AFD80462046D1
:1070A000B978FDF741FB08B1012700E0022720462F
:1070B00002F056FC0028404602D0FFF705FD0DE027
:1070C000A8F57F41FF3909D0072102F0C7FA010076
:1070D00004D0052902D0204603F0ECFE2B463246B0
:1070E00039462046BDE8F041FEF7B0BA2A4631469F
:1070F0002046BDE8F041FEF745BCBDE8F081000048
:10710000E02C00202DE9F04391B08146FDF7FEFA16
:10711000002820D06846FDF7B3FA00246E4617E039
:1071200006EB44054946A888FDF7FEFA78B10B4FF7
:10713000A888F978FDF7F8FA8046A8883979FDF72C
:10714000F3FA0146A88801234246FFF7A9FE641C12
:107150000098A042E4D811B0BDE8F083E82C0020EC
:107160002DE9F047394E002780463D46DFF8E09094
:10717000D6F804A057E003D00446D0F81C8035E0D0
:1071800099F8002002EB4201521CD2B289F800208B
:1071900009EBC10199F80230091D9A4201D189F821
:1071A000005048680A780446012A12D0022A02D008
:1071B000032A3BD108E004F095FA00B101272574B9
:1071C00034E00574C06900E070680028F9D170608F
:1071D0002CE0207C50BB88686060C868A0600869AB
:1071E000E0604869A061F07800B165606268B168EC
:1071F000184B501A20F07F40984202D2A1680844F0
:1072000006E0881AA16820F07F40814202D9081A5E
:10721000206000E0256065600120A56020742046A4
:10722000E56104F041FAB8F10000A4D199F800102A
:1072300099F801008142A3D117B97168514502D074
:107240000120BDE8F0870020FBE70000242D00208E
:1072500034370020FFFF7F0030B585B0054600249D
:1072600014216846FCF721FAA5F57F40ADF80250DD
:10727000FF3815D02846FFF773F998B10B2815D0C1
:10728000112811D0A0F54051023903D001462846FB
:1072900003F0FCFD09482246C1782846FDF75AFA5A
:1072A00005B030BD0E2002E00124F3E70F208DF879
:1072B00000006846FEF73EFCECE70000A42C00202E
:1072C0000A4602498978FDF745BA0000A42C00203F
:1072D000F8B5054600780C46002620420FD1002064
:1072E0008DF800006846FCF7C3FF2878204202D1E1
:1072F0002043287001269DF80000FCF7DDFF304692
:10730000F8BD000070B588B0214800F0D8F92048D9
:10731000001F064600F0D3F91E4DD5E9014105E0F6
:10732000C0F3891202EB9050641C044404EA01008B
:1073300005EB8000C0688207F2D000200DF1080242
:1073400004EA010305EB8303641CDB6842F8203088
:10735000401C0228F4D3029800F00300012808D052
:1073600002280AD10298032101EB905004EB90040B
:1073700003E00298C0F3831004443046002101AAC0
:10738000FCF7FDF8002800D06C6008B070BD00006C
:10739000103F0020F83A002008B5FCF7EBFE08B1DA
:1073A000FCF7CAFE01F01EFA08B1FCF7C5FE394928
:1073B0000320FDF7EBFE08B1FCF7BEFE6946002096
:1073C000FDF700FE08B1FCF7B7FE9DF800000228AB
:1073D00054D00024002001F0E1F808B1FCF7ACFE25
:1073E00000F056FF01F0BCFB08B1FCF7A5FE002041
:1073F00000906946012001F055FA08B1FCF79CFEA7
:10740000684601F0FBFA08B1FCF796FE22492348D2
:1074100000F0BCF908B1FCF78FFE02F09DFB20489C
:10742000FDF7D0F908B1FCF787FE1E4800901B4815
:1074300069461838FDF7CEFC08B1FCF77DFE1A4806
:107440000090164869460C38FDF772F808B1FCF751
:1074500073FE164D032616A1288806EB004001F0A6
:107460001DF86CB128881CA106EB004001F016F84D
:1074700002F03AFF30B1FCF75FFE03E00124A9E718
:1074800003F07EFA00F012FF0028FBD101F0BEF9F4
:10749000F8E70000B1500200F95F02009C2E0020C6
:1074A00091560200F5660200C9430200542E0020E6
:1074B0004865617274205261746520636F6C6C65FD
:1074C00063746F72206578616D706C652073746190
:1074D000727465642E000000457261736520626FEE
:1074E0006E647321000000002DE9F047C788044650
:1074F000181D16468946B0FBF7F1B0FBF7F207FB03
:1075000012009A193A44D21CB2FBF7F2DDF820A01F
:1075100001E02468491E0029FBD13D1A8846B54286
:1075200016D818E0BAF1000F05D0211809EB0800B1
:107530002A46091D04E0204409EB08012A46001DE3
:10754000FCF79AF800202468761BA844B74201D9BA
:10755000354600E03D46002EE4D1BDE8F08700004E
:1075600030B5024669B101F047F80021084C0BE044
:1075700001EB410304EB830315685B88AB4202D146
:107580001160002030BD491C8142F1D3052030BD7F
:10759000E82D002070B505460C004FF0FF0020D00C
:1075A0004FF6FF76B5421CD00E480122417828469E
:1075B000FDF7D0F82846FEF74DFFFF2803D1FEF770
:1075C00065FFFF280DD0084B00EB400203EB820162
:1075D0004D8023F8226022684A60A2880A81A2793D
:1075E0008A7270BDB62C0020EC320020034A0021C4
:1075F0009268C0E90021816070470000E82C0020FB
:1076000070B54FF6FF750E46A84201D1002000E08C
:10761000401C84B208E02146304602F040FD08B12B
:10762000204670BD641CA4B2FF2CF4D9284670BD5E
:1076300010B5FBF788FE08B1002010BD112010BD69
:1076400010B531B1B2FBF3F403FB14241CB10920D3
:1076500010BD0E2010BD016000214160816082815B
:10766000C381084610BD70B50C460546FBF720FEE9
:10767000002802D021882868084470BD10B50A8807
:1076800049888A4203D1FBF755FE012010BD002036
:1076900010BD70B50C460546FBF72FFE002802D042
:1076A00061882868084470BD10B50A8849888A42F4
:1076B00003D1FBF719FE012010BD002010BD08B555
:1076C00001216A46FBF74EFF009808BD08B56A46DF
:1076D000FBF7D3FD009808BD38B5044600258DF8AA
:1076E00000506846FCF7C4FD216862680868904253
:1076F0000ED9401E08600178238AE26801FB032549
:10770000227A2168101AC0B20A79824200D2087126
:107710009DF80000FCF7D0FD284638BD38B5054679
:1077200000208DF800000C466846FCF7A1FDE868D3
:10773000298A201AB0FBF1F12A681068431C1360F3
:1077400001709DF80000FCF7B7FD38BD10B530B1F1
:10775000017A42680368891AC9B21A6006E00E20ED
:1077600010BD03681A68541C1C601170491EC9B210
:10777000F7D2006800210171084610BDC20800F070
:1077800007030120895C98400840704710B560B13C
:107790000161F72120F8021B20F8021BFB2100F8F1
:1077A000021BFFF771FB002010BD0E2010BD000072
:1077B0002DE9F043858895B00C46002D3DD1018818
:1077C000DFF824810026DFF82491012724293CD00A
:1077D00006DC102909D011290CD023296DD150E0E5
:1077E0003A290BD0552968D12AE00146204601F0FC
:1077F00025FB62E0A01DFFF747FB5EE022464089C3
:1078000034F8061F814200D808466080172800D24D
:1078100017206080106970B1607960B1D8E90010FC
:10782000CDE90310ADF80E506088ADF81000136973
:1078300003A9104698476671267115B0BDE8F0831C
:107840000146204601F0C0FB37E0011D342206A8A6
:10785000FBF712FFBDF81800BDF81C2004EBC001B7
:107860004A7322694AB3D8E90432CDE90432ADF84B
:107870001200487B8DF814002269204604A9904725
:107880001BE00496059630F8041F04EBC102017951
:10789000127B8A4200D21146ADF81010ADF81210DA
:1078A0000088002204A990DF020006D0B9F8000089
:1078B0000F4907EB004000F0F5FDA07A0028BCD08E
:1078C000E18828469EDF02000BD0112AB5D0B9F816
:1078D000000015B007EB0040BDE8F043054900F09B
:1078E000E1BDA672E772A8E78CC10200F42D00206A
:1078F000A8C5020020C5020000F1804000680028F1
:1079000000D00120704708B500F1804000210160DF
:107910000068009008BD000000283ED01F49204AA2
:10792000096800BF00BF00BF00BF00BF00BF00BFAD
:1079300000BF91422FD000BF00BF00BF00BF00BFFB
:1079400000BF00BF00BF00BF00BF00BF00BF00BF3F
:1079500000BF00BF00BF00BF00BF00BF00BF00BF2F
:1079600000BF00BF00BF00BF00BF00BF00BF00BF1F
:1079700000BF00BF00BF00BF00BF00BF00BF00BF0F
:1079800000BF00BF00BF00BF00BF00BF00BF00BFFF
:1079900000BF00BF00BF0138C3D17047D02D002009
:1079A0000024F40070B50F4C0025207808B185251F
:1079B00016E00021A16061602161E1604FF0E020EC
:1079C000D0F80001012610F0010F03D1072100209B
:1079D00000F022F801F00CF908B90348066026709F
:1079E000284670BD883600201805004008B50020E4
:1079F0008DF800006846FCF73BFC0648C168491E4C
:107A0000C160C06808B9FFF72BFA9DF80000FCF7C9
:107A100053FC08BD883600204907090E002806DA05
:107A200000F00F0202F1E02282F8141D03E000F1E1
:107A3000E02282F8001400F01F0201219140400969
:107A4000800000F1E020C0F88012C0F800117047FB
:107A50002DE9F0418846054602F080F9234E0028C2
:107A600028461AD0FDF742FD304490F848008009BE
:107A7000032802D001280ED007E04FF0A040D0F834
:107A80001005E84010F0010F05D003212846BDE89D
:107A9000F04100F001BB0221F8E702F06BF9002889
:107AA00022D02846FDF722FD04464FF4807000EBFB
:107AB00084000F4F81B207EB8400D0F8102542F00C
:107AC0000102C0F81025084600F016FBB8F1000FBF
:107AD0000AD02846FDF70AFD56F82000002803D0FA
:107AE0000120A040C7F80403BDE8F0819C360020C7
:107AF000006000402DE9FC41DFF8A480044608EB5B
:107B00000400002790F930001346C0170E46401CB1
:107B100001D0082741E0F27819462046FDF7C2FC63
:107B20000546401C38D0B07850B14FF0A04000EB73
:107B30008400D0F8001721F00201C0F8001707E018
:107B400000217378204600910A46019100F081FAE5
:107B5000F078C0B11348317800EB8500D0F81025DB
:107B6000114B1A40C0F810254FF4F8524FF440332F
:107B700002EA042203EA01410A43D0F810150A433D
:107B8000C0F8102509E008EB0500327810F8481F0E
:107B900041EA8211017000E004273846BDE8FC810B
:107BA0009C36002000600040FFE0FCFF4FF0A04149
:107BB000D1F81015C14011F0010000D0012070472C
:107BC00070B5144D95F8540008B1082070BD002020
:107BD000411E2A18401CC0B282F830102028F8D369
:107BE00000242046FDF750FC641CE4B20C2CF8D3B2
:107BF00007210620FFF710FF4FF4BE7000F07CFA5B
:107C000005494FF00040C1F80403012085F85400F5
:107C1000002070BD9C36002000600040034890F8B2
:107C20005400002800D00120704700009C3600203E
:107C30000FB408B50399002904D004AA00926A463B
:107C400000F00FF801B05DF814FB10B5826804462F
:107C5000002A05D0D4E90403216898470020A060D9
:107C600010BD2DE9FC4791460C00804676D014F8F3
:107C7000011B39B125290ED04046FDF7E7FB2078DE
:107C80000028F4D198F80C00002867D04046BDE8E1
:107C9000FC47FFF7DABF0020012221782B291BD0F7
:107CA0002D2902D0302908D102E040F0010001E086
:107CB00040F00200641C002AEFD100252A290ED0D2
:107CC0002178A1F130020A2A11D205EB850201EBDD
:107CD0004205641C303DF1E740F00400EAE7D9F8C2
:107CE00000100B1DC9F800300968641C0D44217890
:107CF00000232E290BD114F8011FA1F130020A2A0A
:107D000005D203EB830201EB4203303BF3E76C291E
:107D10000DD068290BD0692921D00BDC252918D07A
:107D2000582931D063290ED0642915D117E014F8F1
:107D3000011FECE7702969D0732932D075291BD057
:107D4000782909D120E0D9F80000011DC9F80010F8
:107D500001784046FDF77AFB641C90E76CE0D9F8A7
:107D600000100A1DC9F800200968CDE900500A2258
:107D70004046FEF7C1FFEFE7D9F800100A1DC9F829
:107D8000002009680A2206E0D9F800100A1DC9F887
:107D9000002009681022CDE90050404603F0AEFEF5
:107DA000DAE7D9F8001000270A1DC9F800200E688C
:107DB000C00705D112E04046761C7F1CFDF746FB4C
:107DC00031780029F7D104E0202140466D1EFDF7EF
:107DD0003DFBBD42C0D9002DF6D1BDE74EB13046C6
:107DE000FBF76EFC074604E0202140466D1EFDF7C0
:107DF0002DFBBD4206D9002DF6D103E04046761C8E
:107E0000FDF724FB31780029F8D1A5E7D9F8000067
:107E1000011DC9F80010056830214046FDF716FB2A
:107E200078214046FDF712FB08200021CDE9000132
:107E3000034610222946B0E7BDE8FC872DE9F04152
:107E40001F46154604000E4616D02068B8B1C5B1CD
:107E500060680268501E304215D16A432046FCF724
:107E600075F880B120683B462A46D0F810C03146EC
:107E70002046BDE8F04160470E20BDE8F0810820B3
:107E8000FBE70920F9E71020F7E720B119B10160FD
:107E90000B68114618470E20704700002DE9F0418D
:107EA00028B1016819B1C969BDE8F04108470D4D15
:107EB0000D480024461B14270DE000BF04EB84008E
:107EC00005EB8000016829B1C969884710B101201C
:107ED000BDE8F081641CB6FBF7F0A042EED80020AC
:107EE000F6E70000D42D0020E82D002004480121F1
:107EF0004174007A08B100207047012070470000EB
:107F0000C8390020012801D0032808D104490022E3
:107F100001284A7400D00020087402F029BB704781
:107F2000C839002070B5254C0246207A012837D088
:107F3000022841D122480023022A006802D0032AE5
:107F40002ED11BE0E360017911B1012928D10DE0A8
:107F5000D0E90565711B4FF48056B14200D331461C
:107F6000294481614569A9420ED019E00169491C83
:107F700001614269914213D1237217E0E168491C03
:107F8000E16008290CD9E3602372022A0ED00D218A
:107F9000FDF76EFD0B480A49091D0068FFF76EFBEF
:107FA000607C28B1BDE8704000F028BE0021EFE7FA
:107FB000BDE8704002F0DCBA70BD0000C839002096
:107FC000682D00207CC202002DE9F8431D46089F61
:107FD0001646884604000DD066B1206860B135B100
:107FE00060684068B5FBF0F100FB115030B109202A
:107FF000BDE8F8830E20FBE70820F9E74046FBF7D1
:108000009FFF90B13046FBF79BFF70B12A46414677
:108010002046FBF79BFF40B1009720682B46324675
:10802000C76841462046B847E2E71020E0E770B550
:1080300041EA4201DDE904564FF0A04441EA8301E0
:1080400041EA052104EB800041EA0641C0F800172F
:1080500070BD70B541EA4201DDE904564FF0A0441D
:1080600041EA830141EA052104EB800041EA06412F
:10807000C0F8001770BD4FF0A04202EB8000D0F8AE
:10808000002722F44032C0F80027D0F8002742EA47
:108090000141C0F8001770474FF0A04202EB80008A
:1080A000D0F8002722F44032C0F80027D0F800278B
:1080B00042EA0141C0F80017704701224FF0A04387
:1080C000824011B1C3F808257047C3F80C257047EA
:1080D00018B5084B6C4601441B68009306E000BFCE
:1080E00054F82030D3F81035401C08C28142F7D82C
:1080F00018BD000048C20200034908B50844002129
:1081000001600068009008BD0060004002494058CE
:10811000012800D0002070470060004030B5124BAD
:1081200001460020D3F81044224609E0157A854222
:1081300005D1401C0A28F7DB4FF0FF3030BD5268F4
:10814000002AF3D1421CF9D00872D3F810242AB1C6
:1081500052684A60D3F81024516030BD0022C3F841
:1081600010144A6030BD0000F83A00207047FBF759
:108170004BBC704708B5034A00924023024A00F006
:1081800005F808BDDDAE0200F8390020F0B595B065
:108190001C4615460F4608461A9E00F0FDFA1821A7
:1081A00009A8FBF782FA0E96CDE9095400230822AC
:1081B00003A9384600F00AFB059806900498ADF82C
:1081C0001C0000208DF820000398082600F0030012
:1081D000012802D002281DD03CE003983346850ACE
:1081E000C0F3C2008DF81E0003980FA9C0F38000F1
:1081F0008DF81F000398C0F38314A200384600F0E6
:10820000E5FA09A8009006AB22460FA9284600F01F
:108210001FFA1FE00398840DC0F3C2008DF81E0002
:108220000398C0F380008DF81F00082C01D225466A
:1082300000E0082533462A460FA9384600F0C6FA62
:108240002E44641B09AB06AA29460FA800F050F97A
:10825000002CEAD1384600F0A8FA15B0F0BD0000B5
:108260000A4A012902EBC00007D0022907D00329DE
:1082700007D0042907D0002070470220704704204F
:1082800070470079704740797047000030CC020099
:1082900010B5FFF76CFF04210348FFF73FFF0249C9
:1082A0000120487210BD0000782D00202DE9F04F0C
:1082B0008DB0FDF7DBF818B100200DB0BDE8F08FF0
:1082C00074480021C0F81814BFF34F8FD0E901465D
:1082D00004EA060100EB81014FF000090AE000BF4B
:1082E000C1F3891202EB9151641C0C4404EA0601AB
:1082F00000EB8101C9688A07F2D0002103AA8046F9
:1083000004EA060008EB8000641CC06842F8210003
:10831000491C43460229F3D3039800F003000228C6
:1083200006D0012803984FD0C04380077ED0ACE030
:1083300003985022810D8A46B2EB905F00D85021FD
:108340000D4665F39F5003900831534800F0DBF968
:1083500007006CD000F020FA4B46082203A93846EB
:1083600000F03AFA04EA0601701A8000001D09F1D3
:10837000080B854221D9474E0C3630B1C2B208EB0A
:108380008101281A91460C3104E03146EAB20026F8
:1083900091463046C5B25B46384600F01DFA0BEBFD
:1083A00009032EB12A4631464FEA070000F014FABD
:1083B0000AF1030004EB90043BE008EB81015B460B
:1083C0002A4638460C31F1E7C0F38310062800D363
:1083D0000620039960F38911C1F38310801C039177
:1083E00081002D4800F08FF907004ED000F0D4F93D
:1083F0004B46082203A9384600F0EEF909F10809B6
:1084000000250DE004EA060008EB80014B4604223B
:1084100038460C31641C00F0DFF909F104096D1CC9
:108420000398C0F38310A842ECD801E00BE02CE0E5
:108430005FB3D8F81054D8F81804464690B13846BF
:1084400000F0B3F921E0D3F8180400283FF435AF69
:108450001BE0687A012804D1296828460A68394651
:1084600090476D68002DF4D1384600F09EF9002049
:108470008DF800006846FBF7FBFED6F8180400B93B
:1084800074609DF80000FBF717FFFCF7EFFF80F02A
:10849000010012E7F83A0020E0C3020000231A4668
:1084A00003F07AB808B5012300926A4603F074F825
:1084B00008BD1CB5CDE9002302236A4603F06CF821
:1084C0001CBD3EB5069C8DE81C0003236A4603F0E4
:1084D00063F83EBDF0B587B00DF1300C9CE8F000BC
:1084E0008DE8FC0006236A4603F056F807B0F0BD9D
:1084F0002DE9F0470E4680461C46924608293ED894
:1085000094F80C90002020731946104601F098FF53
:108510000025B54206D218F805201AA12046FFF71B
:1085200087FB03E019A12046FFF782FB6D1C082D95
:10853000EFD317A12046FFF77BFB0025B54210D2F1
:1085400018F80570FBF794F80068C05D10F03E0F56
:1085500001D03A4600E02E220EA12046FFF768FB2C
:1085600003E00DA12046FFF763FB6D1C082DE5D34A
:1085700001222146504601F045FF84F80C90BDE8E9
:10858000F0870000202530327800000020202000F5
:108590007C0000002563000020000000114810B599
:1085A000FF218160002101604160C0F81814C0F80B
:1085B000141480F81C140C4800F0F5F800280FD1B2
:1085C0000A480B490B4B401AC108002005E000BFC8
:1085D00000EB400223F82200401C8842F8D3002020
:1085E00010BD0000F83A0020E0C3020098CC020061
:1085F00030CC0200E82D002002480349401AC00890
:108600007047000098CC020030CC020013B56846D9
:10861000FEF7A6FF08B100201CBD0248009950F8E3
:1086200031001CBD30CC020070B508480125D0F8DF
:10863000104480F81C5405E06572216820464968A2
:1086400088476468002CF7D170BD0000F83A00201C
:108650002DE9FF4781460C9D00200C462F7B287397
:10866000984616462946184601F0EAFE072E42D2E1
:10867000DFE806F004090F161F2A3600494628468F
:10868000FFF7D6FA37E0494628462268FFF7D0FAC6
:1086900031E0D4E9002349462846FFF7C9FA2AE029
:1086A000A0680090D4E9002349462846FFF7C0FAA5
:1086B00021E0D4E90201CDE90001D4E900234946D3
:1086C0002846FFF7B5FA16E004F1080007C88DE860
:1086D0000700D4E9002349462846FFF7A9FA0AE033
:1086E00004F108000FC88DE80F00D4E900234946C3
:1086F0002846FFF79DFA00222946404601F082FEF7
:108700002F73BDE8FF872DE9F041058A80462D1FB4
:108710004819C01CB0FBF5F0C6B24046FEF7DCFFBE
:10872000040019D00020207101206071E58000272D
:108730002546761EC4F800800BE04046FEF7CCFFCD
:1087400060B16179491C6171286005467F1CC0F8E1
:108750000080B742F1D32046BDE8F081204600F00A
:1087600002F80020F8E72DE9F041457901466B1E3B
:10877000002201E00968521C9A42FBD30F680146AF
:10878000002605E038460C68FEF7C8FF2146761C37
:10879000AE42F7D3BDE8F08108B501216A46001D5D
:1087A000FAF76BFE08BDFEF7D1BF38B50446001DD1
:1087B00001216A46FAF76EFE009810F0FF0F04D10F
:1087C0002046BDE83840FFF7CEBF38BD38B501249C
:1087D0000094FEF789FE38BD38B500240094FEF7FA
:1087E00083FE38BD064910B500204870091D086099
:1087F000BFF35F8F0349044800F02CFA002010BD3E
:10880000702D0020C4C20200EC39002008B5002001
:108810008DF800006846FBF72BFDF1EE100A20F002
:108820009F00E1EE100ABFF35F8F08494020C1F8B6
:1088300080029DF80000FBF73FFD00F0D9F908B178
:108840003EDF08BD20BF40BF20BF08BD04E000E000
:10885000F8B504460D4801216A46FAF729FEBFF330
:108860005F8F002500280AD10121084E042C09D071
:10887000301F427822B100BFBFF35F8F3560F8BD73
:108880000470417002F0B8FBF6E70000742D002080
:1088900020B1034909680160002070470E2070472D
:1088A0006CC402002DE9FE4305460E460846FFF75C
:1088B000EFFF00287ED18046CDF80080CDF80480FF
:1088C00001244FF4A0708DF80050ADF80400CDF8ED
:1088D00008808DF8024069462020326869DF404FE9
:1088E00040B100F0FBF9024638883E4904EB0040F5
:1088F000FFF7D8FDCDF800808DF800808DF801409D
:10890000CDF80480CDF808808DF8024069464020FB
:10891000326869DF40B100F0E1F902463888324937
:1089200004EB0040FFF7BEFDCDF800808DF800504D
:10893000F720ADF80200CDF80480CDF80880694634
:108940002320326869DF40B100F0C8F90246388858
:10895000264904EB0040FFF7A5FDCDF80080CDF8D7
:108960000480CDF808808DF80080454669460120D6
:10897000326869DF40B100F0B1F9024638881C491D
:1089800004EB0040FFF78EFD4FF4B06000900195BE
:1089900002956946A120326869DF40B100F09EF976
:1089A00002463888134904EB0040FFF77BFD009531
:1089B000019500E011E002958DF800506946A02075
:1089C000326869DF40B100F089F9024638880A4907
:1089D00004EB0040FFF766FD0020BDE8FE830000C9
:1089E0006C2E0020B4CA0200FCCA020048CB020070
:1089F00014CA020060CA0200C0C902002DE9F04199
:108A00000446D0F800E060DF2368144D0646734545
:108A100015D02888022707EB0040724610A1FFF707
:108A200048FDF806D0F80C012168800200F10050E2
:108A3000421A288816A107EB0040FFF733FD56B114
:108A4000304600F04BF902462888012101EB004036
:108A500018A1FFF727FD3046BDE8F0816C2E0020FD
:108A600052414D20737461727473206174203078A8
:108A700025782C2063616E2062652061646A7573BD
:108A800074656420746F20307825782E0000000013
:108A900052414D2073697A652063616E20626520C2
:108AA00061646A757374656420746F20307825780A
:108AB0002E00000073645F626C655F656E61626CBE
:108AC0006528292072657475726E65642025732E81
:108AD0000000000030B5EBB04FF4CE75ADF8A851F2
