:020000040002F8
:10300000705D00204D350200553502005735020035
:10301000593502005B3502005D35020000000000FA
:103020000000000000000000000000005F3502000A
:1030300061350200000000006335020065350200C2
:103040000D390200673502000D3D020067350200B0
:103050006735020067350200353702006735020028
:1030600067350200673502006735020067350200E8
:1030700067350200673502006735020067350200D8
:1030800067350200653902006735020067350200C6
:10309000E939020067350200ED39020067350200A8
:1030A00067350200673502006735020067350200A8
:1030B00067350200673502000000000000000000D4
:1030C0006735020067350200673502006735020088
:1030D0006735020067350200673502000000000016
:1030E00000000000000000000000000000000000E0
:1030F00000000000000000000000000000000000D0
:1031000000000000000000000000000000000000BF
:1031100000000000000000000000000000000000AF
:10312000000000000000000000000000000000009F
:10313000000000000000000000000000000000008F
:10314000000000000000000000000000000000007F
:10315000000000000000000000000000000000006F
:10316000000000000000000000000000000000005F
:10317000000000000000000000000000000000004F
:10318000000000000000000000000000000000003F
:10319000000000000000000000000000000000002F
:1031A000000000000000000000000000000000001F
:1031B000000000000000000000000000000000000F
:1031C00000000000000000000000000000000000FF
:1031D00000000000000000000000000000000000EF
:1031E00000000000000000000000000000000000DF
:1031F00000000000000000000000000000000000CF
:10320000DFF80CD000F058FA0048004701780200BF
:10321000705D002030B4044654E8000F0D4644E8C9
:103220000053002BF8D1156030BC704730B4044611
:1032300054E8000F40EA010544E80053002BF7D1A1
:10324000156030BC704730B4044654E8000F00EA03
:10325000010544E80053002BF7D1156030BC7047DE
:1032600030B4044654E8000F80EA010544E80053F6
:10327000002BF7D1156030BC704730B4044654E8D9
:10328000000F00EB010544E80053002BF7D1156057
:1032900030BC704730B4044654E8000FA0EB010581
:1032A00044E80053002BF7D1156030BC7047000094
:1032B00030B450E8012F93B2C48923448489A342D7
:1032C00028BF1B1B0489A34202BFBFF32F8F00201E
:1032D00007E0C3EA020340E80134002CE9D14FF0D3
:1032E00001000A6030BC704750E8012FC2EA024278
:1032F00040E801210029F7D1704730B450E8022F8F
:103300001FFAA2F3C488A34202BFBFF32F8F00208D
:103310000DE0C48923448489A34228BF1B1BC2EA51
:10332000034340E80234002CE8D14FF001000A606A
:1033300030BC704750E8022FC2EA224240E8022126
:103340000029F7D17047034653E8022FD988B2EB22
:10335000324F4FF0000017BF92B241EA014142EAFA
:10336000014104E05A68B2EB324F08BF012043E844
:103370000212002AE8D1704730B4044654E8000F26
:103380000D4644E80053002BF8D1156030BC70475F
:1033900030B4044654E8000F40EA010544E8005305
:1033A000002BF7D1156030BC704730B4044654E8A8
:1033B000000F00EA010544E80053002BF7D1156027
:1033C00030BC704730B4044654E8000F80EA010571
:1033D00044E80053002BF7D1156030BC704730B47F
:1033E000044654E8000F00EB010544E80053002BAD
:1033F000F7D1156030BC704730B4044654E8000F74
:10340000A0EB010544E80053002BF7D1156030BC58
:103410007047000030B4044654E8000F0D4644E8FD
:103420000053002BF8D1156030BC704730B404460F
:1034300054E8000F40EA010544E80053002BF7D19F
:10344000156030BC704730B4044654E8000F00EA01
:10345000010544E80053002BF7D1156030BC7047DC
:1034600030B4044654E8000F80EA010544E80053F4
:10347000002BF7D1156030BC704730B4044654E8D7
:10348000000F00EB010544E80053002BF7D1156055
:1034900030BC704730B4044654E8000FA0EB01057F
:1034A00044E80053002BF7D1156030BC7047000092
:1034B00030B4044654E8000F0D4644E80053002B96
:1034C000F8D1156030BC704730B4044654E8000FA2
:1034D00040EA010544E80053002BF7D1156030BCE9
:1034E000704730B4044654E8000F00EA010544E890
:1034F0000053002BF7D1156030BC704730B4044640
:1035000054E8000F80EA010544E80053002BF7D18E
:10351000156030BC704730B4044654E8000F00EB2F
:10352000010544E80053002BF7D1156030BC70470B
:1035300030B4044654E8000FA0EB010544E8005302
:10354000002BF7D1156030BC70470000064880475B
:1035500006480047FEE7FEE7FEE7FEE7FEE7FEE778
:10356000FEE7FEE7FEE7FEE7F13902000132020066
:103570002DE9F05F0546002092469B4688460646A8
:10358000814640241BE0284641464746224600F03B
:1035900083F853465A46C01A914110D31146184633
:1035A000224600F06AF82D1A67EB01084F462246C2
:1035B0000120002100F061F817EB00094E41201EA8
:1035C000A4F10104DFDC484631462A464346BDE803
:1035D000F09F00000048704784C7020010B5431AEE
:1035E000934209D28318881803E010F8011D03F8EC
:1035F000011D521EF9D210BD40EA01039B0703D002
:1036000009E008C9121F08C0042AFAD203E011F821
:10361000013B00F8013B521EF9D210BDD2B201E0CD
:1036200000F8012B491EFBD270470022F6E710B5C7
:1036300013460A4604461946FFF7F0FF204610BD20
:10364000421C10F8011B0029FBD1801A704730B5CD
:1036500004460020034600E05B1C934203D2E05C7A
:10366000CD5C401BF8D030BD034611F8012B00F8AB
:10367000012B002AF9D118467047202A04DB203A92
:1036800000FA02F1002070479140C2F1200320FAB5
:1036900003F3194390407047202A04DB203A21FAB3
:1036A00002F00021704721FA02F3D040C2F120025B
:1036B0009140084319467047064C074D06E0E06804
:1036C00040F0010394E8070098471034AC42F6D369
:1036D000FFF79AFD54CE020074CE020070B58C182C
:1036E00010F8015B15F0070301D110F8013B2A1116
:1036F00006D110F8012B03E010F8016B01F8016B03
:103700005B1EF9D12B0705D40023521E0DD401F8FE
:10371000013BFAE710F8013BCB1A921C03E013F8C7
:10372000015B01F8015B521EF9D5A142D8D30020FC
:1037300070BD00002DE9F04700268CB0DFF86091E5
:10374000B0464FF48075012437460696284604F0AB
:10375000ADFF38B1D9F80403204203D0284604F065
:103760009BFF26432D1D64007F1CADB2082FEDD3B7
:103770004FF4BE74204604F099FF48B1204604F08F
:103780008BFF46F0004606AA0121002004F070FFDE
:10379000444D16F0FF0F15D00127002437420DD0FD
:1037A00009EB8401D1F81005D1F81015C0F30420FD
:1037B00055F82420C1F3014102B190477F00641CF9
:1037C000082CEBD3002E67DA4FF0FF30CDE90880EC
:1037D00000263446281910F8507F90F9000027F091
:1037E000C008401C44D009A9404604F097FA58B3D9
:1037F0004FEA9719404602F085F955F820701FB13D
:10380000B9F1030F03D00FE0B9F1030F30D108A8CD
:103810004FEAD80208F00703815C4FF0010C0CFA64
:1038200003FC41EA0C0181544FF0A04101EB8800F8
:10383000D0F8000706A9C0F3014A404604F06EFA2A
:1038400018B1BAF1020F03D012E0BAF1030F0FD191
:10385000B9F1030F08D1BAF1020F1BD00221404683
:1038600004F0EAFE761CF6B217B149464046B84766
:10387000641C042CAED3002E0ED06A460121002019
:1038800004F0F6FE06990098884205D00690089844
:1038900009909DE70321E2E70CB0BDE8F087000046
:1038A000006000407832002000F01F0201219140AA
:1038B0004009800000F1E020C0F88012704700F05D
:1038C0001F02012191404009800000F1E020C0F872
:1038D0000011704700F01F02012191404009800053
:1038E00000F1E020C0F8001270474907090E0028D7
:1038F00006DA00F00F0000F1E02080F8141D704798
:1039000000F1E02080F80014704700002DE9F0413C
:103910004FF48077384604F0BFFA0124104EA50713
:1039200048B1384604F0BFFA0120C5F808037470A6
:10393000002002F05BF94FF48277384604F0ACFACD
:1039400000280BD0384604F0AEFA0220C5F8080370
:10395000B470BDE8F041012002F048B9BDE8F08143
:103960006432002007480021C0F84011C0F844111B
:10397000C0F84811C0F84C11C0F80011C0F804118B
:1039800008F02EB80010014000F0CEB970B50E4618
:10399000144900EB400001EBC0051446E86A1835F5
:1039A00020B101280FD0022805D113E0284600F0ED
:1039B000EFF9A04201D2002411E022463146284608
:1039C00000F01EFA0BE0284600F0E2F9A042F4D223
:1039D0000446F2E73146284600F0E5F90446204661
:1039E00070BD0000E83A002007F048BF05F05ABB60
:1039F000F0B5B5480023021D0178101D01254FF0D8
:103A0000805406290BD11678360708D10678C6F3FC
:103A10000316032E06D0042E04D0052E02D006294C
:103A200007D00EE0B4F82463A84FC6F304263E6026
:103A300002E01678360704D10678C6F30316032E83
:103A400002D0062904D00FE0A24FA14E7E670EE0FF
:103A50001678360708D10678C6F30316032E06D06B
:103A6000042E04D0052E02D0062907D00EE0D4F88B
:103A70004462994FC6F342363E6002E0167836073C
:103A800004D10678C6F30316032E02D0062906D009
:103A900011E0924E376827F0807737600EE0167895
:103AA000360708D10678C6F30316032E06D0042E77
:103AB00004D0052E02D006290AD011E04FF080462E
:103AC000C6F80C31C6F81031834E361F336002E061
:103AD0001678360704D10678C6F30316032E02D0F3
:103AE000062905D00CE07C4F032664373E600AE0CF
:103AF0001678360704D10678C6F30316032E02D0D3
:103B000006290DD014E0764F05263E60744E7836B7
:103B10003560734E083633603F263F1D3E6002E03D
:103B20001678360704D10678C6F30316052E02D0A0
:103B3000062957D062E06B4E36686B4F3E60694E87
:103B4000361D36683F1D3E60664E083636683F1D9E
:103B50003E60644E0C3636683F1D3E60614E103646
:103B600036683F1D3E605F4E143636683F1D3E602E
:103B70005C4E183636685C4F20373E60594E1C3616
:103B800036683F1D3E60574E203636683F1D3E600A
:103B9000544E243636683F1D3E60524E28363668F5
:103BA0003F1D3E604F4E2C3636683F1D3E604D4EE9
:103BB000303636684C4F40373E604A4E34363668B1
:103BC0003F1D3E60474E383636683F1D3E60454ECD
:103BD0003C3636683F1D3E60424E403636683F1DDB
:103BE0003E6002E01678360708D10678C6F3031661
:103BF000032E06D0042E04D0052E02D0062907D0AD
:103C000019E0D4F85812394A01F04F01116002E06E
:103C1000117809070FD10078C0F30310032803D0EF
:103C2000042801D0052806D131480168C90702D00F
:103C30006FF001010160D4F83001062808D1D4F8F2
:103C40003401062804D12B48016841F480610160E9
:103C500022487438016841F470010160BFF34F8F4E
:103C6000BFF36F8F4FF01021D1F80002002803DB63
:103C7000D1F80402002822DA1F4A15601F480468A0
:103C8000002CFCD01524C1F800420568002DFCD0A2
:103C9000C1F8044201680029FCD0136001680029C2
:103CA000FCD0BFF34F8F0D48F0380168144A01F47F
:103CB000E06111430160BFF34F8F00BFFDE7124980
:103CC00010480860F0BD0000E00F00F040350140F2
:103CD0000DF0ADBA00C007403C050040FCED00E02F
:103CE000105600400404001020C50040E40E0040BF
:103CF000000400403C17004004E5014000E401409E
:103D00000400FA050090D003002C00200448017F35
:103D100004480029024901D007F081BF07F0F0BE36
:103D2000D03200200020004010B5124C022020614B
:103D3000606111A0A06104F17800E0614FF40070AF
:103D400020620020A06260620BA1A164E06204F521
:103D50001E71E1641021A065C4E91410E06509A199
:103D6000E01DFFF781FC08A12046FFF77DFC202025
:103D7000A07110BDE83A00205465726D696E616CE7
:103D8000000000005254540053454747455200007C
:103D90000269C1688A4203D88068401A104400E072
:103DA000501A401E70472DE9F047C46817468946EF
:103DB00006464FF000083069A04201D9051B02E019
:103DC000B168201A0D1AB0686D1E001BA84200D8F9
:103DD0000546BD4200D33D4670682A462044494608
:103DE000FFF7FCFBB0687F1B2C44A844A944A04209
:103DF00000D10024F460002FDDD14046BDE8F087FB
:103E00002DE9F04104468846D4E90207C51BE16864
:103E1000606816460844B54206D94146FFF7DEFB06
:103E2000B819E060BDE8F0812A464146FFF7D6FBAD
:103E3000761B08EB050132466068FFF7CFFBE660B2
:103E4000F0E702E008C8121F08C1002AFAD1704743
:103E50007047002001E001C1121F002AFBD170470A
:103E60000121202803DA81400548014003E0402871
:103E700002DA2038814009B10120704700207047E4
:103E8000FC06FFBD082806D228B1012803D004286B
:103E900001D0012070470020704710B560B159B1C2
:103EA00002780B785208B2EB530F05D10622401C62
:103EB000491CFFF7CCFB08B1002010BD012010BD4C
:103EC000800701D00020704701207047C3688B42F3
:103ED00006D811440069491E814201D8012070476B
:103EE0000020704710B501220221002001F02CFCB7
:103EF00008B1072810D107220221012001F024FC7B
:103F000008B1072808D100210A22084601F01CFC4C
:103F100008B1072800D1002010BD000010B550B135
:103F20000A480321008801EB004009A104F086FD46
:103F300006F056FA03E00321094800F023FD0028AB
:103F400003D0BDE8104000F0C5B810BD602C0020C3
:103F5000457261736520626F6E647321000000001A
:103F60008C2D002070B58CB015460E4600236C4693
:103F7000C3F10F01415CE1545B1C102BF8D30D2100
:103F800004F11000FFF751FB0020C0F10F02315C7B
:103F90002244401C11740328F7D3684643DF0020F5
:103FA000C0F10F01214491F820102954401C03282E
:103FB000F6D30CB070BD022001F0BEBA01490979F8
:103FC00000F0D4BEE02A002070B50024064D06E0C3
:103FD0006868012110F8340004F00AF8641C28789D
:103FE0008442F5D3002070BD482B0020F8B515465B
:103FF0000C460646052A01D20720F8BD04F0DEF87B
:1040000018B904F0ADF80028F7D1104900204E602F
:104010000C70C1E902500E4D08610DE006EBC400C2
:104020006968009181788DF801100078094A694625
:1040300004F030F80028E0D1641EE4B2EED2BDE80E
:10404000F840054A0021024800F050B8482B0020F3
:10405000D8C40200716A0200595E020004F0A6FD95
:1040600004F0F4FB0028FBD1104C0121208801EB67
:1040700000400FA104F0E2FC10480068C00700D027
:1040800000BE2088022101EB00400DA104F0D6FC07
:10409000BFF34F8F0948E43801680D4A01F4E0612D
:1040A00011430160BFF34F8F00BFFDE7602C00207C
:1040B000466174616C206572726F7200F0ED00E011
:1040C00053797374656D2072657365740000000028
:1040D0000400FA050EB500210091CDE901106A46F1
:1040E00044F20100FFF7BAFF0EBD0000074B9B78BA
:1040F00023B12AB120B10068037C1BB108207047AE
:10410000072070474174426100207047103300203F
:1041100070B506F08FFC104800240B210470447029
:104120000E4D817014206C602C706C70FFF7BCFB1E
:1041300007211420FFF7D9FB1420FFF7C0FB084824
:10414000046007211120FFF7D0FB0548001F00681D
:10415000A860002070BD0000103300205C2B002000
:10416000081501402DE9FC47DFF8789099F80230F6
:1041700073B368B3052902D20720BDE8FC87436901
:1041800033B3437C012B25D0002704460025884605
:1041900016468DF80050684600F038F801A807F080
:1041A00065FEC8B1012101700F4944600968C0E98A
:1041B0000218C0E904769DF8040089F801009DF812
:1041C000000000F047F81420FFF784FB2846D4E7EE
:1041D0000820D2E70F46D8E704259DF8000000F03C
:1041E00039F8F3E7103300200415014006498978B7
:1041F00039B130B1416921B100210174022107F0C8
:10420000CBBB0820704700001033002030B5EFF31F
:10421000108172B60D4A9468012324B103700029FD
:1042200000D162B630BD93604FF0E023D3F88051E7
:10423000074C25401560C3F88041D3F88441546091
:104240005A17C3F8842100220270E8E71C340020CA
:10425000FC06FFBD0B498A68002A11D000280FD147
:10426000EFF3108072B60B684FF0E022C2F8003115
:104270004B68C2F8043100228A60002800D162B67F
:10428000704700001C34002010B5144C00224FF47D
:1042900080312068FFF766FF08B1FFF71BFF00229F
:1042A0004FF400416068FFF75DFF08B1FFF712FFB0
:1042B000002242F26661A068FFF754FF08B1FFF7E1
:1042C00009FF00224FF42031E068FFF74BFF002880
:1042D00003D0BDE81040FFF7FDBE10BD78C302005B
:1042E0002DE9F047074600888EB0804600F002FDB9
:1042F0000646404602F012FF824604462E4800253C
:104300002A460178404600F047FD002E50D07879CB
:10431000400734D501254FF6FF7603AB2A46072127
:10432000504605F009FA010004D0404606F0FAFDB7
:1043300000252BE0B1463146049802F043FE0646C4
:1043400048450FD004460146404602F0D1FE4046A3
:10435000FFF734FE30B9404606F0B6FD4046FFF7A1
:104360002DFE48B122460721504605F07BFA010098
:1043700003D0404606F0D6FD00254E4506D0404607
:1043800005F0DEFB10B1504602F0B4FE02208DF8BD
:104390001800ADF81A807879400701D5012000E0B7
:1043A00002208DF820008DF8215006A801F0A0FE13
:1043B0000EB0BDE8F0870000E02A00202DE9F043B0
:1043C0000546007D93B00E460024A0B107949DF8E9
:1043D0001C0020F00F00401C20F0F00010308DF881
:1043E0001C00707B8DF81D009DF81E0020F006005B
:1043F000801C8DF81E001C216846FFF716F99DF8F9
:10440000000040F002008DF80000297D11B140F05D
:10441000100001E020F010008DF8000001940394DA
:104420000494287D00B107A8CDE9050401278DF883
:10443000427042F61920ADF840000D94B07B8DF823
:104440003400F07B8DF835009DF83600142120F003
:104450000600801C20F019008DF83600307B8DF8A6
:10446000440008A8FFF7E1F80DF140080DF1340908
:10447000ADF8287011A8CDE90889ADF82A40ADF84B
:104480002C700C90A888AB1D08AA6946A2DF0028F2
:1044900038D1B06898B38DF8427042F60810ADF884
:1044A00040000D94307C8DF834009DF8350020F0EC
:1044B000FF008DF835009DF8360020F00600801CC6
:1044C00020F019008DF836000EA8B16800F0D4FF76
:1044D0000646142108A8FFF7A8F8ADF828600EA832
:1044E000CDE90889ADF82A40ADF82C600C90E88839
:1044F00005F10E0208A9A3DF002803D101E0FFE7C0
:10450000EC81002013B0BDE8F08300000F4810B527
:104510000088032101EB00400DA104F08FFA174938
:10452000174806F076FDC1B2164800F010FB0028CF
:104530000BD0082809D0132807D043F20141884244
:1045400003D0BDE81040FFF7C5BD10BD602C0020B2
:10455000626174746572795F6C6576656C5F6D65B8
:1045600061735F74696D656F75745F68616E646CAB
:1045700065722072756E200A00000000642E002013
:10458000602A0020602D00202DE9FC4700251788B7
:104590000646158090F82D001446894630B13A46FB
:1045A0002146484600F010FC050009D1B0784FF0D4
:1045B0000C0A18B32088C846001DB84202D95046DC
:1045C000BDE8FC87684679DF0028F9D120880321FF
:1045D00008F8001020881921401C80B2208008F8BB
:1045E00000102088401C80B2208000EB0801BDF83C
:1045F000000007F08CFB218808442080F07802221C
:10460000C8B1218896F9033001F1030C4846BC4536
:10461000D5D8425421884FF0010C491C89B2218021
:1046200000F801C02188491C89B2218009F80130B5
:104630002088401C20807068B8B1218890F9003033
:1046400001F1030C4846BC45B9D8425421880A22DE
:10465000491C89B2218042542188491C89B2218099
:1046600009F801302088401C2080308950B1CDE904
:1046700000474B460622022106F1080007F00EFC17
:1046800005009DD1308A50B1CDE900474B46072245
:10469000032106F1100007F001FC050090D1308BDA
:1046A00050B1CDE900474B461522142106F1180000
:1046B00007F0F4FB050083D1306A30B13B46224657
:1046C000494601F0FDFA0500DBD1706A30B13B4686
:1046D0002246494603F058F90500D2D196F82C003D
:1046E00038B13B4622464946304606F01DFD0500DE
:1046F000C7D1307838B13B4622464946304603F0B0
:10470000CBF90500BDD128465AE7F0B50C4693B069
:104710001F210726ADF80010ADF80410002750B196
:10472000C17849070DD56A4602A9FFF72DFF002879
:1047300008D102AD02E00025ADF800706CB1E07860
:1047400010B1304613B0F0BD01AA0AA92046FFF708
:104750001BFF0028F6D10AAA02E00022ADF804707F
:10476000BDF80400C3B2BDF80000C1B2284672DF34
:10477000E8E780F82410704770B50D00044653D068
:10478000F4B3012020700026E670202205F17801A4
:10479000201DFEF723FF84F82460D5F89800C4F8A4
:1047A000CC00D5F89C00C4F8D0004FF6FF70A4F8F8
:1047B000C800C4F82560A4F8296084F82B6004F1CF
:1047C00030003C210646FEF730FF287884F83000A0
:1047D000A87884F83200E87884F83300687884F8A0
:1047E0003100D5E90401C4E91001D5E90201C4E9A9
:1047F0000E01D5E90601C4E9120195F82D0000E08B
:1048000012E084F85D00686AD8B104F1780104F11F
:104810006C0061676065696A09880180686A616D1A
:1048200080888880002008E00E2070BD696A221808
:104830008968095C82F87810401C616D8988814222
:10484000F4D8A86AE8B104F1A400C4F8A0000C38B8
:10485000A065A96A89888180A86AA16D00880880FE
:10486000002006E0A96A22188968095C82F8A41071
:10487000401CA16D89888142F4D895F82C0084F8F9
:104880005C00286A48B104F1C4002065296A49889F
:104890004180286A216D00880880686800B16063E3
:1048A00005F13C013046BDE87040FFF72EBF10B562
:1048B0000288102A1AD0112A1FD01B2A1CD1007A74
:1048C0000C46002818D1E0780521401CB0FBF1F21D
:1048D00001FB1201204600F055F800280CD0D4F856
:1048E000D010002908D0BDE810400847C27B012A3B
:1048F00002D18088A1F8C80010BD0C46002184F8C0
:10490000D4108088B4F8C8108842F5D120790028E6
:10491000F2D10121DEE710B50C46022801D00328B0
:1049200011D1607800280ED000206070E178204618
:1049300000F028F8002806D0D4F8D010002902D0C2
:10494000BDE81040084710BD10B5044674DF0120D3
:1049500084F8D400002084F8D600062084F83300C0
:10496000002104F13000FFF7D0FE002809D1E178E2
:10497000204600F007F818B1D4F8D01001B18847EC
:10498000002010BD2DE9FF47044600780F4638B1DE
:10499000E770002003F052FD012628B16670D2E0D6
:1049A000082004B0BDE8F0870025C4F82550A4F81D
:1049B000295084F82B50A07910B1E078012806D056
:1049C000E07970B1E078012801D0022809D1D4F84B
:1049D000CC1021B184F82C600820884701E084F8CD
:1049E0002C5004F1260100200A5C0AB1304603E095
:1049F000401C0628F8D300204FF002084FF0030AAD
:104A00004FF00409012F06D0022F09D0032F0CD03C
:104A1000042F12D10DE0A17911B108B130460DE09B
:104A2000E17911B108B1404608E0207A08B150465A
:104A300004E0607A08B1484600E02846E070D4F807
:104A4000CC1041B1032801D0042804D1607910B101
:104A500094F8D400A8B184F8D5500095029501953A
:104A600003958DF800508DF80850E17804F1250089
:104A700004F13002052958D2DFE801F0670A131F5C
:104A80003B0084F8D65084F8D56007208847E4E7D7
:104A9000A67001908DF80060ADF80C50ADF80A508A
:104AA00043E084F8028001908DF80060208AADF820
:104AB0000C00A089ADF80A0037E0A08AADF80A0022
:104AC000208BADF80C00607980B194F8D40068B9FF
:104AD00094F8D60050B18DF8088084F83390002106
:104AE0001046FFF712FE00BB05211AE084F802A071
:104AF0001BE0A08BADF80A00208CADF80C006079AB
:104B000088B194F8D40070B994F8D60058B18DF8F3
:104B1000088084F8339000211046FFF7F6FD20B995
:104B20000621A17001E084F80290E07830B194F899
:104B30002410684673DF00287FF433AFD4F8CC101C
:104B400009B1A078884700202BE7A570F6E773B578
:104B500086B0040034D0217C9DF81C2000209142B6
:104B60002CD0002501260095ADF8006007A8ADF80F
:104B700002500190E188608A6A46A4DF00281DD1B6
:104B80009DF81C002074608AA0F57F41FF3919D080
:104B9000207DB8B10295039504950595E088ADF8A0
:104BA0000800BDF80200ADF80C0001988DF80A600D
:104BB000CDF810D00590608A02A9A6DF08B070BDBC
:104BC0000E20FBE70820F9E738B50D4604001BD09E
:104BD000D5B1286820604FF6FF7060822879207573
:104BE000FF20207401208DF8020041F60F00ADF87F
:104BF0000000221D69460120A0DF002803D12946BC
:104C00002046FFF7DBFB38BD0E2038BD38B5002944
:104C100022D0002820D00288102A18D0112A18D0BB
:104C2000502A19D10C46097D002915D030F8061FED
:104C30006289914210D1418902290DD12168002950
:104C40000AD00C3000F014FC38B1002006E0808857
:104C500001E04FF6FF70488238BD01208DF800005A
:104C6000226869462046904738BD000070B50400B0
:104C700012D001461C221448FEF7B0FC1248134D16
:104C80000560206850B17ADF002806D120680168ED
:104C900029604068686005E00E2070BD0B487BDF2E
:104CA0000028FAD108484FF6FF711438084A20F856
:104CB000041B0549343901600021FFF717FA002869
:104CC000EBD0032070BD0000342F00209C2A002070
:104CD000EDBD020002494A6C091D05F0B5BF000098
:104CE000502F002002460248016D001D05F099BFBB
:104CF000502F002070B50A4E054600242A46301D6C
:104D0000716C05F08EFF40B12A46301DF16C05F044
:104D100088FF08B1022400E00124204670BD000095
:104D2000502F002010B50024204607F093F828B13A
:104D3000641CE4B2182CF7D3182010BD03480122DC
:104D4000A240016811430160204610BD502F002091
:104D500010B5044607F07EF8002803D0024800EBA7
:104D60008400806D10BD0000502F002070B50546F6
:104D70000C46084607F06EF8002809D005482A4678
:104D800000EB8401001D896DBDE8704005F049BF4E
:104D900070BD0000502F002070B5064615460C4629
:104DA000084607F057F800280AD006482B4600EBC3
:104DB00084013246BDE87040001D583105F069BFDE
:104DC00070BD0000502F00207CB5054608880C46B9
:104DD0000930904201D90C207CBD68466DDF002867
:104DE000FAD121880820685420881B21401C80B2F9
:104DF000208029542088401C80B220802844DDF87F
:104E000001100160BDF8051081802088801D80B2EE
:104E100020809DF80010490800D0012129542088E5
:104E2000401C208000207CBD7FB5044601208DF809
:104E3000060041F60A00ADF80400454A01A9012028
:104E4000A0DF00287ED1228804F13C0552B1404801
:104E50002B46801C009042F62920616800F05AFE23
:104E6000002873D1228952B139482B460A3000906C
:104E700042F62420E16800F04DFE002866D1228A27
:104E800052B133482B461230009042F6252061691A
:104E900000F040FE002859D1228B52B12C482B46FD
:104EA0001A30009042F62720E16900F033FE002816
:104EB0004CD1228C52B126482B462230009042F62B
:104EC0002620616A00F026FE00283FD1228D52B1D3
:104ED0001F482B462A30009042F62820E16A00F055
:104EE00019FE002832D1216B71B102A806F0A4FC92
:104EF00017482B4632300090082202A942F62320A0
:104F000000F008FE002821D1606B58B110492B46F3
:104F10003A3100910279016842F62A2000F0FAFD48
:104F2000002813D1A16B81B102A805F0C7FA084887
:104F30002B4642300090072202A942F6502000F092
:104F4000E9FD00E002E0002800D1002004B070BDBF
:104F5000FE2A002030B5018889B00446212930D0CE
:104F600012DC324D01293AD0314803221029008841
:104F700002EB004018D0112921D1227A2DA103F093
:104F800061FD4FF6FF7019E03B2924D051292AD04A
:104F9000562914D18088132176DF00280FD009B05C
:104FA000BDE83040FFF796B829A103F047FD072080
:104FB00000F0ECFB08B1FFF78DF8A088688009B01D
:104FC00030BD00200090A08869468FDF29E000BF37
:104FD000FFF780F8F3E78088132176DFDDE7002113
:104FE000688866DFD9E71022A11D04A8FEF7F6FA4B
:104FF0009DF810100029E2D09DF81800042803D075
:10500000062801D00528DAD102290DD05FF0010071
:105010008DF800004FF4C170ADF80400A088694617
:10502000A8DF0028D4D1CAE70220F1E7582A0020DF
:10503000602C0020446973636F6E6E6563746564F1
:105040002C20726561736F6E2025642E00000000B5
:10505000436F6E6E65637465642E000010B51A4C64
:105060000188606810290ED011292BD1401E606084
:1050700028D1FEF737FF002824D02168002921D04D
:10508000BDE810400847D0B900210122084600F0D1
:105090005BFB08B107280FD107220221012000F095
:1050A00053FB08B1072807D104220221002000F099
:1050B0004BFB20B1072802D0216801B18847606806
:1050C000401C606010BD0000942A00202DE9F047CC
:1050D00001883B4E40F2F3194FF6FF7510291BD0A3
:1050E00011293ED0122954D0502946D1C188F289C5
:1050F000841D914241D1618902293ED18688304682
:1051000002F0BAF8050038D004F10C0000F0B0F954
:10511000A8B3294630464EE0C17B87880446012962
:105120002BD1A846284602F0A7F8050017D02F80FB
:1051300000202872234843464A460168C5F80A10F1
:105140004068C5F80E0004F1100105F10A0002F0F4
:10515000F9F86872F08900280FD129462AE0042066
:1051600013E0808802F088F8040006D06068FFF73A
:105170003DF808B105F0BAFE2580BDE8F087FFE7ED
:105180006868FFF733F80028F7D0BDE8F04705F06E
:10519000ADBE87880646384602F06EF80400ECD0B3
:1051A0002B464A4606F1080104F10A0002F0CAF84B
:1051B000607221463846BDE8F04700F0C7BD0000E8
:1051C000342F00209C2A00202DE9F0470446038854
:1051D0003F480122A4B000F1480A102B09D0112B3E
:1051E00054D01A2B70D1217AB2EB111F53D2012364
:1051F00052E0D0E911218A430546011D12A805F0AD
:1052000023FD442212A901A8FEF7E8F9DFF8C090B7
:105210000026374609F144090DF104080AE000BFF1
:1052200008EB46001D2283884946281D009705F09B
:10523000BDFC761C0198B042F2D8686CA688C043C9
:1052400005F0D6FCA0F57F41FF3917D005EB4000F3
:105250000123868032465146281D05F01AFD0123A0
:1052600032464946281D05F014FDE07B02280BD08C
:1052700000231749A2884C31281D20E024B00420C7
:10528000BDE8F047FEF726BF0123F2E70023A2881E
:105290005146001D13E000230D490546A2885031F8
:1052A000001D05F0F6FC207A0221B1EB101F01D29F
:1052B000012300E000230649A2885431281D24B0B0
:1052C000BDE8F04705F0E5BC24B0BDE8F08700007C
:1052D000502F002010B504460748007800280AD057
:1052E000204601F0F5FD204606F018F82046BDE8FE
:1052F000104001F097BA10BDD02A002030B5044606
:10530000008CC3B0A0F57F42FF3A23D06A46204606
:1053100001F056FD0546ADF8F40000203E903F90A8
:10532000409041902189ADF8F8100121ADF8FC00C2
:105330008DF8FA103DA84090CDF804D1208C3EA9FC
:10534000A6DF002804D1BDF8F410A94200D00C203B
:1053500043B030BD0820FBE738B50446086820603C
:10536000087960714FF6FF702084002084F82200D5
:10537000A4F84C00F42084F84E0001208DF80200BF
:1053800041F60D000D46ADF80000A21D6946012052
:10539000A0DF00280ED12946204601F0AFFC0028EE
:1053A00008D1A86828B12946204600F06BF80028EB
:1053B00000D1002038BD38B50288102A15D0112A36
:1053C00015D0502A16D130F8062F8B899A4211D168
:1053D0000C46418902290DD1216800290AD00C30E0
:1053E00000F046F838B1002006E0808801E04FF672
:1053F000FF70088438BD01208DF8000022686946DE
:105400002046904738BD028C4B889A4208D10A88C2
:10541000A2F52063773B03D10979C91E80F84E10AD
:10542000704770B50446B0F84C000D4614280AD1F8
:1054300004F126012622881EFEF7D0F8B4F84C00AD
:10544000401EA4F84C00B4F84C0004EB4001401C92
:10545000A4F84C008D8470BD80F82210704770B5A0
:1054600004460D460846FEF7EBF82080656070BDE7
:10547000007800F0010070470A78027049784170A6
:1054800002207047F0B58FB00D4606461C216846D5
:10549000FEF7CBF800249DF80000039440F00200D2
:1054A0008DF80000012701948DF8367042F63820FF
:1054B000049405940694ADF834000C94E87B8DF8C0
:1054C0003000287C8DF831009DF83200142120F046
:1054D0000600801C20F019008DF8320007A8FEF7A6
:1054E000A4F80DA807900CA8ADF824700890ADF8AA
:1054F0002640ADF82870A8680B90F08806F11003DC
:1055000007AA6946A2DF0FB0F0BD00000149085CA0
:10551000704700008CC302000649095C4FF0A040B0
:10552000D0F81005C84010F0010000D0012080F034
:10553000010070478CC3020007490B5C4FF0A0418B
:10554000D1F804250120984020EA0203C1F808356B
:105550001040C1F80C05704788C302000249085C7E
:10556000012103F07AB8000088C302000249085CF8
:10557000002103F072B8000088C302000649095CEC
:105580004FF0A040D0F80405C84010F0010000D052
:10559000012080F00100704788C302007CB5002420
:1055A000084E25460122305D0095002311460195E5
:1055B00003F00DF8641C042CF4D3BDE87C4000F02B
:1055C00003B8000088C3020010B500242046FFF78E
:1055D000C5FF641C042CF9D310BD10B5002420466F
:1055E000FFF7C4FF641C042CF9D310BD10B50246AC
:1055F000064B4FF0FF3000215C5C944201D108461D
:1056000010BD491C0429F7D310BD00008CC3020053
:1056100070B50C4E0C004FF0000530600BD001202F
:1056200000F06AF808B1022004E0002000F064F8FD
:1056300000B10B202070706810B9FEF753FC0546CE
:10564000284670BD942A002010B5002000F0D0F943
:1056500008B1062806D1012000F0CAF908B10628D1
:1056600000D1002010BD00002DE9F0470D46814615
:10567000FFF7BCFF0446042836D2DFF874801B48CD
:105680001C4EA8F10C0725B3012D0ED0022D2BD1F5
:1056900004EB440030444578002D25D0B96800293A
:1056A00022D02846BDE8F047084704EB4401755C6A
:1056B0000E44717849B10E4A4FF40041093A8068AE
:1056C000FEF750FD08B987F80390B17808F8041088
:1056D000E2E78068FEF78AFD04EB4401314418F8E4
:1056E00004008D78A842D7D0BDE8F08790C30200AF
:1056F000902A0020D42E0020FFF70EBF014610484C
:1057000010B54088042907D007290ED00A2915D1E1
:10571000BDE8104005F0EEBD132176DF0CE0002857
:105720000CD0BDE81040FEF7D5BCA0F57F41FF3995
:1057300004D10448FFF708F90828F0D110BD000093
:10574000582A00208C2D002070B50023042810D288
:105750000D4D00EB4004012A02D101290CD000229A
:10576000094E00EB4000304461B1012906D0022906
:1057700006D00723184670BD0E30C2B22A55F9E78D
:105780004270F7E78270F5E7D42E0020044A014604
:1057900000201279D20702D0084600F04DB87047B9
:1057A000842A002070B506461E480024C0E9016125
:1057B000B00720D50025012211462846FFF7C4FF77
:1057C0006D1C0446042D02D2002CF4D013E094B9D1
:1057D00040F2666204211448FEF708FC04000AD176
:1057E000FEF7F2FB040006D10F48104A0021001F0B
:1057F000FEF77CFC0446F00701D0FFF7CFFE74B93A
:1058000009480B4A00210C38FEF770FC040006D151
:105810000548084A01210838FEF768FC044620467E
:1058200070BD0000842A00209CC30200995A020027
:10583000D9730200B73F02002DE9F05F6A4C0546BC
:1058400000266078B34618B184F801B001F0ACFDD1
:10585000664F4FF47A694FF4C87A4FF00108182D5B
:1058600062D2DFE805F0AC0C0C31404D62676B741E
:105870006B74BE7D7D7D7D7DACAFB2B5BEBE0020BC
:10588000FFF77CFE00284FF0000008D0FFF766FE0F
:10589000022D02D14FF4E16008E0484606E0FFF730
:1058A00065FE022D01D1C82000E05046410CC00326
:1058B0004FF4FA72801841F1000125705200002364
:1058C000FDF756FE01462AE00020FFF757FE0028AC
:1058D0004FF0000004D0FFF741FE4FF44870E5E7B9
:1058E000FFF744FEDFE70020FFF748FE00284FF0F7
:1058F000000002D0FFF732FECFE7FFF737FED4E714
:105900000020FFF73BFE00284FF0000002D0FFF719
:1059100025FE01E0FFF72AFE257041F69A110022CC
:105920003868FEF71FFC064646E00020FFF704FE3D
:10593000257008E0002051E025703DE084F80180EA
:105940000120FFF7F9FD002240F6CD41E8E784F899
:1059500001800120FFF7F0FD00224FF48041DFE7D6
:105960007868FEF743FC0646D5F1110000D02EB151
:105970000220FFF7F3FD84F802B01DE0012816D9DC
:1059800080B2C8214843C117C90341EA5041C0034E
:105990004FF4FA72801841F1000152000023FDF724
:1059A000E7FD014600227868FEF7DCFB0646022090
:1059B000FFF7DCFD84F802803046BDE8F09F01F07F
:1059C000F3FCB9E701F0F0FCB4E701F0EDFC04E012
:1059D00001F0EAFC0020FFF7C9FD0120FFF7C6FD3A
:1059E000AAE7FFF7FAFDA7E7842A002090C3020088
:1059F00010B5FFF78BFD032102F00DFE002010BD56
:105A0000F8B5871C00208DF800000E460125684679
:105A1000FEF7FCFB124C20683060D4E90001401A0C
:105A2000A168091ABE1C06E001F0A0FED4E900013D
:105A3000401AA168091A491C8E42F5D8A16820684D
:105A4000084004EB8000C16841F00301C160206898
:105A5000384420609DF80000FEF7FCFB2846F8BDA6
:105A6000C836002030B482680468531C8360A15497
:105A7000D0E901128A4202D330BC02F0B6BB30BC7E
:105A800070470000034803C8814201D101207047DC
:105A900000207047C836002000780221FFF7E4BDDF
:105AA00005494FF0FF32082841F8202002D308446E
:105AB00080F848207047000078320020F0B54FF0A1
:105AC000FF3512B10023082601E008230C260C4CF8
:105AD00005E000BF54F823707F1C04D05B1CB34268
:105AE000F8D32846F0BD26185DB286F8305044F849
:105AF0002310002AF5D1E11881F84800F1E70000F1
:105B0000783200200249084490F9300070470000C4
:105B1000783200202DE9F0438FB01E46DDF8589012
:105B200015460F00804602D10020FEF7D3FA15B9C2
:105B30000020FEF7CFFA1C216846FDF776FD002411
:105B40009DF80000039440F002008DF80000012051
:105B500001948DF83600049405940694ADF83480D1
:105B60000C9430788DF8300070788DF831009DF805
:105B70003200142120F00600801C20F019008DF85E
:105B8000320007A8FDF751FD0DA807900CA808905A
:105B90000748ADF82450ADF82640ADF828500B97D3
:105BA0004B4607AA69460088A2DF0FB0BDE8F08324
:105BB000FE2A002070B504464FF6FF750A462846B7
:105BC000AC4208D14FF480742146104604F0D2FA5A
:105BD000A04209D070BDFF2CFCD82146104604F02D
:105BE000BCFA08B1204670BD284670BD70B5084C9F
:105BF000050009D010342168002907D0086820600A
:105C0000496828468847F6E70834F4E770BD000085
:105C1000643200202DE9F05F26484168F1B3DFF8D7
:105C200098B00E688146DBF8004087688078E11BF9
:105C300021F07F45ED1CB0B9DFF880804FF4803053
:105C4000C8F84403C8F804031120FDF72DFE112005
:105C5000FDF735FE4FF0010AC8F800A02F2002F032
:105C60002BF989F802A0B54200D23546124BE8194B
:105C70003C3320F07F401860DBF800105A46091BC7
:105C800021F07F41001B20F07F40C91C81420FD9C9
:105C9000106818602F2002F00FF900E004E0BDE862
:105CA000F05F1120FDF716BEBDE8F05F04F0C2BE44
:105CB000BDE8F09F5C2B002004150140001001405E
:105CC0002DE9F04117880646B81D14460D46984246
:105CD00002D90C20BDE8F0813188072206290AD3B9
:105CE0004FF4486C4FF6FF73614501D9994202D1D8
:105CF0007088062801D21046ECE7604501D9984229
:105D0000F9D1994203D0984201D08142F3D80520BD
:105D1000E85520881221401C80B220802954208818
:105D2000401C80B220804119308805F0F0FF2188A6
:105D3000084480B220804119708805F0E8FF21886E
:105D4000084420800020C5E7FEF7C4B938B54A7A78
:105D50000F4B62B100220A725969002906D0012254
:105D60008DF80020ADF802006846884738BD0A7AF1
:105D700062B19B684C68024619462046FEF7F2F96C
:105D80000028F3D0BDE8384005F0B0B85B68F1E713
:105D9000342F0020F0B585B016460F4604461D4648
:105DA00014220B496846FDF719FC0A488DF8087063
:105DB000ADF80240ADF80A608DF80C500178002271
:105DC0002046FEF7E9FF684600F092F905B0F0BD05
:105DD000A8C40200E02A00207FB50C4610B10120C3
:105DE00004B070BD2079002638B141F61D55012858
:105DF0001BD0022826D00F20F2E702202071029645
:105E00000396E0680190694601A804F02BFD50B1AB
:105E100002988188E18000882081BDF800100298F6
:105E200004F09EFDDCE70A20DAE70A4B6A4600210F
:105E3000A01D04F0D3FC38B1064918398E61CE613B
:105E40000A28CDD12846CBE702488188019804F082
:105E500087FDF5E7882B00202DE9F041002601257C
:105E6000144C22E06068226900EBC607387805FA16
:105E700000F1114217D08A43226102F067F902460D
:105E80003878E36805FA00F1194002FA00F3994204
:105E900009D17978012901D0012100E00021514088
:105EA0007A6802B19047761CF6B220788642D9D340
:105EB000BDE8F081482B00200E4910B50A784C78D7
:105EC0000023A24212D0521CD2B20A70022A00D180
:105ED0000B70084A0B780C3252F823200260886855
:105EE000104420F07F408860012010BD0360002036
:105EF00010BD00005C2B002013460A460021FFF76E
:105F000049BF00002DE9F843104D0F4680461E465C
:105F100091466946286801F076FE040014D01C21E1
:105F2000FDF783FB01202071C4F81490380BC4F8EE
:105F30000080C4E902606946286801F085FE04F02B
:105F4000E9FB0020BDE8F8830420FBE708C5020058
:105F500010B503780022072B06D2DFE803F0050412
:105F60000610202930000A7010BD01230B70038930
:105F70008B818388CB81C06888600A7410BD02223F
:105F80000A7002898A818288CA81C2688A60807D9B
:105F9000062802D00020087410BD0120FBE7032270
:105FA0000A70C2888A810289CA81C068886010BD6F
:105FB00004230B70C0888881CA818A6010BD0520C7
:105FC000087010BD70B5064D0646002455F8241023
:105FD00009B130468847641C042CF7D370BD00001B
:105FE0003434002030B50446006885B00D46806822
:105FF00000281CD014216846FDF717FB0195A06806
:106000000490207910B101280DD104E001208DF811
:106010000000206904E002208DF80000E068000321
:10602000029060690390206881686846884705B0DF
:1060300030BD70B586B015460C00064619D0112C3F
:1060400017D0082C15D014216846FDF7EEFAADF8EC
:106050000260304601F062F8ADF804000D2C0AD061
:10606000862C1CD007208DF800000294684600F0B2
:106070004DF806B070BD03208DF8000025B12878DA
:10608000C00701D0012000E002208DF808000020A8
:106090008DF80C0041F20110ADF80A00E6E7062089
:1060A0008DF80000E2E7000010B50446408801F0DA
:1060B00035F8A080024801682046BDE81040084736
:1060C000AC2A00202DE9F04107460024064E074D7A
:1060D00005E000BF56F8241038468847641CE8786D
:1060E0008442F7DBBDE8F08118320020D02A00207E
:1060F00010B50446408801F011F8A08002480168FC
:106100002046BDE8104008477CC4020001490968E8
:1061100008470000D0C402007047000070B586B088
:10612000044614216846FDF780FAA0890026A0F5F0
:106130004040ADF8040020782D4D062835D2DFE828
:1061400000F0340303032E4EA08900F0C7F90121AB
:1061500030B9E08943F6FE72A0F54040904224D861
:10616000A07B8DF808002078032810D05FF0000095
:106170008DF80900A0680390606850B109208DF87F
:10618000000060680490684603F0B4FB0DE0012055
:10619000EEE708208DF800008DF81010F3E7A089D5
:1061A00000F09CF908B1E08938B16878002802D085
:1061B0006E7003F0CFFC06B070BD606838B10B2084
:1061C0008DF800006E70AE7003F0C4FCDBE70A20AF
:1061D0008DF80000BDF8040003F04CFDF2E7132039
:1061E0008DF800004FF6FF70ADF80400CBE700001B
:1061F000BC2A002038B504460E480078A8B1A4F5A2
:106200007F40FF380FD0684604F0BEF978B1052111
:10621000017001210171C480684604F0C3F904F0E3
:1062200069FA002038BD042038BD022038BD08209E
:1062300038BD0000902B00200C4808B5007888B1CC
:10624000684604F0A1F978B106210170684604F0AF
:10625000A9F90748017809B10121017304F04AFA4C
:10626000002008BD022008BD082008BD902B00209A
:10627000F8340020F0B589B014216846FDF7D5F94F
:106280002C4C207818B16846FFF79CFE50E0201D8A
:10629000012105AAFCF7CAFFB8BB4FF010204169E5
:1062A0000004026940694B1C01D100FB02F1224845
:1062B00000220161A1F54051C160204902F0B5F80A
:1062C000002820D11F481C238C221D49006801F0A2
:1062D00087FC03F0C3F8050014D0022D12D000276C
:1062E0000126062D12D006A804F04EF988B10670DA
:1062F0000C2D18D2DFE805F0170F170F1716171619
:10630000171113110B2009B0F0BD11E02670676062
:10631000B9E70820F7E7077105E0032100E0022153
:10632000017100E0067106A804F03CF904F0E2F9FE
:106330000020E8E7902B0020042C002018C5020064
:1063400044340020E0C4020038B5040014D069468B
:1063500004F088FAA0B1BDF8000000EB8001094804
:1063600000EB8100C16849B1A17A39B1C168491E09
:10637000C1600020A07238BD052038BD062038BDA0
:106380000A2038BDD03400201FB501A9684604F0AA
:1063900025FA04B010BD07B513460A466946002029
:1063A00004F01CFA0EBD07B513460A4600216846E4
:1063B00004F014FA0EBD20B119B100680860002085
:1063C00070470520704700007CB50D46040019D0C9
:1063D000C5B1694604F046FAB0B1BDF800000B49FA
:1063E00000EB800001EB8000012101AA0C306668FF
:1063F000FCF743FF2E6060680C3068600120A072DB
:1064000000207CBD05207CBD0A207CBDD03400204E
:1064100018B10323002205F087BE05207047022330
:10642000002205F081BE12B1022305F07DBE0520D9
:1064300070470000094908B50A69042A0BD0084AC8
:10644000096942F821000548012110306A46FCF72D
:1064500014FF002008BD0C2008BD0000702B002098
:106460003434002038B5044609480D46007858B148
:1064700064B16946284605F051FF002803D1BDF8F4
:1064800000102180658038BD022038BD052038BD50
:10649000902B002010B504460E48007898B1A4B1A6
:1064A0002188022913D80C4A01EB810002EB8002FB
:1064B00060885289C31C934209D805F023FF00204D
:1064C0002080608010BD022010BD052010BD04207A
:1064D00010BD0000902B0020D034002043F6FE7148
:1064E000A0F54040884201D8012070470020704745
:1064F00010B504460078182802D1FEF713FC20706E
:1065000010BD10B504460078182802D1FEF70AFC29
:10651000207010BD70B51346002206461546862928
:1065200002D0112902D002E0012200E001250D4C29
:1065300073B1A179FEF730FC2A4661793046FEF747
:106540002BFC0022A1783046FEF726FC002203E057
:10655000A178FEF721FC2A4661783046BDE87040FC
:10656000FEF71ABCE82A0020406804F023B80000B7
:106570000EB517A19DF8080020F00F00401C20F078
:10658000F00010308DF808000A2202A87CDF08B164
:10659000FDF7A0FD40F2413078DF08B1FDF79AFD2C
:1065A0000020009001904FF4A071ADF80400ADF808
:1065B00000104FF4C8704FF40271ADF80600ADF84A
:1065C000021068467ADF002801D0FDF783FD0EBD7A
:1065D0004E6F726469635F48524D000010B50888C1
:1065E0000C46A0F52061773909D108480321A3881A
:1065F0000088628801EB004005A102F02AFA2146DA
:10660000BDE810400E48FEF7FEBE0000602C0020E2
:106610004741545420415454204D5455206F6E200E
:10662000636F6E6E656374696F6E203078257820B5
:106630006368616E67656420746F2025642E0000B6
:10664000102D002070B508B1012070BD194C002537
:10665000207B08B1257301E000F0A0F8207808281D
:1066600026D2DFE800F02504080C10251420BDE830
:10667000704000F021B8BDE8704000F07DB8BDE882
:10668000704000F05FB8BDE8704000F03BB8608833
:10669000084900EB8000283901EB80004068BDE824
:1066A000704002F0BBBE6560BDE8704002F0C4BE41
:1066B0000F2070BDF83400201149F0B48A1C00206E
:1066C0000346A1F128050C18A67A4EB1A37200EB7F
:1066D000800405EB8404E66816B9247C012C0AD0FA
:1066E000401C80B20228EED30B704B804B60F0BC94
:1066F00041F61D5070471080F0BC00F03DB800001E
:10670000F83400200C48418801EB8102A0F12801F7
:1067100001EB8201CA6852B10521017007480221CC
:106720008180016800230122054801F057BE042240
:1067300002704968F6E70000F8340020982B00202A
:10674000042C002038B50A49084803240B68426825
:10675000898803EB810153880470DB1C00201B0433
:1067600000909B0B034801F0FFFE38BDF834002079
:10677000982B0020042C0020074910B54888091DDB
:1067800004F0C0F818B1BDE81040FFF7DBBFBDE86A
:106790001040FFF7B7BF0000F8340020F0B51F48E5
:1067A0001F490125067802248B88A0F12802082EB3
:1067B00019D2DFE806F00418181B222F2F170189C1
:1067C000491C01810021418080F80C1001EB8103FC
:1067D00012F8233043B100234418491C89B2A37234
:1067E0000229F3D30570F0BD0123F5E74268528812
:1067F000D21C1A448A800470F0BD46880D6806EBEE
:10680000860602EB860256680E60556013818C8006
:10681000062100E007210170F0BD0000F8340020DF
:10682000982B002030B501888588224C85B05029EE
:1068300024D0522902D0542932D103E0284600F056
:106840003FFF2DE014221C496846FCF7C7FEADF857
:106850000250284600F062FCADF8040000F034F964
:10686000002261792846FEF797FA0022217928460E
:10687000FEF792FA6846FFF717FC11E0017B012949
:106880000ED1817A01290BD10089A0F5245102395A
:1068900006D10121284600F047FFA07803F08AFACC
:1068A000E07803F087FA207905B0BDE8304003F0C6
:1068B00081BA0000A42A0020F8C3020010B50446E3
:1068C000007800280FD1608800F0FAFE608800F0A0
:1068D000A3F9002807D00449608801220979BDE89E
:1068E0001040FEF759BA10BDA42A002010B5124C72
:1068F00000202070FEF716FAA070FEF713FAE07081
:10690000FEF710FA2071FEF70DFA6071A1781829D0
:106910000FD0E17818290CD02179182909D018282E
:1069200007D00121601C03F011FC01202070002021
:1069300010BD032010BD0000A42A00202DE9F04165
:1069400092B000F0D9F86846FEF7C4F900246E460C
:106950000D4D4FF6FF780DE006EB4407B88800F0C8
:10696000DDFB404504D1B88801222979FEF714FAED
:10697000641CA4B20098A042EED8287903F01AFA59
:1069800012B0BDE8F0810000A42A00207CB50446C6
:1069900000781C4D08282FD1607A38BB207A4FF63A
:1069A000FF7601280DD0072802D0082824D11EE048
:1069B000A08800F0F1FAB0421ED0012100F0B4FE30
:1069C0001AE0A0886A46012102F08CFE70B9019895
:1069D000007858B1A08800F0DFFAB0420CD0012254
:1069E0002979FEF7D9F9287903F0E4F904E005489C
:1069F0000021401C03F0E5FBA878BDE87C4003F0D3
:106A0000D9B90000A42A002010B504460A484178EC
:106A10002046FEF7ABF968B10848002101EB4102BE
:106A200000EB82025288A24201D1C8B210BD491CBB
:106A30001429F3D3FF2010BDB62A0020083000200F
:106A400070B5094D094E002404EB440005EB8000AD
:106A500071784088FEF78AF920B1641C142CF3D3B6
:106A6000FF2070BDE0B270BD08300020B62A0020C3
:106A70002DE9F041124E07460125BD403068FDF773
:106A8000B5FB00280DD10F4C2069284207D13846AC
:106A900001F05CFB0028E06805D0284304E0A8432F
:106AA0002061BDE8F081A843E060206928432061AF
:106AB000A1683068BDE8F0410022FDF753BB00003B
:106AC000D8C40200482B00201CB5054AD2E90212A6
:106AD000CDE900120022694602F029FE1CBD00002B
:106AE00010C4020003484FF6FF718180012101703C
:106AF00000207047B02A002010B54FF6FF7002F05A
:106B0000A9FD03498880BDE8104004F0A5BA000043
:106B1000B02A00202DE9FC41804600F0FFFA002455
:106B200003250127A0F57F412646FF3908D06A4694
:106B3000082102F0D7FD18B90198841D86880568E0
:106B400032462B4621464046A9DF042804D00828B7
:106B500004D00B2808D002E0112000E00020002F14
:106B600000D10B20BDE8FC810027A80701D5012535
:106B7000E6E73443F5D0002426460325E0E72DE977
:106B8000FC41804600F0CAFA0646A0F57F40FF3877
:106B90000ED001252A466D1C0027ADB26B46082198
:106BA000304602F0C9FD040006D0072C25D025E0B0
:106BB00043F20200BDE8FC81019903230A1D0B602A
:106BC0004046891DAADF040004D00C2C09D0052CF6
:106BD00009D009E032460821104602F043FE04467F
:106BE0000CE0012700E000240821304602F026FED8
:106BF00000B10324002FCDD100E00C242046D9E7BA
:106C000004488088A0F57F41FF3901D004F024BA00
:106C100070470000B02A00200EB502A9019100F0D3
:106C20007DFA6A46012102F05DFD08B100200EBD2B
:106C3000019800780EBD00002DE9F04107464FF69F
:106C4000FF760A48ABDF10B10320BDE8F081074CA6
:106C500043F20305A41E324661883846A7DFA842E6
:106C6000F3D16088401C6080F5E70000B22A002064
:106C7000428800EB82020C328A4201D9022070471E
:106C80008188A1F57F42FF3A03D0008808B1002037
:106C9000704701207047884204D20068401C01D030
:106CA000012070470020704710B51149114804F0C9
:106CB000B0F9104C81B2103C6068401C60600E4816
:106CC000FEF71CFB48B1082807D0132805D043F273
:106CD0000141884201D0FDF7FDF960680321B0FB56
:106CE000F1F201FB120000B10120207010BD000084
:106CF000742E0020682A0020102D002070B5CCB022
:106D00000024054644949DF810010E4620F00F0023
:106D1000401C20F0F00010308DF81001087B8DF839
:106D200011019DF812011C2120F00600801C8DF835
:106D300012013DA8FCF779FC9DF8F4003E9440F068
:106D400010008DF8F40044A84094CDE941400120A2
:106D50008DF82E0142F637204394ADF82C014A9469
:106D6000707B8DF82801B07B8DF829019DF82A01F0
:106D7000142120F00600801C20F0180040F00100D3
:106D80008DF82A0145A8FCF750FC4BA845904AA86D
:106D900046906A460021284600F012F8ADF81C0122
:106DA000F420ADF81E41ADF82001CDF824D1E888DB
:106DB00005F1080345AA3DA9A2DF4CB070BD000053
:106DC0002DE9F041044640799046002500B10425A4
:106DD00094F8220008B145F00205CAB2FF2908D98B
:106DE000090A88F8012045F0010588F802100326F9
:106DF00002E088F801200226B4F84C0008B145F002
:106E0000100500271BE000BF94F84E10B21C914201
:106E10000BD2B4F84C0004EB4701C01B420004F154
:106E200024002431FCF7DAFB0DE004EB470008EB0B
:106E30000601808C0870000A4870D6B27F1CB4F836
:106E40004C00B842E0DC34F84C0FC01B208088F8BE
:106E500000503046BDE8F0813EB5027802230C4672
:106E6000B3EB520F17D1B0F80110ADF80010C17894
:106E70008DF802108188ADF8041080798DF8060035
:106E800002AA01A92046FDF76DF8032202A968466F
:106E9000FCF7DDFB08B100203EBD01203EBD000037
:106EA00010B50C46FFF7B0FDFF280CD0074900EBEA
:106EB000400001EB8000416821600189A180807A57
:106EC000A071002010BD052010BD0000083000207A
:106ED00070B5018892B0102959D1011D342268463D
:106EE000FCF77CFB9DF804004FF6FF760321344647
:106EF0006D46B1EB500F2AD002F06AFD9DF80400F8
:106F000040080ED001280CD0022820D118E00F999B
:106F1000281D1131FCF7C1FF18B100BFBDF8344086
:106F200015E00EAA0DA9072002F026FD0028EED1DB
:106F30000DE00F99281D491CFFF78EFF0028EDD1A9
:106F40000EAA0DA9072002F017FD0028F1D1BDF807
:106F50000000291D00F0EEFDB44218D0BDF800007D
:106F6000214600F0C5F8BDF80000ADF8360000205D
:106F7000ADF83840074E8DF834000DAD044600BF23
:106F800056F8241028468847641C022CF8D312B007
:106F900070BD000024C40200094A002101EB410336
:106FA00032F82330834205D101EB410002EB80002F
:106FB00040887047491C1429F0D34FF6FF70704782
:106FC000083000203EB50C46054602F001FD0BE0FE
:106FD000BDF80000A04207D02846029900F02EF824
:106FE00010B1BDF800003EBD01AA6946072002F0BD
:106FF000C3FC0028ECD14FF6FF703EBD10B50D4C20
:1070000018200D4A607000204FF6FF7100EB40031E
:1070100002EB8303401C59801428F7D3FDF782FE4E
:107020006070182803D001202070002010BD0320BC
:1070300010BD0000B62A0020083000202DE9F041E4
:107040000C46054600F1110701F111061022491CFA
:10705000401CFCF7FCFA48B9681C00F095F928B10F
:10706000601C00F091F908B1012400E000243146D1
:107070003846FCF712FF3B780222B2EB530F0CD0DC
:107080000321B1EB530F08D03378B2EB530F04D088
:10709000B1EB530F01D0012100E00021084201D1E2
:1070A0008C4302D00120BDE8F0810020FBE701887D
:1070B00011B9421892780AB101207047491C082979
:1070C000F7D30020704710B50C460346FFF7EFFFDB
:1070D00000280AD018882188884205D10822A11CDE
:1070E000981CFCF7B4FA08B1002010BD012010BDB7
:1070F00002F014BE70B50446FFF74EFF0546204669
:1071000002F0F3FA4FF6FF7104468D4203D014B932
:10711000284602F003FE204670BD000010B5FFF7C0
:1071200073FCFF2805D0044900EB400031F8200033
:1071300010BD4FF6FF7010BD083000203EB504466C
:1071400002F046FC0EE0019920464631FFF7BBFFF6
:1071500028B9019920462A31FFF7B5FF10B1BDF8D3
:1071600008003EBD6A4602A9072002F005FC00287F
:10717000E9D14FF6FF703EBD38B504460A480121FB
:107180006A46FCF705F968B90848606001F09CFFA1
:1071900005491C238C22087404488C39001F0068A0
:1071A00000F01EFD002038BDA43500200CC50200F3
:1071B0002DE9F0412D4F002518B17D600120BDE87B
:1071C000F0810879012258B1294E01280CD0274CB2
:1071D0004FF002080834022821D0032842D128E0C9
:1071E0000A7102F029F93BE05FF0000000EB80013A
:1071F00016F82110022908D0401C80B20228F5D3CD
:107200003A707D6041F61D50D9E700EB800006F82A
:10721000205006EB8000406802F000F920E00D717C
:10722000A4F80480002301221248216801F0D6F856
:1072300016E00D71206802F0F1F80D49236828313D
:10724000498801EB810206EB8201D1F804C0C4F841
:1072500000C04B60A3880B81A4F8048006F822507C
:107260000028ACD07D600E20A9E70000902B002004
:10727000D0340020042C00200146034802888A42B2
:1072800000D0002070470000202F00202DE9FC5F77
:107290000E008346DDE90C47C6F100009846924691
:1072A000814600D40846012503E000BF90FBFAF0B8
:1072B0006D1C5045FADAA84500D9454624B1002E88
:1072C00001DB780700D5641EB80702D5B8F1000FBE
:1072D0000AD0F80708D13CB1A54205D22021584672
:1072E000641EFEF7BFFBF6E7002E02DA4E462D21A4
:1072F00002E0780703D52B215846FEF7B3FB07F0D1
:10730000030002280BD1B8F1000F08D13CB1A5420F
:1073100005D230215846641EFEF7A4FBF6E7CDE9FE
:107320000047434652463146584604F005FDBDE845
:10733000FC9F00000248007A002800D0012070471E
:10734000A4350020F0B58488A518944200D82246C0
:10735000A41AC288D6189A4200D81346D21A4B886B
:107360000788BB420CD34088834209D88888A04252
:1073700006D3A84204D8C888904201D3B04201D9AC
:107380000020F0BD0120F0BD0021425C0AB10120C7
:107390007047491C1029F8D300207047800701D09E
:1073A00000207047012070470A4810B5807860B10E
:1073B000002401E0022C06D02046FEF7CFF8641C22
:1073C000042CF7D310BD0324F6E7BDE81040FEF708
:1073D000FBB80000842A002003480179C90702D0C5
:1073E0000078FEF729BA7047842A00200649012058
:1073F000086006480168C1F300410029FAD1044938
:1074000000208870704700000C0000401804004005
:1074100064320020F7210180172141800021017191
:107420004171FB2181711B21C17170472DE9FE4F14
:107430002A4D984691460F00824601D000260DE065
:10744000684600F0A3FB6A460021504602F0B9F8F6
:107450002878009E10B99DF8090098B14A46314637
:10746000504604F0A7F80446014600225046FFF7B4
:1074700051F8112C1AD008DC74B3082C2CD00D2C28
:1074800009D129E00520BDE8FE8F862C1AD0A4F58D
:107490004050023820D00325B8F1000F04D0324606
:1074A00021465046FEF7C5FD2846ECE73A462979C5
:1074B0005046FDF771FC4A46E9785046FDF76CFCF2
:1074C0000025E9E73A4629795046FDF765FC4A462A
:1074D000E9785046FDF760FC2546DDE7E82A002004
:1074E0002DE9F041204F0E46154604463978FDF748
:1074F0003DFC002835D0204602F03EF850B320462F
:10750000FFF70CFE80462046B978FDF72FFC08B146
:10751000012700E00227204602F012FB0028404627
:1075200002D0FFF7E7FD0DE0A8F57F41FF3909D054
:10753000072102F083F9010004D0052902D020467A
:1075400003F0F0FC2B46324639462046BDE8F041B8
:10755000FEF720BC2A4631462046BDE8F041FEF742
:10756000CBBCBDE8F0810000E02A00202DE9F0430B
:1075700091B08146FDF7ECFB002820D06846FDF76E
:10758000A9FB00246E4617E006EB44054946A8888F
:10759000FDF7ECFB78B10B4FA888F978FDF7E6FB17
:1075A0008046A8883979FDF7E1FB0146A8880123C8
:1075B0004246FFF73BFF641C0098A042E4D811B09C
:1075C000BDE8F083E82A00202DE9F047394E002776
:1075D00080463D46DFF8E090D6F804A057E003D09F
:1075E0000446D0F81C8035E099F8002002EB4201F7
:1075F000521CD2B289F8002009EBC10199F802307F
:10760000091D9A4201D189F8005048680A78044659
:10761000012A12D0022A02D0032A3BD108E004F04A
:107620008BF900B10127257434E00574C06900E0CE
:1076300070680028F9D170602CE0207C50BB88680D
:107640006060C868A0600869E0604869A061F0787F
:1076500000B165606268B168184B501A20F07F4035
:10766000984202D2A168084406E0881AA16820F076
:107670007F40814202D9081A206000E025606560E1
:107680000120A56020742046E56104F037F9B8F1C7
:107690000000A4D199F8001099F801008142A3D10B
:1076A00017B97168514502D00120BDE8F08700206C
:1076B000FBE700005C2B002010330020FFFF7F0061
:1076C00030B585B00546002414216846FBF7ADFFB0
:1076D000A5F57F40ADF80250FF3815D02846FFF7DA
:1076E00019FA98B10B2815D0112811D0A0F54051E6
:1076F000023903D00146284603F000FC094822461F
:10770000C1782846FDF748FB05B030BD0E2002E0E9
:107710000124F3E70F208DF800006846FEF7C4FC53
:10772000ECE70000A42A00200A4602498978FDF708
:1077300033BB0000A42A0020F8B5054600780C46AB
:10774000002620420FD100208DF800006846FCF78B
:107750005DFD2878204202D12043287001269DF843
:107760000000FCF777FD3046F8BD000070B588B02A
:10777000214800F074FA2048001F064600F06FFA16
:107780001E4DD5E9014105E0C0F3891202EB90508E
:10779000641C044404EA010005EB8000C068820711
:1077A000F2D000200DF1080204EA010305EB830387
:1077B000641CDB6842F82030401C0228F4D3029895
:1077C00000F00300012808D002280AD10298032102
:1077D00001EB905004EB900403E00298C0F3831097
:1077E00004443046002101AAFBF77BFE002800D0AC
:1077F0006C6008B070BD0000E03A0020C836002080
:10780000A8B0002001F08CF908B1FCF763FC01F08E
:107810000FF804F01FF94B490320FDF7C3FF08B12F
:10782000FCF758FC69460020FDF7F2FE08B1FCF7B2
:1078300051FC9DF8000002287ED0002601F0FCFBE0
:1078400008B1FCF747FC002469460120009401F0D0
:1078500095FA08B1FCF73EFC684601F03BFB08B125
:10786000FCF738FCFEF784FE3749384800F05EFA32
:1078700008B1FCF72FFCA0216846FBF7D6FE0220DA
:107880008DF8000001208DF80200062103258DF8F7
:107890007C008DF80310ADF810504FF496702C4911
:1078A00022900591B42023902A48269027486946C3
:1078B0001430FCF761FF08B1FCF70CFC23480121F0
:1078C0001430FCF756FF03F073FC03F04BFB1C2154
:1078D0006846FBF7AAFE4FF42030CDE900404FF494
:1078E0007020029019488DF80C5068388089ADF8E6
:1078F0000E0019480590194806908DF8104068460A
:10790000FDF7B4F908B1FCF7E5FB02F015FA1448ED
:1079100014A1008805EB004001F090F8FCF7B4FCDE
:107920003046FCF7FBFA00BF00F090FF0028FBD1C7
:107930003EDF0028F8D000E002E0FCF7CBFBF3E7E5
:1079400001267BE7FD560200DD650200782D002050
:10795000782A0020019202004D920200495D020047
:10796000602C002048656172742052617465205358
:10797000656E736F72206578616D706C65207374CD
:1079800061727465642E000070B5144682880E46DC
:1079900005462088111D0144921C994201D8FE2AF7
:1079A00001D90C2070BD521C32542088FF21401C8C
:1079B00080B2208031542088401C80B22080811900
:1079C000288804F0A4F92188084480B22080AA887D
:1079D00042B1A96841B13044FBF700FE2088A98874
:1079E00008442080002070BD072070BD2DE9F047BD
:1079F000C7880446181D16468946B0FBF7F1B0FB50
:107A0000F7F207FB12009A193A44D21CB2FBF7F2C4
:107A1000DDF820A001E02468491E0029FBD13D1AB1
:107A20008846B54216D818E0BAF1000F05D02118E3
:107A300009EB08002A46091D04E0204409EB08016F
:107A40002A46001DFBF7CAFD00202468761BA844C7
:107A5000B74201D9354600E03D46002EE4D1BDE8ED
:107A6000F087000030B5024669B101F087F80021C7
:107A7000084C0BE001EB410304EB830315685B88C2
:107A8000AB4202D11160002030BD491C8142F1D3CC
:107A9000052030BD182C0020F8B50E46017814469C
:107AA0000546012901D1687830B12088821C9A42AC
:107AB0002DD8012902D006E00720F8BD69780144DD
:107AC000891C994223D8181A801E87B2ADF800701D
:107AD0002188B01C084469467DDF0028EDD1287854
:107AE000022805D1BDF80010B94201D809210AE0E9
:107AF0000821012805D16878B84202D8ADF8000005
:107B000001E0ADF80070BDF80000FE2801D90C209E
:107B1000F8BD2288401CB0542088401C80B22080D0
:107B200031542088401C2080BDF80010084420807B
:107B30000020F8BD70B505460C004FF0FF0020D0C6
:107B40004FF6FF76B5421CD00E48012241782846F8
:107B5000FDF722F92846FEF757FFFF2803D1FEF76D
:107B60006FFFFF280DD0084B00EB400203EB8201B2
:107B70004D8023F8226022684A60A2880A81A27997
:107B80008A7270BDB62A002008300020034A002106
:107B90009268C0E90021816070470000E82A002057
:107BA00070B54FF6FF750E46A84201D1002000E0E7
:107BB000401C84B208E02146304602F0F6FA08B1D3
:107BC000204670BD641CA4B2FF2CF4D9284670BDB9
:107BD00010B5FBF7B8FB08B1002010BD112010BD97
:107BE00010B531B1B2FBF3F403FB14241CB109202E
:107BF00010BD0E2010BD01600021416081608281B6
:107C0000C381084610BD70B50C460546FBF750FB16
:107C1000002802D021882868084470BD10B50A8861
:107C200049888A4203D1FBF785FB012010BD002063
:107C300010BD70B50C460546FBF75FFB002802D06F
:107C400061882868084470BD10B50A8849888A424E
:107C500003D1FBF749FB012010BD002010BD08B582
:107C600001216A46FBF730FC009808BD08B56A465A
:107C7000FBF703FB009808BD38B5044600258DF8D6
:107C800000506846FCF7C2FA2168626808689042B2
:107C90000ED9401E08600178238AE26801FB0325A3
:107CA000227A2168101AC0B20A79824200D2087181
:107CB0009DF80000FCF7CEFA284638BD38B50546D9
:107CC00000208DF800000C466846FCF79FFAE86833
:107CD000298A201AB0FBF1F12A681068431C13604E
:107CE00001709DF80000FCF7B5FA38BD10B530B151
:107CF000017A42680368891AC9B21A6006E00E2048
:107D000010BD03681A68541C1C601170491EC9B26A
:107D1000F7D2006800210171084610BDC20800F0CA
:107D200007030120895C98400840704710B560B196
:107D30000161F72120F8021B20F8021BFB2100F84B
:107D4000021BFFF767FB002010BD0E2010BD0000D6
:107D50002DE9F043858895B00C46002D3DD1018872
:107D6000DFF824810026DFF82491012724293CD064
:107D700006DC102909D011290CD023296DD150E03F
:107D80003A290BD0552968D12AE00146204601F056
:107D90006BFA62E0A01DFFF73DFB5EE022464089E2
:107DA00034F8061F814200D808466080172800D2A8
:107DB00017206080106970B1607960B1D8E9001057
:107DC000CDE90310ADF80E506088ADF810001369CE
:107DD00003A9104698476671267115B0BDE8F08377
:107DE0000146204601F08EFA37E0011D342206A834
:107DF000FBF7F4FBBDF81800BDF81C2004EBC00134
:107E00004A7322694AB3D8E90432CDE90432ADF8A5
:107E10001200487B8DF814002269204604A990477F
:107E20001BE00496059630F8041F04EBC1020179AB
:107E3000127B8A4200D21146ADF81010ADF8121034
:107E40000088002204A990DF020006D0B9F80000E3
:107E50000F4907EB004000F0F5FDA07A0028BCD0E8
:107E6000E18828469EDF02000BD0112AB5D0B9F870
:107E7000000015B007EB0040BDE8F043054900F0F5
:107E8000E1BDA672E772A8E72CC40200182C0020FE
:107E900010C8020088C7020000F180400068002876
:107EA00000D00120704708B500F18040002101603A
:107EB0000068009008BD000000283ED01F49204AFD
:107EC000096800BF00BF00BF00BF00BF00BF00BF08
:107ED00000BF91422FD000BF00BF00BF00BF00BF56
:107EE00000BF00BF00BF00BF00BF00BF00BF00BF9A
:107EF00000BF00BF00BF00BF00BF00BF00BF00BF8A
:107F000000BF00BF00BF00BF00BF00BF00BF00BF79
:107F100000BF00BF00BF00BF00BF00BF00BF00BF69
:107F200000BF00BF00BF00BF00BF00BF00BF00BF59
:107F300000BF00BF00BF0138C3D17047002C002034
:107F40000024F40070B50F4C0025207808B1852579
:107F500016E00021A16061602161E1604FF0E02046
:107F6000D0F80001012610F0010F03D107210020F5
:107F700000F022F801F0A8F808B90348066026705E
:107F8000284670BD643200201805004008B5002066
:107F90008DF800006846FCF739F90648C168491EAB
:107FA000C160C06808B9FFF721FA9DF80000FCF72E
:107FB00051F908BD643200204907090E002806DA8D
:107FC00000F00F0202F1E02282F8141D03E000F13C
:107FD000E02282F8001400F01F02012191404009C4
:107FE000800000F1E020C0F88012C0F80011704756
:107FF0002DE9F0418846054601F048FF234E002850
:1080000028461AD0FDF77EFD304490F848008009DC
:10801000032802D001280ED007E04FF0A040D0F88E
:108020001005E84010F0010F05D003212846BDE8F7
:10803000F04100F001BB0221F8E701F033FF002816
:1080400022D02846FDF75EFD04464FF4807000EB19
:1080500084000F4F81B207EB8400D0F8102542F066
:108060000102C0F81025084600F016FBB8F1000F19
:108070000AD02846FDF746FD56F82000002803D018
:108080000120A040C7F80403BDE8F0817832002049
:10809000006000402DE9FC41DFF8A480044608EBB5
:1080A0000400002790F930001346C0170E46401C0C
:1080B00001D0082741E0F27819462046FDF7FEFC82
:1080C0000546401C38D0B07850B14FF0A04000EBCE
:1080D0008400D0F8001721F00201C0F8001707E073
:1080E00000217378204600910A46019100F081FA40
:1080F000F078C0B11348317800EB8500D0F8102536
:10810000114B1A40C0F810254FF4F8524FF4403389
:1081100002EA042203EA01410A43D0F810150A4397
:10812000C0F8102509E008EB0500327810F8481F68
:1081300041EA8211017000E004273846BDE8FC8165
:108140007832002000600040FFE0FCFF4FF0A041CB
:10815000D1F81015C14011F0010000D00120704786
:1081600070B5144D95F8540008B1082070BD00207A
:10817000411E2A18401CC0B282F830102028F8D3C3
:1081800000242046FDF78CFC641CE4B20C2CF8D3D0
:1081900007210620FFF710FF4FF4BE7000F07CFAB5
:1081A00005494FF00040C1F80403012085F8540050
:1081B000002070BD7832002000600040034890F835
:1081C0005400002800D001207047000078320020C1
:1081D0000FB408B50399002904D004AA00926A4696
:1081E00000F00FF801B05DF814FB10B5826804468A
:1081F000002A05D0D4E90403216898470020A06034
:1082000010BD2DE9FC4791460C00804676D014F84D
:10821000011B39B125290ED04046FDF723FC2078FB
:108220000028F4D198F80C00002867D04046BDE83B
:10823000FC47FFF7DABF0020012221782B291BD051
:108240002D2902D0302908D102E040F0010001E0E0
:1082500040F00200641C002AEFD100252A290ED02C
:108260002178A1F130020A2A11D205EB850201EB37
:108270004205641C303DF1E740F00400EAE7D9F81C
:1082800000100B1DC9F800300968641C0D442178EA
:1082900000232E290BD114F8011FA1F130020A2A64
:1082A00005D203EB830201EB4203303BF3E76C2979
:1082B0000DD068290BD0692921D00BDC252918D0D5
:1082C000582931D063290ED0642915D117E014F84C
:1082D000011FECE7702969D0732932D075291BD0B2
:1082E000782909D120E0D9F80000011DC9F8001053
:1082F00001784046FDF7B6FB641C90E76CE0D9F8C6
:1083000000100A1DC9F800200968CDE900500A22B2
:108310004046FEF7BBFFEFE7D9F800100A1DC9F889
:10832000002009680A2206E0D9F800100A1DC9F8E1
:10833000002009681022CDE90050404603F0FCFC03
:10834000DAE7D9F8001000270A1DC9F800200E68E6
:10835000C00705D112E04046761C7F1CFDF782FB6A
:1083600031780029F7D104E0202140466D1EFDF749
:1083700079FBBD42C0D9002DF6D1BDE74EB13046E4
:10838000FBF75EF9074604E0202140466D1EFDF72D
:1083900069FBBD4206D9002DF6D103E04046761CAC
:1083A000FDF760FB31780029F8D1A5E7D9F8000086
:1083B000011DC9F80010056830214046FDF752FB49
:1083C00078214046FDF74EFB08200021CDE9000151
:1083D000034610222946B0E7BDE8FC872DE9F041AD
:1083E0001F46154604000E4616D02068B8B1C5B128
:1083F00060680268501E304215D16A432046FBF780
:1084000065FD80B120683B462A46D0F810C0314651
:108410002046BDE8F04160470E20BDE8F08108200D
:10842000FBE70920F9E71020F7E720B119B1016057
:108430000B68114618470E20704700002DE9F041E7
:1084400028B1016819B1C969BDE8F04108470D4D6F
:108450000D480024461B14270DE000BF04EB8400E8
:1084600005EB8000016829B1C969884710B1012076
:10847000BDE8F081641CB6FBF7F0A042EED8002006
:10848000F6E70000042C0020182C002004480121ED
:108490004174007A08B10020704701207047000045
:1084A000A4350020012801D0032808D10449002266
:1084B00001284A7400D00020087402F0CFB8704739
:1084C000A435002070B5254C0246207A012837D00B
:1084D000022841D122480023022A006802D0032A40
:1084E0002ED11BE0E360017911B1012928D10DE003
:1084F000D0E90565711B4FF48056B14200D3314677
:10850000294481614569A9420ED019E00169491CDD
:1085100001614269914213D1237217E0E168491C5D
:10852000E16008290CD9E3602372022A0ED00D21E4
:10853000FDF758FD0B480A49091D0068FFF76EFB5F
:10854000607C28B1BDE8704000F0C4BD0021EFE7B9
:10855000BDE8704002F082B870BD0000A435002074
:10856000A02B002008C502002DE9F8431D46089FF6
:108570001646884604000DD066B1206860B135B15A
:1085800060684068B5FBF0F100FB115030B1092084
:10859000BDE8F8830E20FBE70820F9E74046FBF72B
:1085A0008FFC90B13046FBF78BFC70B12A464146F8
:1085B0002046FBF78BFC40B1009720682B463246E3
:1085C000C76841462046B847E2E71020E0E770B5AB
:1085D00041EA4201DDE904564FF0A04441EA83013B
:1085E00041EA052104EB800041EA0641C0F800178A
:1085F00070BD70B541EA4201DDE904564FF0A04478
:1086000041EA830141EA052104EB800041EA064189
:10861000C0F8001770BD4FF0A04202EB8000D0F808
:10862000002722F44032C0F80027D0F8002742EAA1
:108630000141C0F8001770474FF0A04202EB8000E4
:10864000D0F8002722F44032C0F80027D0F80027E5
:1086500042EA0141C0F80017704701224FF0A043E1
:10866000824011B1C3F808257047C3F80C25704744
:1086700018B5084B6C4601441B68009306E000BF28
:1086800054F82030D3F81035401C08C28142F7D886
:1086900018BD0000D4C40200034908B508440021F5
:1086A00001600068009008BD006000400249405829
:1086B000012800D0002070470060004030B5124B08
:1086C00001460020D3F81044224609E0157A85427D
:1086D00005D1401C0A28F7DB4FF0FF3030BD52684F
:1086E000002AF3D1421CF9D00872D3F810242AB121
:1086F00052684A60D3F81024516030BD0022C3F89C
:1087000010144A6030BD0000C83600207047FBF7E7
:108710003BB9704708B5034A00924023024A00F073
:1087200005F808BD2DB00200C8350020F0B595B0A1
:108730001C4615460F4608461A9E00F0EFFA18210F
:1087400009A8FAF772FF0E96CDE909540023082212
:1087500003A9384600F0FCFA059806900498ADF895
:108760001C0000208DF820000398082600F003006C
:10877000012802D002281DD03CE003983346850A28
:10878000C0F3C2008DF81E0003980FA9C0F380004B
:108790008DF81F000398C0F38314A200384600F040
:1087A000D7FA09A8009006AB22460FA9284600F088
:1087B00011FA1FE00398840DC0F3C2008DF81E006B
:1087C0000398C0F380008DF81F00082C01D22546C5
:1087D00000E0082533462A460FA9384600F0B8FACB
:1087E0002E44641B09AB06AA29460FA800F042F9E3
:1087F000002CEAD1384600F09AFA15B0F0BD00001E
:108800000A4A012902EBC00007D0022907D0032938
:1088100007D0042907D000207047022070470420A9
:1088200070470079704740797047000074CE0200AD
:1088300010B5FFF76CFF04210348FFF73FFF024923
:108840000120487210BD0000A82B00202DE9F04F38
:108850008DB0FDF717F918B100200DB0BDE8F08F0D
:1088600074480021C0F81814BFF34F8FD0E90146B7
:1088700004EA060100EB81014FF000090AE000BFA5
:10888000C1F3891202EB9151641C0C4404EA060105
:1088900000EB8101C9688A07F2D0002103AA804653
:1088A00004EA060008EB8000641CC06842F821005E
:1088B000491C43460229F3D3039800F00300022821
:1088C00006D0012803984FD0C04380077ED0ACE08B
:1088D00003985022810D8A46B2EB905F00D8502158
:1088E0000D4665F39F5003900831534800F0CDF9D1
:1088F00007006CD000F012FA4B46082203A9384654
:1089000000F02CFA04EA0601701A8000001D09F13B
:10891000080B854221D9474E0C3630B1C2B208EB64
:108920008101281A91460C3104E03146EAB2002652
:1089300091463046C5B25B46384600F00FFA0BEB65
:1089400009032EB12A4631464FEA070000F006FA25
:108950000AF1030004EB90043BE008EB81015B4665
:108960002A4638460C31F1E7C0F38310062800D3BD
:108970000620039960F38911C1F38310801C0391D1
:1089800081002D4800F081F907004ED000F0C6F9B3
:108990004B46082203A9384600F0E0F909F108091E
:1089A00000250DE004EA060008EB80014B46042296
:1089B00038460C31641C00F0D1F909F104096D1C32
:1089C0000398C0F38310A842ECD801E00BE02CE040
:1089D0005FB3D8F81054D8F81804464690B138461A
:1089E00000F0A5F921E0D3F8180400283FF435AFD2
:1089F0001BE0687A012804D1296828460A683946AC
:108A000090476D68002DF4D1384600F090F90020B1
:108A10008DF800006846FBF7F9FBD6F8180400B99A
:108A200074609DF80000FBF715FCFDF72BF880F053
:108A3000010012E7C836002048C6020000231A468B
:108A400002F0B2BE08B5012300926A4602F0ACFE05
:108A500008BD1CB5CDE9002302236A4602F0A4FE3E
:108A60001CBD3EB5069C8DE81C0003236A4602F03F
:108A70009BFE3EBD2DE9F0470E4680461C469246C1
:108A800008293ED894F80C9000202073194610460F
:108A900001F04CFD0025B54206D218F805201AA1B8
:108AA0002046FFF795FB03E019A12046FFF790FB56
:108AB0006D1C082DEFD317A12046FFF789FB002579
:108AC000B54210D218F80570FAF784FD0068C05D51
:108AD00010F03E0F01D03A4600E02E220EA12046B3
