:020000040002F8
:10300000286B00204D35020055350200573502006F
:10301000593502005B3502005D35020000000000FA
:103020000000000000000000000000005F3502000A
:1030300061350200000000006335020065350200C2
:103040002939020067350200293D02006735020078
:10305000673502006735020051370200673502000C
:1030600067350200673502006735020067350200E8
:1030700067350200673502006735020067350200D8
:1030800067350200813902006735020067350200AA
:10309000053A020067350200093A0200673502006E
:1030A00067350200673502006735020067350200A8
:1030B00067350200673502000000000000000000D4
:1030C0006735020067350200673502006735020088
:1030D0006735020067350200673502000000000016
:1030E00000000000000000000000000000000000E0
:1030F00000000000000000000000000000000000D0
:1031000000000000000000000000000000000000BF
:1031100000000000000000000000000000000000AF
:10312000000000000000000000000000000000009F
:10313000000000000000000000000000000000008F
:10314000000000000000000000000000000000007F
:10315000000000000000000000000000000000006F
:10316000000000000000000000000000000000005F
:10317000000000000000000000000000000000004F
:10318000000000000000000000000000000000003F
:10319000000000000000000000000000000000002F
:1031A000000000000000000000000000000000001F
:1031B000000000000000000000000000000000000F
:1031C00000000000000000000000000000000000FF
:1031D00000000000000000000000000000000000EF
:1031E00000000000000000000000000000000000DF
:1031F00000000000000000000000000000000000CF
:10320000DFF80CD000F058FA004800474D7C02006F
:10321000286B002030B4044654E8000F0D4644E803
:103220000053002BF8D1156030BC704730B4044611
:1032300054E8000F40EA010544E80053002BF7D1A1
:10324000156030BC704730B4044654E8000F00EA03
:10325000010544E80053002BF7D1156030BC7047DE
:1032600030B4044654E8000F80EA010544E80053F6
:10327000002BF7D1156030BC704730B4044654E8D9
:10328000000F00EB010544E80053002BF7D1156057
:1032900030BC704730B4044654E8000FA0EB010581
:1032A00044E80053002BF7D1156030BC7047000094
:1032B00030B450E8012F93B2C48923448489A342D7
:1032C00028BF1B1B0489A34202BFBFF32F8F00201E
:1032D00007E0C3EA020340E80134002CE9D14FF0D3
:1032E00001000A6030BC704750E8012FC2EA024278
:1032F00040E801210029F7D1704730B450E8022F8F
:103300001FFAA2F3C488A34202BFBFF32F8F00208D
:103310000DE0C48923448489A34228BF1B1BC2EA51
:10332000034340E80234002CE8D14FF001000A606A
:1033300030BC704750E8022FC2EA224240E8022126
:103340000029F7D17047034653E8022FD988B2EB22
:10335000324F4FF0000017BF92B241EA014142EAFA
:10336000014104E05A68B2EB324F08BF012043E844
:103370000212002AE8D1704730B4044654E8000F26
:103380000D4644E80053002BF8D1156030BC70475F
:1033900030B4044654E8000F40EA010544E8005305
:1033A000002BF7D1156030BC704730B4044654E8A8
:1033B000000F00EA010544E80053002BF7D1156027
:1033C00030BC704730B4044654E8000F80EA010571
:1033D00044E80053002BF7D1156030BC704730B47F
:1033E000044654E8000F00EB010544E80053002BAD
:1033F000F7D1156030BC704730B4044654E8000F74
:10340000A0EB010544E80053002BF7D1156030BC58
:103410007047000030B4044654E8000F0D4644E8FD
:103420000053002BF8D1156030BC704730B404460F
:1034300054E8000F40EA010544E80053002BF7D19F
:10344000156030BC704730B4044654E8000F00EA01
:10345000010544E80053002BF7D1156030BC7047DC
:1034600030B4044654E8000F80EA010544E80053F4
:10347000002BF7D1156030BC704730B4044654E8D7
:10348000000F00EB010544E80053002BF7D1156055
:1034900030BC704730B4044654E8000FA0EB01057F
:1034A00044E80053002BF7D1156030BC7047000092
:1034B00030B4044654E8000F0D4644E80053002B96
:1034C000F8D1156030BC704730B4044654E8000FA2
:1034D00040EA010544E80053002BF7D1156030BCE9
:1034E000704730B4044654E8000F00EA010544E890
:1034F0000053002BF7D1156030BC704730B4044640
:1035000054E8000F80EA010544E80053002BF7D18E
:10351000156030BC704730B4044654E8000F00EB2F
:10352000010544E80053002BF7D1156030BC70470B
:1035300030B4044654E8000FA0EB010544E8005302
:10354000002BF7D1156030BC70470000064880475B
:1035500006480047FEE7FEE7FEE7FEE7FEE7FEE778
:10356000FEE7FEE7FEE7FEE70D3A02000132020049
:103570002DE9F05F0546002092469B4688460646A8
:10358000814640241BE0284641464746224600F03B
:1035900083F853465A46C01A914110D31146184633
:1035A000224600F06AF82D1A67EB01084F462246C2
:1035B0000120002100F061F817EB00094E41201EA8
:1035C000A4F10104DFDC484631462A464346BDE803
:1035D000F09F00000048704784DC020010B5431AD9
:1035E000934209D28318881803E010F8011D03F8EC
:1035F000011D521EF9D210BD40EA01039B0703D002
:1036000009E008C9121F08C0042AFAD203E011F821
:10361000013B00F8013B521EF9D210BDD2B201E0CD
:1036200000F8012B491EFBD270470022F6E710B5C7
:1036300013460A4604461946FFF7F0FF204610BD20
:10364000421C10F8011B0029FBD1801A704730B5CD
:1036500004460020034600E05B1C934203D2E05C7A
:10366000CD5C401BF8D030BD034611F8012B00F8AB
:10367000012B002AF9D118467047202A04DB203A92
:1036800000FA02F1002070479140C2F1200320FAB5
:1036900003F3194390407047202A04DB203A21FAB3
:1036A00002F00021704721FA02F3D040C2F120025B
:1036B0009140084319467047064C074D06E0E06804
:1036C00040F0010394E8070098471034AC42F6D369
:1036D000FFF79AFD74E3020094E3020070B58C18C2
:1036E00010F8015B15F0070301D110F8013B2A1116
:1036F00006D110F8012B03E010F8016B01F8016B03
:103700005B1EF9D12B0705D40023521E0DD401F8FE
:10371000013BFAE710F8013BCB1A921C03E013F8C7
:10372000015B01F8015B521EF9D5A142D8D30020FC
:1037300070BD002310B51A46491E04E0845C521C7B
:1037400023449BB292B28A42F8DBD8B210BD00008B
:103750002DE9F04700268CB0DFF86091B0464FF4B9
:103760008075012437460696284605F05BFC38B183
:10377000D9F80403204203D0284605F049FC26432B
:103780002D1D64007F1CADB2082FEDD34FF4BE7425
:10379000204605F047FC48B1204605F039FC46F0CC
:1037A000004606AA0121002005F01EFC444D16F03B
:1037B000FF0F15D00127002437420DD009EB8401FB
:1037C000D1F81005D1F81015C0F3042055F82420C5
:1037D000C1F3014102B190477F00641C082CEBD378
:1037E000002E67DA4FF0FF30CDE90880002634461E
:1037F000281910F8507F90F9000027F0C008401CED
:1038000044D009A9404604F037FD58B34FEA971950
:10381000404602F0C7F955F820701FB1B9F1030F07
:1038200003D00FE0B9F1030F30D108A84FEAD80256
:1038300008F00703815C4FF0010C0CFA03FC41EA2D
:103840000C0181544FF0A04101EB8800D0F8000733
:1038500006A9C0F3014A404604F00EFD18B1BAF1C2
:10386000020F03D012E0BAF1030F0FD1B9F1030F29
:1038700008D1BAF1020F1BD00221404605F09CFB93
:10388000761CF6B217B149464046B847641C042C72
:10389000AED3002E0ED06A460121002005F0A4FB15
:1038A00006990098884205D00690089809909DE7EF
:1038B0000321E2E70CB0BDE8F087000000600040A3
:1038C0001040002000F01F020121914040098000BB
:1038D00000F1E020C0F88012704700F01F020121C3
:1038E00091404009800000F1E020C0F800117047CD
:1038F00000F01F02012191404009800000F1E0200A
:10390000C0F8001270474907090E002806DA00F0D7
:103910000F0000F1E02080F8141D704700F1E02056
:1039200080F80014704700002DE9F0414FF48077D3
:10393000384604F06FFD0124104EA50748B1384603
:1039400004F06FFD0120C5F808037470002002F038
:103950006FF94FF48277384604F05CFD00280BD0F5
:10396000384604F05EFD0220C5F80803B470BDE8D7
:10397000F041012002F05CB9BDE8F081FC3F00207D
:1039800007480021C0F84011C0F84411C0F84811A0
:10399000C0F84C11C0F80011C0F8041109F03CB98E
:1039A0000010014000F0CEB970B50E46144900EB8E
:1039B000400001EBC0051446E86A183520B1012823
:1039C0000FD0022805D113E0284600F0EFF9A042FD
:1039D00001D2002411E022463146284600F01EFAAA
:1039E0000BE0284600F0E2F9A042F4D20446F2E7E8
:1039F0003146284600F0E5F90446204670BD000037
:103A0000A048002009F056B805F0DEBFF0B5B54873
:103A10000023021D0178101D01254FF08054062956
:103A20000BD11678360708D10678C6F30316032E95
:103A300006D0042E04D0052E02D0062907D00EE0B1
:103A4000B4F82463A84FC6F304263E6002E016785B
:103A5000360704D10678C6F30316032E02D00629D2
:103A600004D00FE0A24FA14E7E670EE01678360715
:103A700008D10678C6F30316032E06D0042E04D010
:103A8000052E02D0062907D00EE0D4F84462994FE3
:103A9000C6F342363E6002E01678360704D1067857
:103AA000C6F30316032E02D0062906D011E0924E6B
:103AB000376827F0807737600EE01678360708D130
:103AC0000678C6F30316032E06D0042E04D0052E66
:103AD00002D006290AD011E04FF08046C6F80C311A
:103AE000C6F81031834E361F336002E01678360771
:103AF00004D10678C6F30316032E02D0062905D09A
:103B00000CE07C4F032664373E600AE016783607E7
:103B100004D10678C6F30316032E02D006290DD071
:103B200014E0764F05263E60744E78363560734E4D
:103B3000083633603F263F1D3E6002E016783607A8
:103B400004D10678C6F30316052E02D0062957D0F5
:103B500062E06B4E36686B4F3E60694E361D3668CC
:103B60003F1D3E60664E083636683F1D3E60644E1F
:103B70000C3636683F1D3E60614E103636683F1D7C
:103B80003E605F4E143636683F1D3E605C4E183610
:103B900036685C4F20373E60594E1C3636683F1DF4
:103BA0003E60574E203636683F1D3E60544E2436E8
:103BB00036683F1D3E60524E283636683F1D3E60D7
:103BC0004F4E2C3636683F1D3E604D4E30363668BF
:103BD0004C4F40373E604A4E343636683F1D3E609B
:103BE000474E383636683F1D3E60454E3C36366897
:103BF0003F1D3E60424E403636683F1D3E6002E04B
:103C00001678360708D10678C6F30316032E06D0B9
:103C1000042E04D0052E02D0062907D019E0D4F8CE
:103C20005812394A01F04F01116002E0117809077A
:103C30000FD10078C0F30310032803D0042801D06B
:103C4000052806D131480168C90702D06FF001018B
:103C50000160D4F83001062808D1D4F834010628D0
:103C600004D12B48016841F4806101602248743816
:103C7000016841F470010160BFF34F8FBFF36F8F94
:103C80004FF01021D1F80002002803DBD1F8040224
:103C9000002822DA1F4A15601F480468002CFCD057
:103CA0001524C1F800420568002DFCD0C1F804427B
:103CB00001680029FCD0136001680029FCD0BFF323
:103CC0004F8F0D48F0380168144A01F4E061114348
:103CD0000160BFF34F8F00BFFDE712491048086035
:103CE000F0BD0000E00F00F0403501400DF0ADBA2E
:103CF00000C007403C050040FCED00E010560040CD
:103D00000404001020C50040E40E00400004004000
:103D10003C17004004E5014000E401400400FA05BE
:103D20000090D003603300200448017F044800293C
:103D3000024901D009F081B909F094B86840002027
:103D40000020004010B5124C02202061606111A0DB
:103D5000A06104F17800E0614FF40070206200205F
:103D6000A06260620BA1A164E06204F51E71E164CF
:103D70001021A065C4E91410E06509A1E01DFFF75A
:103D800073FC08A12046FFF76FFC2020A07110BD36
:103D9000A04800205465726D696E616C00000000DF
:103DA0005254540053454747455200000269C168C8
:103DB0008A4203D88068401A104400E0501A401E1E
:103DC00070472DE9F047C4681746894606464FF00C
:103DD00000083069A04201D9051B02E0B168201A31
:103DE0000D1AB0686D1E001BA84200D80546BD42E2
:103DF00000D33D4670682A4620444946FFF7EEFB53
:103E0000B0687F1B2C44A844A944A04200D10024E0
:103E1000F460002FDDD14046BDE8F0872DE9F04188
:103E200004468846D4E90207C51BE1686068164667
:103E30000844B54206D94146FFF7D0FBB819E06007
:103E4000BDE8F0812A464146FFF7C8FB761B08EB28
:103E5000050132466068FFF7C1FBE660F0E702E06B
:103E600008C8121F08C1002AFAD170477047002005
:103E700001E001C1121F002AFBD170470121202857
:103E800003DA81400548014003E0402802DA203887
:103E9000814009B10120704700207047FC06FFBD3A
:103EA000082806D228B1012803D0042801D0012017
:103EB00070470020704710B560B159B102780B7897
:103EC0005208B2EB530F05D10622401C491CFFF7E4
:103ED000BEFB08B1002010BD012010BD800701D03D
:103EE0000020704701207047C3688B4206D81144F8
:103EF0000069491E814201D80120704700207047A7
:103F000070B500238D880C680DE0E618E15C7678CA
:103F1000864206D1E018801C491E10609180002066
:103F200070BD0B445B1C9D42EFD8052070BD0000A6
:103F300010B5002004F02EFF00280ED107F052FF2C
:103F4000002001F0BCFB0321044800F01BFD002809
:103F500003D0BDE8104000F0D7B810BDFC340020FD
:103F600010B501220221002001F052FC08B10728FF
:103F700010D107220221012001F04AFC08B10728D4
:103F800008D100210A22084601F042FC08B10728A6
:103F900000D1002010BD70B58CB015460E46002330
:103FA0006C46C3F10F01415CE1545B1C102BF8D34C
:103FB0000D2104F11000FFF738FB0020C0F10F02C3
:103FC000315C2244401C11740328F7D3684643DF58
:103FD0000020C0F10F01214491F820102954401C09
:103FE0000328F6D30CB070BD022001F055BB0000D1
:103FF0000149097900F034BE6832002070B5002410
:10400000064D06E06868012110F8340004F0B2FAA9
:10401000641C28788442F5D3002070BD98320020BB
:10402000F8B515460C460646052A01D20720F8BD0C
:1040300004F086FB18B904F055FB0028F7D11049AD
:1040400000204E600C70C1E902500E4D08610DE079
:1040500006EBC4006968009181788DF80110007842
:10406000094A694604F0D8FA0028E0D1641EE4B297
:10407000EED2BDE8F840054A0021024800F078B8C9
:1040800098320020B8D90200396C0200495F020062
:1040900005F048FA05F096F80028FBD1104C0121F4
:1040A000208801EB00400FA105F084F9104800685A
:1040B000C00700D000BE2088022101EB00400DA106
:1040C00005F078F9BFF34F8F0948E43801680D4ACD
:1040D00001F4E06111430160BFF34F8F00BFFDE7C2
:1040E000E4330020466174616C206572726F720067
:1040F000F0ED00E053797374656D2072657365743B
:10410000000000000400FA050EB500210091CDE981
:1041100001106A4644F20100FFF7BAFF0EBD10B568
:104120008268C368934203D002F0E2FA002010BD17
:10413000052010BD29B112B1531E134203D009202E
:1041400070470E2070470160838000218160C1604C
:104150000846704710B58268C3689A1A83889A42E5
:1041600003D802F0CFFA002010BD042010BD0000DB
:10417000074B9B7823B12AB120B10068037C1BB1A7
:104180000820704707207047417442610020704743
:10419000A840002070B507F0D1FD104800240B2185
:1041A000047044700E4D817014206C602C706C7023
:1041B000FFF788FB07211420FFF7A5FB1420FFF76A
:1041C0008CFB0848046007211120FFF79CFB054881
:1041D000001F0068A860002070BD0000A8400020FB
:1041E000AC320020081501402DE9FC47DFF878903B
:1041F00099F8023073B368B3052902D20720BDE8ED
:10420000FC87436933B3437C012B25D00027044648
:104210000025884616468DF80050684600F0CAF81A
:1042200001A809F031F8C8B1012101700F494460BB
:104230000968C0E90218C0E904769DF8040089F80D
:1042400001009DF8000000F0D9F81420FFF750FBA2
:104250002846D4E70820D2E70F46D8E704259DF882
:10426000000000F0CBF8F3E7A8400020041501405F
:104270000649897839B130B1416921B10021017411
:10428000022108F0A5BC082070470000A8400020CB
:1042900070B50A4E01460A48B578FFF740FF04465C
:1042A0004DB10020B070711C0122C81D04F08EFABF
:1042B00008B1FFF729FF204670BD0000F83200204A
:1042C00060430020F0B5284E89B01F460D0004461B
:1042D00072603BD0A888296882B22448FFF72AFF81
:1042E000002834D1A889A96882B220481030FFF78D
:1042F00021FF00282BD120221D496846FFF76EF9C7
:1043000060690690207C00B101208DF814008DF8C2
:104310001C70607C00B10E208DF81500E0680290E2
:10432000A068039020680190606800900E48114AD0
:104330006946083004F016FA002808D1B0702068E9
:10434000401C04D09DF81D0018B106E0072009B0FC
:10435000F0BD0548083004F091FA03490122491CD8
:10436000C81D04F033FAF2E7F83200206043002061
:104370001CDB02006DCD020010B501460B48FFF7B3
:10438000E9FE040010D10A4804F0C2FB60B90849F4
:1043900006480839FFF7C3FE30B90549012208393C
:1043A000034804F02FFB0446204610BD7043002054
:1043B0000033002030B5EFF3108172B60D4A9468D7
:1043C000012324B10370002900D162B630BD93608F
:1043D0004FF0E023D3F88051074C25401560C3F817
:1043E0008041D3F8844154605A17C3F884210022D5
:1043F0000270E8E7B4410020FC06FFBD0B498A6863
:10440000002A11D000280FD1EFF3108072B60B688C
:104410004FF0E022C2F800314B68C2F804310022AC
:104420008A60002800D162B670470000B4410020C5
:104430002DE9F041064608680C46411C4FF0A047A4
:104440004FF0010506D005FA00F1C7F808152068FD
:1044500004F0A8FD6068411C02D0002104F099FD21
:104460003079204901EB4010A169007F00283068B5
:10447000C0F8241525D0607D227D31681043C1F835
:104480006C05D4E900123068C0F80C15C0F814258A
:1044900024E0A068411C02D0002104F07AFDE0680D
:1044A000411C05D08540C7F80855E06804F07AFD46
:1044B000D4E902123068C0F80825C0F81015BDE82C
:1044C000F081607D217D32680843C2F86C05D4E933
:1044D00000123068C0F81425C0F80C15207D0128A2
:1044E000D7D0ECE7684000202DE9F0470746008868
:1044F0008EB0804600F078FB0646404602F042FF50
:10450000824604462E4800252A460178404600F09F
:10451000BDFB002E50D07879400734D501254FF6E9
:10452000FF7603AB2A460721504606F085F90100C5
:1045300004D0404607F0A6FE00252BE0B1463146E8
:10454000049802F073FE064648450FD00446014623
:10455000404602F001FF4046FFF74AFD30B94046B1
:1045600007F062FE4046FFF743FD48B122460721AF
:10457000504606F0F7F9010003D0404607F082FEEE
:1045800000254E4506D0404606F05AFB10B1504675
:1045900002F0E4FE02208DF81800ADF81A80787958
:1045A000400701D5012000E002208DF820008DF8A1
:1045B000215006A801F0A8FE0EB0BDE8F08700006B
:1045C000683200202DE9FC47002517880646158033
:1045D00090F82D001446894630B13A4621464846A7
:1045E00000F0F6FB050009D1B0784FF00C0A18B3C3
:1045F0002088C846001DB84202D95046BDE8FC8755
:10460000684679DF0028F9D12088032108F80010D6
:1046100020881921401C80B2208008F800102088D2
:10462000401C80B2208000EB0801BDF8000008F0BB
:104630007CFD218808442080F0780222C8B12188BE
:1046400096F9033001F1030C4846BC45D5D84254D5
:1046500021884FF0010C491C89B2218000F801C06B
:104660002188491C89B2218009F801302088401C2A
:1046700020807068B8B1218890F9003001F1030CF6
:104680004846BC45B9D8425421880A22491C89B2FF
:10469000218042542188491C89B2218009F80130C7
:1046A0002088401C2080308950B1CDE900474B461E
:1046B0000622022106F1080008F0FEFD05009DD14A
:1046C000308A50B1CDE900474B460722032106F15D
:1046D000100008F0F1FD050090D1308B50B1CDE90C
:1046E00000474B461522142106F1180008F0E4FD9E
:1046F000050083D1306A30B13B462246494601F07D
:1047000001FB0500DBD1706A30B13B4622464946C9
:1047100003F0E8FB0500D2D196F82C0038B13B46F7
:1047200022464946304607F03FFE0500C7D13078A3
:1047300038B13B4622464946304603F05BFC050053
:10474000BDD128465AE7F0B50C4693B01F21072685
:10475000ADF80010ADF80410002750B1C17849073A
:104760000DD56A4602A9FFF72DFF002808D102AD3A
:1047700002E00025ADF800706CB1E07810B1304671
:1047800013B0F0BD01AA0AA92046FFF71BFF0028BD
:10479000F6D10AAA02E00022ADF80470BDF80400C8
:1047A000C3B2BDF80000C1B2284672DFE8E780F866
:1047B0002410704770B50D00044653D0F4B30120A7
:1047C00020700026E670202205F17801201DFEF7FA
:1047D00005FF84F82460D5F89800C4F8CC00D5F81B
:1047E0009C00C4F8D0004FF6FF70A4F8C800C4F8CD
:1047F0002560A4F8296084F82B6004F130003C2186
:104800000646FEF712FF287884F83000A87884F86E
:104810003200E87884F83300687884F83100D5E90C
:104820000401C4E91001D5E90201C4E90E01D5E98A
:104830000601C4E9120195F82D0000E012E084F8A9
:104840005D00686AD8B104F1780104F16C00616719
:104850006065696A09880180686A616D80888880FE
:10486000002008E00E2070BD696A22188968095C82
:1048700082F87810401C616D89888142F4D8A86A5A
:10488000E8B104F1A400C4F8A0000C38A065A96A3E
:1048900089888180A86AA16D00880880002006E0D0
:1048A000A96A22188968095C82F8A410401CA16DCD
:1048B00089888142F4D895F82C0084F85C00286A35
:1048C00048B104F1C4002065296A49884180286AFA
:1048D000216D00880880686800B1606305F13C01C3
:1048E0003046BDE87040FFF72EBF10B50288102A91
:1048F0001AD0112A1FD01B2A1CD1007A0C4600287E
:1049000018D1E0780521401CB0FBF1F201FB120147
:10491000204600F037F800280CD0D4F8D010002939
:1049200008D0BDE810400847C27B012A02D1808828
:10493000A1F8C80010BD0C46002184F8D41080886E
:10494000B4F8C8108842F5D120790028F2D10121AD
:10495000DEE710B50C46022801D0032811D160789B
:1049600000280ED000206070E178204600F00AF8A0
:10497000002806D0D4F8D010002902D0BDE810409D
:10498000084710BD2DE9FF47044600780F4638B1AF
:10499000E770002004F0FEF9012628B16670D2E02D
:1049A000082004B0BDE8F0870025C4F82550A4F81D
:1049B000295084F82B50A07910B1E078012806D056
:1049C000E07970B1E078012801D0022809D1D4F84B
:1049D000CC1021B184F82C600820884701E084F8CD
:1049E0002C5004F1260100200A5C0AB1304603E095
:1049F000401C0628F8D300204FF002084FF0030AAD
:104A00004FF00409012F06D0022F09D0032F0CD03C
:104A1000042F12D10DE0A17911B108B130460DE09B
:104A2000E17911B108B1404608E0207A08B150465A
:104A300004E0607A08B1484600E02846E070D4F807
:104A4000CC1041B1032801D0042804D1607910B101
:104A500094F8D400A8B184F8D5500095029501953A
:104A600003958DF800508DF80850E17804F1250089
:104A700004F13002052958D2DFE801F0670A131F5C
:104A80003B0084F8D65084F8D56007208847E4E7D7
:104A9000A67001908DF80060ADF80C50ADF80A508A
:104AA00043E084F8028001908DF80060208AADF820
:104AB0000C00A089ADF80A0037E0A08AADF80A0022
:104AC000208BADF80C00607980B194F8D40068B9FF
:104AD00094F8D60050B18DF8088084F83390002106
:104AE0001046FFF730FE00BB05211AE084F802A053
:104AF0001BE0A08BADF80A00208CADF80C006079AB
:104B000088B194F8D40070B994F8D60058B18DF8F3
:104B1000088084F8339000211046FFF714FE20B976
:104B20000621A17001E084F80290E07830B194F899
:104B30002410684673DF00287FF433AFD4F8CC101C
:104B400009B1A078884700202BE7A570F6E70000A0
:104B500070B5040012D001461C221448FEF73EFD39
:104B60001248134D0560206850B17ADF002806D145
:104B70002068016829604068686005E00E2070BD0B
:104B80000B487BDF0028FAD108484FF6FF71143834
:104B9000084A20F8041B0549343901600021FFF759
:104BA000E7FA0028EBD0032070BD00007438002025
:104BB0001432002009D2020002494A6C091D07F094
:104BC000E5B900009038002002460248016D001D42
:104BD00007F0C9B9903800200249C86C896C0840B8
:104BE00007F0F9B99038002070B50A4E0546002448
:104BF0002A46301D716C07F0B6F940B12A46301DC7
:104C0000F16C07F0B0F908B1022400E0012420465D
:104C100070BD00009038002010B50024204608F038
:104C200027FB28B1641CE4B2182CF7D3182010BD60
:104C300003480122A240016811430160204610BDD3
:104C40009038002010B5044608F012FB002803D06D
:104C5000024800EB8400806D10BD000090380020F9
:104C600070B505460C46084608F002FB002809D03E
:104C700005482A4600EB8401001D896DBDE870409F
:104C800007F071B970BD00009038002070B506467D
:104C900015460C46084608F0EBFA00280AD00648EC
:104CA0002B4600EB84013246BDE87040001D5831B0
:104CB00007F0A0B970BD00009038002070B540B179
:104CC0000C4D297839B1044606F0CCFE28B10020FD
:104CD00070BD0E2070BD082070BDE868062807D2A0
:104CE0000549226801EB8001401C0A60E860EEE79C
:104CF000042070BD1C3200204839002040B1054915
:104D000000220123CA600B70C1E9010210467047FE
:104D10000E2070471C32002070B504002DD00029F1
:104D20002BD020480078002827D020880D46112855
:104D300015D0302804D0322807D033281ED109E0FE
:104D4000211D284605F024FB18E0211D284605F00A
:104D50001FF913E0211D284605F0F2F90EE0A088A6
:104D6000B5F8CA12884209D1002085F8C70285F833
:104D7000C8024FF6FF70A5F8CA0270BD95F8C802C8
:104D80000028FAD020883028F7D34F28F5D8A088FB
:104D9000B5F8CA128842F0D12846BDE8704001F04B
:104DA00069B900001C32002048B1084A137843B1A9
:104DB000D26832B190F8C7222AB1112070470E2074
:104DC00070470820704701F055B900001C320020E0
:104DD0007CB5054608880C460930904201D90C2064
:104DE0007CBD68466DDF0028FAD121880820685410
:104DF00020881B21401C80B2208029542088401C20
:104E000080B220802844DDF801100160BDF8051053
:104E100081802088801D80B220809DF80010490884
:104E200000D0012129542088401C208000207CBD16
:104E300010B504468088FFF7D7FE012816D02188D8
:104E40001B2901D1227A8AB1022801D01D291CD147
:104E50000E49204600F0B4F90C4920460C3100F010
:104E6000B5FA2046BDE8104004F086BE074920464A
:104E70006C3900F022FA054920461C3900F04AFB43
:104E80002046BDE8104004F0FDBF10BDC034002036
:104E900010B51A4C0188606810290ED011292BD149
:104EA000401E606028D1FFF75BF8002824D02168FD
:104EB000002921D0BDE810400847D0B900210122C7
:104EC000084600F0A5FC08B107280FD107220221EF
:104ED000012000F09DFC08B1072807D1042202211F
:104EE000002000F095FC20B1072802D0216801B114
:104EF00088476068401C606010BD00000C320020D4
:104F00002DE9F04701883B4E40F2F3194FF6FF754B
:104F100010291BD011293ED0122954D0502946D136
:104F2000C188F289841D914241D1618902293ED113
:104F30008688304602F0D4FA050038D004F10C001F
:104F400000F053FBA8B3294630464EE0C17B87886A
:104F5000044601292BD1A846284602F0C1FA0500D3
:104F600017D02F8000202872234843464A46016804
:104F7000C5F80A104068C5F80E0004F1100105F1EB
:104F80000A0002F04FFB6872F08900280FD1294611
:104F90002AE0042013E0808802F0A2FA040006D080
:104FA0006068FFF765F908B107F050F92580BDE8A2
:104FB000F087FFE76868FFF75BF90028F7D0BDE8E6
:104FC000F04707F043B987880646384602F088FA6A
:104FD0000400ECD02B464A4606F1080104F10A0011
:104FE00002F020FB607221463846BDE8F04700F031
:104FF000CFBE000074380020143200202DE9F047A5
:10500000044603883F480122A4B000F1480A102B4F
:1050100009D0112B54D01A2B70D1217AB2EB111F69
:1050200053D2012352E0D0E911218A430546011DE4
:1050300012A806F0ABFF442212A901A8FEF7CEFA8F
:10504000DFF8C0900026374609F144090DF1040845
:105050000AE000BF08EB46001D2283884946281D50
:10506000009706F045FF761C0198B042F2D8686CB4
:10507000A688C04306F05EFFA0F57F41FF3917D038
:1050800005EB40000123868032465146281D06F07C
:10509000B1FF012332464946281D06F0ABFFE07BF5
:1050A00002280BD000231749A2884C31281D20E08C
:1050B00024B00420BDE8F047FFF726B80123F2E74B
:1050C0000023A2885146001D13E000230D49054628
:1050D000A2885031001D06F08DFF207A0221B1EB2D
:1050E000101F01D2012300E000230649A288543199
:1050F000281D24B0BDE8F04706F07CBF24B0BDE811
:10510000F08700009038002010B50446074800786A
:1051100000280AD0204602F00FF8204607F000FAD7
:105120002046BDE8104001F061BC10BD583200209F
:1051300030B1018012B11168C0F802100020704730
:105140000E20704770B5E8B10F4C02884388206884
:105150000E4D00EB8001401C00F00700206005EBC5
:10516000810102204B81C881081D086100248C81C7
:105170000120087208714C710A80887007F086FD62
:10518000204670BD0E2070BD88320020BC3E00203D
:1051900008B598B191B101228DF8022041F60D02B7
:1051A000ADF80020096881604FF6FF710180002191
:1051B000418081806846FFF781FD08BD0E2008BD53
:1051C0000A46014610001AD0002918D00A88112A70
:1051D0000BD0382A03D0392A11D105F063B80088E2
:1051E000898888420BD107F051BD028889888A429C
:1051F00005D14FF6FF710180002141808180704709
:1052000030B50446008C8BB0A0F57F42FF3A23D026
:1052100005AA204601F08EFE0546ADF800000020EC
:1052200001900290039004902189ADF804100121AF
:10523000ADF808008DF8061005A8CDF80CD0049044
:10524000208C01A9A6DF002804D1BDF80010A942D6
:1052500000D00C200BB030BD0820FBE738B5044669
:1052600008682060087960714FF6FF702084002084
:1052700084F82200A4F84C00142084F84E00012089
:105280008DF8020041F60D000D46ADF80000A21D9C
:1052900069460120A0DF00280ED12946204601F0F2
:1052A000E7FD002808D1A86828B12946204600F06B
:1052B000A0F9002800D1002038BD38B50288102A96
:1052C00015D0112A15D0502A16D130F8062F8B8907
:1052D0009A4211D10C46418902290DD12168002939
:1052E0000AD00C3000F081F938B1002006E0808847
:1052F00001E04FF6FF70088438BD01208DF80000F2
:10530000226869462046904738BD000030B50A78CB
:105310008DB0002A36D18A88A2F5C0530D3B31D119
:105320008A79012A2ED18DF800204A88ADF8022012
:10533000002242F637240B7A13E000BF02EBC205CD
:1053400001EB4505ED89A5420AD102EBC20201EB52
:1053500042010A8BADF80420C98AADF8061002E0BC
:10536000521C9342EAD80188A1F57F42FF3A06D049
:10537000418821B9818811B90199C0F80210826869
:10538000694690470DB030BD30B1018012B111684F
:10539000C0F80210002070470E20704708B598B181
:1053A00091B101228DF8022041F61402ADF80020DF
:1053B000096881604FF6FF71018000214180818082
:1053C0006846FFF77BFC08BD0E2008BD0A000146B9
:1053D0001BD0002919D010460A88112A0BD0382A70
:1053E00003D0392A11D104F096BF008889888842F9
:1053F0000BD107F06FBC028889888A4205D14FF62D
:10540000FF710180002141808180704770B518B321
:105410000288A2F57F41FF391CD0104C4388104D03
:10542000206800EB8001401C00F00700206005EBC5
:10543000810102204B81C881081D086100248C81F4
:105440000120087208714C710A80887007F042FCD4
:10545000204670BD082070BD0E2070BD9032002027
:105460005C3F002038B50D4604001FD0F5B1286818
:1054700020604FF6FF70E0826889208301208DF85C
:10548000020041F61400ADF80000221D694601201B
:10549000A0DF002809D12946204606F053FB00284A
:1054A00003D12946204606F003FB38BD0E2038BD47
:1054B00030B58BB0040029D041B3E08AA0F57F421B
:1054C000FF3A25D005AA204606F09DFB0546ADF81B
:1054D000000000200190029003900490E188ADF854
:1054E00004100121ADF808008DF8061005A8CDF8CC
:1054F0000CD00490E08A01A9A6DF002804D1BDF8F1
:105500000010A94200D00C200BB030BD0E20FBE7EC
:105510000820F9E738B500291FD000281DD00288DF
:10552000102A15D0112A15D0502A16D130F8062F7E
:105530004B899A4211D10C46418902290DD121682B
:1055400000290AD00C3000F050F838B1002006E0F5
:10555000808801E04FF6FF70C88238BD01208DF8C9
:105560000000226869462046904738BD30B50A7869
:1055700085B0002A37D18A88A2F5C053143B32D1B6
:105580008A79012A2FD14A88ADF80220002242F6FA
:1055900053240B7A13E000BF02EBC20501EB450573
:1055A000ED89A5420AD102EBC20201EB42010A8B4E
:1055B000ADF80420C98AADF8061002E0521C9342EF
:1055C000EAD80188A1F57F42FF3A06D0418821B987
:1055D000818811B90199C0F8021001218DF80010DD
:1055E00082686946904705B030BD007800F0010040
:1055F0007047F0B58FB00D4606461C216846FEF791
:1056000014F800249DF80000039440F002008DF887
:105610000000012701948DF8367042F6382004947A
:1056200005940694ADF834000C94E87B8DF83000B6
:10563000287C8DF831009DF83200142120F00600FE
:10564000801C20F019008DF8320007A8FDF7EDFF4F
:105650000DA807900CA8ADF824700890ADF826406E
:10566000ADF82870A8680B90F08806F1100307AA1F
:105670006946A2DF0FB0F0BD0649095C4FF0A040BB
:10568000D0F81005C84010F0010000D0012080F0D3
:1056900001007047DCD7020007490B5C4FF0A041C6
:1056A000D1F804250120984020EA0203C1F808350A
:1056B0001040C1F80C057047D8D7020070477047FA
:1056C0000649095C4FF0A040D0F80405C84010F02E
:1056D000010000D0012080F001007047D8D70200FF
:1056E0007CB50024084E25460122305D009500233C
:1056F0001146019503F017FC641C042CF4D3BDE89B
:105700007C4000F003B80000D8D702000020401C05
:105710000428FCD370470020401C0428FCD37047A9
:1057200010B50246064B4FF0FF3000215C5C9442FE
:1057300001D1084610BD491C0429F7D310BD000053
:10574000DCD7020070B50C4E0C004FF00005306045
:105750000BD0012000F05AF808B1022004E000202C
:1057600000F054F800B10B202070706810B9FEF7FB
:10577000F7FB0546284670BD0C3200202DE9F047A6
:105780000D468146FFF7CCFF0446042836D2DFF8E9
:1057900074801B481C4EA8F10C0725B3012D0ED0B8
:1057A000022D2BD104EB440030444578002D25D048
:1057B000B968002922D02846BDE8F047084704EB25
:1057C0004401755C0E44717849B10E4A4FF40041B2
:1057D000093A8068FEF708FD08B987F80390B178A8
:1057E00008F80410E2E78068FEF742FD04EB44018C
:1057F000314418F804008D78A842D7D0BDE8F0876E
:10580000E0D702000832002014380020FFF734BF30
:1058100070B50023042810D20D4D00EB4004012A7E
:1058200002D101290CD00022094E00EB4000304487
:1058300061B1012906D0022906D00723184670BDA0
:105840000E30C2B22A55F9E74270F7E78270F5E7E9
:105850001438002070B506461E480024C0E90161D6
:10586000B00720D50025012211462846FFF7D0FFBA
:105870006D1C0446042D02D2002CF4D013E094B920
:1058800040F2666204211448FEF7CAFB04000AD104
:10589000FEF7B4FB040006D10F48104A0021001F98
:1058A000FEF766FC0446F00701D0FFF719FF74B954
:1058B00009480B4A00210C38FEF75AFC040006D1B7
:1058C0000548084A01210838FEF752FC04462046E4
:1058D00070BD0000FC310020ECD70200395B0200F3
:1058E00005770200E93F02002DE9F05F6A4C0546AA
:1058F00000266078B34618B184F801B001F0EAFEE2
:10590000664F4FF47A694FF4C87A4FF00108182DAA
:1059100062D2DFE805F0AC0C0C31404D62676B746D
:105920006B74BE7D7D7D7D7DACAFB2B5BEBE00200B
:10593000FFF7C6FE00284FF0000008D0FFF7BEFEBC
:10594000022D02D14FF4E16008E0484606E0FFF77F
:10595000B6FE022D01D1C82000E05046410CC00324
:105960004FF4FA72801841F10001257052000023B3
:10597000FDF7FEFD01462AE00020FFF7A1FE00280A
:105980004FF0000004D0FFF799FE4FF44870E5E7B0
:10599000FFF795FEDFE70020FFF792FE00284FF0AB
:1059A000000002D0FFF78AFECFE7FFF788FED4E7BA
:1059B0000020FFF785FE00284FF0000002D0FFF71F
:1059C0007DFE01E0FFF77BFE257041F69A11002273
:1059D0003868FEF709FC064646E00020FFF75CFE4B
:1059E000257008E0002051E025703DE084F801803A
:1059F0000120FFF751FE002240F6CD41E8E784F890
:105A000001800120FFF748FE00224FF48041DFE7CC
:105A10007868FEF72DFC0646D5F1110000D02EB1B6
:105A20000220FFF74BFE84F802B01DE0012816D9D2
:105A300080B2C8214843C117C90341EA5041C0039D
:105A40004FF4FA72801841F1000152000023FDF773
:105A50008FFD014600227868FEF7C6FB064602204D
:105A6000FFF72DFE84F802803046BDE8F09F01F07C
:105A700031FEB9E701F02EFEB4E701F02BFE04E0A1
:105A800001F028FE0020FFF71AFE0120FFF717FEA5
:105A9000AAE7FFF740FEA7E7FC310020E0D70200AD
:105AA000F8B5871C00208DF800000E4601256846D9
:105AB000FEF780FC124C20683060D4E90001401AE7
:105AC000A168091ABE1C06E002F076F8D4E90001CC
:105AD000401AA168091A491C8E42F5D8A1682068AD
:105AE000084004EB8000C16841F00301C1602068F8
:105AF000384420609DF80000FEF780FC2846F8BD81
:105B00008044002030B482680468531C8360A15430
:105B1000D0E901128A4202D330BC03F012B830BC83
:105B200070470000034803C8814201D1012070473B
:105B3000002070478044002000780221FFF71EBE3D
:105B400005494FF0FF32082841F8202002D30844CD
:105B500080F848207047000010400020F0B54FF05A
:105B6000FF3512B10023082601E008230C260C4C57
:105B700005E000BF54F823707F1C04D05B1CB342C7
:105B8000F8D32846F0BD26185DB286F8305044F8A8
:105B90002310002AF5D1E11881F84800F1E7000050
:105BA000104000200249084490F93000704700007E
:105BB0001040002008B5024690F8C6020B4600EBE4
:105BC0008001C1EB801002EB400092F8C52242B187
:105BD000521ED2B202EBC20100EB4102518A491CB3
:105BE00000E0C188ADF800100089ADF802006946F8
:105BF000184696DF08BD70B504464FF6FF750A4695
:105C00002846AC4208D14FF480742146104605F076
:105C100031FBA04209D070BDFF2CFCD821461046B4
:105C200005F01BFB08B1204670BD284670BD000082
:105C300070B5084C050009D010342168002907D040
:105C400008682060496828468847F6E70834F4E782
:105C500070BD0000FC3F00202DE9F05F2648416840
:105C6000F1B3DFF898B00E688146DBF80040876832
:105C70008078E11B21F07F45ED1CB0B9DFF8808012
:105C80004FF48030C8F84403C8F804031120FDF72E
:105C900019FE1120FDF721FE4FF0010AC8F800A0FF
:105CA0002F2002F0C7FB89F802A0B54200D235468A
:105CB000124BE8193C3320F07F401860DBF80010ED
:105CC0005A46091B21F07F41001B20F07F40C91C70
:105CD00081420FD9106818602F2002F0ABFB00E062
:105CE00004E0BDE8F05F1120FDF702BEBDE8F05F03
:105CF00006F024B8BDE8F09FAC3200200415014046
:105D0000001001402DE9F04117880646B81D1446E1
:105D10000D46984202D90C20BDE8F0813188072257
:105D200006290AD34FF4486C4FF6FF73614501D939
:105D3000994202D17088062801D21046ECE76045EE
:105D400001D99842F9D1994203D0984201D08142B9
:105D5000F3D80520E85520881221401C80B220800D
:105D600029542088401C80B220804119308807F0D7
:105D7000DCF92188084480B220804119708807F03E
:105D8000D4F92188084420800020C5E7FEF7BCB97B
:105D900038B54A7A0F4B62B100220A72596900295C
:105DA00006D001228DF80020ADF802006846884731
:105DB00038BD0A7A62B19B684C6802461946204693
:105DC000FEF712FA0028F3D0BDE8384006F03EBADC
:105DD0005B68F1E774380020F0B585B016460F46D1
:105DE00004461D4614220B496846FDF7F7FB0A4896
:105DF0008DF80870ADF80240ADF80A608DF80C50CF
:105E0000017800222046FEF741FF684600F07CFA48
:105E100005B0F0BD74D902006832002010B5044608
:105E200001460548FFF772FA21460348BDE81040D5
:105E30000C30FFF79BBB0000C03400207FB50C4640
:105E400010B1012004B070BD2079002638B141F6B0
:105E50001D5501281BD0022826D00F20F2E7022072
:105E6000207102960396E0680190694601A805F04A
:105E70005FFD50B102988188E18000882081BDF8E3
:105E80000010029805F0D2FDDCE70A20DAE70A4BA1
:105E90006A460021A01D05F007FD38B106491839F2
:105EA0008E61CE610A28CDD12846CBE70248818891
:105EB000019805F0BBFDF5E7D83200202DE9F84345
:105EC000054690F8C6020F4600EB8001C1EB80103A
:105ED00005EB400695F8C542914604EBC40006EB7D
:105EE00040013279601C0A31904226D16B46002273
:105EF000284601F0B9FB18B310E0401EA04201D1C2
:105F0000002004E004EBC40006EB40001C30804697
:105F100002466B46284601F0A7FB30B100203870DE
:105F20006946484697DFBDE8F88395F8C5024146C3
:105F3000401C641C85F8C502E4B23079A042DCD86C
:105F4000012038700020EEE72DE9F0410026012500
:105F5000144C22E06068226900EBC607387805FA25
:105F600000F1114217D08A43226102F0B1FB0246D0
:105F70003878E36805FA00F1194002FA00F3994213
:105F800009D17978012901D0012100E00021514097
:105F90007A6802B19047761CF6B220788642D9D34F
:105FA000BDE8F081983200202DE9F047894690F84D
:105FB000C612904601EB8102C2EB811100EB410752
:105FC000384605F04FFD06002FD0194CA068062872
:105FD0002BD2184D762205EBC0103946A0F802806E
:105FE000001DFDF7FBFA0027B9F1000F04D0A068EF
:105FF00005EBC010077004E0A168022005EBC11199
:106000000870A06805EBC011401CCE67A060E16875
:1060100088420AD1002604E005EBC610C16F88470C
:10602000761CE0688642F7D3A760BDE8F0870000E1
:106030001C3200206039002070B50E4690F8C61260
:10604000154601EB8102C2EB8111A0B000EB4100CB
:1060500005F008FD040009D07C2205496846FDF7DB
:10606000BDFAADF8025068460196A04720B070BD59
:106070000CD8020070B50E4604464FF43371FDF79C
:10608000D4FA11480025A4F8CA62856084F8C95280
:106090000E4884F8C65284F8C55200682060224633
:1060A0000121304694DF0121112806D0002809D1B2
:1060B00084F8C71284F8C85203E084F8C71284F841
:1060C000C812002070BD00001C320020483900209A
:1060D0000E4910B50A784C780023A24212D0521C07
:1060E000D2B20A70022A00D10B70084A0B780C3227
:1060F00052F8232002608868104420F07F408860B6
:10610000012010BD0360002010BD0000AC32002053
:1061100013460A460021FFF75FBE00002DE9F84351
:10612000104D0F4680461E4691466946286802F08B
:1061300018F8040014D01C21FDF777FA0120207113
:10614000C4F81490380BC4F80080C4E902606946B2
:10615000286802F027F805F043FB0020BDE8F8832B
:106160000420FBE7E8D9020010B503780022072BD2
:1061700006D2DFE803F005040610202930000A707B
:1061800010BD01230B7003898B818388CB81C0688C
:1061900088600A7410BD02220A7002898A8182888E
:1061A000CA81C2688A60807D062802D000200874F7
:1061B00010BD0120FBE703220A70C2888A81028990
:1061C000CA81C068886010BD04230B70C0888881B4
:1061D000CA818A6010BD0520087010BD70B5064DDB
:1061E0000646002455F8241009B130468847641C3F
:1061F000042CF7D370BD0000CC41002030B504461C
:10620000006885B00D46806800281CD014216846BF
:10621000FDF70BFA0195A0680490207910B10128D0
:106220000DD104E001208DF80000206904E0022077
:106230008DF80000E0680003029060690390206818
:1062400081686846884705B030BD70B586B0154690
:106250000C00064619D0112C17D0082C15D014218B
:106260006846FDF7E2F9ADF80260304601F08AF8C1
:10627000ADF804000D2C0AD0862C1CD007208DF818
:1062800000000294684600F04DF806B070BD03208F
:106290008DF8000025B12878C00701D0012000E06A
:1062A00002208DF8080000208DF80C0041F201104A
:1062B000ADF80A00E6E706208DF80000E2E70000EE
:1062C00010B50446408801F05DF8A08002480168DE
:1062D0002046BDE810400847343200202DE9F04147
:1062E00007460024064E074D05E000BF56F824106F
:1062F00038468847641CE8788442F7DBBDE8F081C3
:10630000703E00205832002010B50446408801F04D
:1063100039F8A080024801682046BDE810400847CF
:1063200048D902000149096808470000B0D90200B5
:1063300070B586B0044614216846FDF776F9A08949
:106340000026A0F54040ADF8040020782D4D062829
:1063500035D2DFE800F0340303032E4EA08900F0AD
:10636000DAF9012130B9E08943F6FE72A0F5404028
:10637000904224D8A07B8DF808002078032810D004
:106380005FF000008DF80900A0680390606850B1CC
:1063900009208DF8000060680490684604F02AFB2C
:1063A0000DE00120EEE708208DF800008DF81010B8
:1063B000F3E7A08900F0AFF908B1E08938B1687857
:1063C000002802D06E7004F045FC06B070BD606815
:1063D00038B10B208DF800006E70AE7004F03AFCFE
:1063E000DBE70A208DF80000BDF8040004F0C2FCD1
:1063F000F2E713208DF800004FF6FF70ADF80400AF
:10640000CBE700004432002038B504460E4800783F
:10641000A8B1A4F57F40FF380FD0684605F01AF9FF
:1064200078B10521017001210171C480684605F031
:106430001FF905F0C5F9002038BD042038BD022041
:1064400038BD082038BD0000E03200200C4808B5F7
:10645000007888B1684605F0FDF878B10621017032
:10646000684605F005F90748017809B10121017373
:1064700005F0A6F9002008BD022008BD082008BDCF
:10648000E032002090420020F0B589B01421684627
:10649000FDF7CBF82C4C207818B16846FFF79EFE2C
:1064A00050E0201D012105AAFCF7C0FEB8BB4FF04B
:1064B000102041690004026940694B1C01D100FBB6
:1064C00002F1224800220161A1F54051C16020493A
:1064D00002F057FC002820D11F481C238C221D49A4
:1064E000006801F02BFE04F039F8050014D0022DED
:1064F00012D000270126062D12D006A805F0AAF812
:1065000088B106700C2D18D2DFE805F0170F170FB1
:1065100017161716171113110B2009B0F0BD11E053
:1065200026706760B9E70820F7E7077105E00321E7
:1065300000E00221017100E0067106A805F098F85C
:1065400005F03EF90020E8E7E03200206433002047
:10655000F8D90200DC410020C0D9020038B504009F
:1065600014D0694605F0E4F9A0B1BDF8000000EBD5
:106570008001094800EB8100C16849B1A17A39B1B5
:10658000C168491EC1600020A07238BD052038BD19
:10659000062038BD0A2038BD684200201FB501A979
:1065A000684605F081F904B010BD07B513460A46E8
:1065B0006946002005F078F90EBD07B513460A4676
:1065C0000021684605F070F90EBD20B119B10068D0
:1065D0000860002070470520704700007CB50D461C
:1065E000040019D0C5B1694605F0A2F9B0B1BDF8F3
:1065F00000000B4900EB800001EB8000012101AAA3
:106600000C306668FCF739FE2E6060680C306860FC
:106610000120A07200207CBD05207CBD0A207CBD2D
:106620006842002018B10323002206F08BBF05202A
:1066300070470223002206F085BF12B1022306F044
:1066400081BF052070470000094908B50A69042A7E
:106650000BD0084A096942F8210005480121103091
:106660006A46FCF70AFE002008BD0C2008BD0000A9
:10667000C0320020CC41002038B5044609480D4600
:10668000007858B164B16946284607F055F80028EB
:1066900003D1BDF800102180658038BD022038BDCF
:1066A000052038BDE032002010B504460E480078C1
:1066B00098B1A4B12188022913D80C4A01EB8100BA
:1066C00002EB800260885289C31C934209D807F00C
:1066D00027F800202080608010BD022010BD05201A
:1066E00010BD042010BD0000E032002068420020F0
:1066F000826883881A4003689A5C0A708168491C22
:1067000081607047C26883881A4003689954C168E1
:10671000491CC160704743F6FE71A0F540408842B5
:1067200001D801207047002070477FB50C4600F16A
:1067300010010291C07B6A46C008ADF80C0002A9A6
:106740000220FDF7DDFB28B16A4602A90320FDF710
:10675000D7FBC8B9002001254FF6FF76BDF804101D
:106760000FE0009A05EB4003D25C06EA0223009A90
:1067700012F810201A43A24202D1012004B070BDC9
:10678000401CB0EB510FECD30020F7E710B50446E6
:106790000078182802D1FEF73FFA207010BD10B51E
:1067A00004460078182802D1FEF736FA207010BD92
:1067B00070B51346002206461546862902D01129D7
:1067C00002D002E0012200E001250D4C73B1A17955
:1067D000FEF75CFA2A4661793046FEF757FA002246
:1067E000A1783046FEF752FA002203E0A178FEF7C6
:1067F0004DFA2A4661783046BDE87040FEF746BA49
:1068000070320020406804F03BBF000070B508B152
:10681000012070BD194C0025207B08B1257301E0D3
:1068200000F0A0F82078082826D2DFE800F0250440
:10683000080C10251420BDE8704000F021B8BDE818
:10684000704000F07DB8BDE8704000F05FB8BDE872
:10685000704000F03BB86088084900EB80002839A0
:1068600001EB80004068BDE8704003F057BE6560F2
:10687000BDE8704003F060BE0F2070BD9042002064
:106880001149F0B48A1C00200346A1F128050C1818
:10689000A67A4EB1A37200EB800405EB8404E6688F
:1068A00016B9247C012C0AD0401C80B20228EED3F9
:1068B0000B704B804B60F0BC41F61D507047108050
:1068C000F0BC00F03DB80000904200200C48418828
:1068D00001EB8102A0F1280101EB8201CA6852B1EB
:1068E00005210170074802218180016800230122EF
:1068F000054802F01FBA042202704968F6E700005A
:1069000090420020E83200206433002038B50A4964
:10691000084803240B684268898803EB8101538887
:106920000470DB1C00201B0400909B0B034802F04A
:10693000C7FA38BD90420020E832002064330020BE
:10694000074910B54888091D05F042F818B1BDE89F
:106950001040FFF7DBBFBDE81040FFF7B7BF0000F6
:1069600090420020F0B51F481F49012506780224F7
:106970008B88A0F12802082E19D2DFE806F004184F
:10698000181B222F2F170189491C018100214180EA
:1069900080F80C1001EB810312F8233043B100237F
:1069A0004418491C89B2A3720229F3D30570F0BDC3
:1069B0000123F5E742685288D21C1A448A80047089
:1069C000F0BD46880D6806EB860602EB8602566827
:1069D0000E60556013818C80062100E00721017054
:1069E000F0BD000090420020E832002030B5018860
:1069F0008588224C85B0502924D0522902D05429B0
:106A000032D103E0284601F081F82DE014221C4920
:106A10006846FCF7E3FDADF80250284600F0B2FCF2
:106A2000ADF8040000F034F9002261792846FEF741
:106A30002DF9002221792846FEF728F96846FFF74C
:106A40003FFC11E0017B01290ED1817A01290BD194
:106A50000089A0F52451023906D10121284601F010
:106A600089F8A07804F01EFAE07804F01BFA207987
:106A700005B0BDE8304004F015BA00002C3200200B
:106A8000C4D8020010B50446007800280FD16088F1
:106A900001F03CF8608800F0A3F9002807D0044911
:106AA000608801220979BDE81040FEF7EFB810BDFB
:106AB0002C32002010B5124C00202070FEF7ACF8EC
:106AC000A070FEF7A9F8E070FEF7A6F82071FEF7B7
:106AD000A3F86071A17818290FD0E17818290CD09B
:106AE0002179182909D0182807D00121601C04F049
:106AF000ADFB01202070002010BD032010BD000060
:106B00002C3200202DE9F04192B000F0D9F868460F
:106B1000FEF752F800246E460D4D4FF6FF780DE05B
:106B200006EB4407B88800F02DFC404504D1B88836
:106B300001222979FEF7AAF8641CA4B20098A042A9
:106B4000EED8287904F0AEF912B0BDE8F08100006B
:106B50002C3200207CB5044600781C4D08282FD12B
:106B6000607A38BB207A4FF6FF7601280DD00728CF
:106B700002D0082824D11EE0A08800F041FBB042DA
:106B80001ED0012100F0F6FF1AE0A0886A4601211C
:106B900003F028FE70B90198007858B1A08800F081
:106BA0002FFBB0420CD001222979FEF76FF828792B
:106BB00004F078F904E005480021401C04F081FB52
:106BC000A878BDE87C4004F06DB900002C320020AC
:106BD00010B504460A4841782046FEF741F868B1EE
:106BE0000848002101EB410200EB82025288A242D8
:106BF00001D1C8B210BD491C1429F3D3FF2010BD28
:106C00003E320020603C002070B5094D094E002442
:106C100004EB440005EB800071784088FEF720F813
:106C200020B1641C142CF3D3FF2070BDE0B270BD02
:106C3000603C00203E3200202DE9F041124E074614
:106C40000125BD403068FDF713FB00280DD10F4C26
:106C50002069284207D1384601F03AFD0028E06853
:106C600005D0284304E0A8432061BDE8F081A84393
:106C7000E060206928432061A1683068BDE8F041E8
:106C80000022FDF7B1BA0000B8D902009832002006
:106C90001CB5054AD2E90212CDE90012002269466C
:106CA00003F0C5FD1CBD0000DCD8020003484FF610
:106CB000FF7181800121017000207047383200206F
:106CC00010B54FF6FF7003F045FD03498880BDE81D
:106CD000104005F001BB0000383200202DE9FC41D6
:106CE000804600F04FFB002403250127A0F57F41DB
:106CF0002646FF3908D06A46082103F073FD18B90B
:106D00000198841D8688056832462B4621464046F8
:106D1000A9DF042804D0082804D00B2808D002E0FA
:106D2000112000E00020002F00D10B20BDE8FC81E5
:106D30000027A80701D50125E6E73443F5D0002454
:106D400026460325E0E72DE9FC41804600F01AFBCA
:106D50000646A0F57F40FF380ED001252A466D1C5F
:106D60000027ADB26B460821304603F065FD0400F4
:106D700006D0072C25D025E043F20200BDE8FC81B7
:106D8000019903230A1D0B604046891DAADF0400F8
:106D900004D00C2C09D0052C09D009E0324608217A
:106DA000104603F0DFFD04460CE0012700E000245C
:106DB0000821304603F0C2FD00B10324002FCDD1DD
:106DC00000E00C242046D9E704488088A0F57F41E4
:106DD000FF3901D005F080BA70470000383200203A
:106DE0000EB502A9019100F0CDFA6A46012103F027
:106DF000F9FC08B100200EBD019800780EBD00001E
:106E00002DE9F04107464FF6FF760A48ABDF10B197
:106E10000320BDE8F081074C43F20305A41E32466F
:106E200061883846A7DFA842F3D16088401C6080A3
:106E3000F5E700003A320020428800EB82020C3273
:106E40008A4201D9022070478188A1F57F42FF3A2A
:106E500003D0008808B100207047012070478842A5
:106E600004D20068401C01D0012070470020704708
:106E700070B594B00024054607949DF81C000E469A
:106E800020F00F00401C20F0F00010308DF81C00A6
:106E9000087B8DF81D009DF81E001C2120F00600C7
:106EA000801C8DF81E006846FCF7BFFB9DF80000B3
:106EB000019440F010008DF8000007A8CDE90440CF
:106EC00001208DF84E00039442F637200694ADF869
:106ED0004C000D94707B8DF83400B07B8DF835003C
:106EE0009DF83600142120F00600801C20F01800C8
:106EF00040F001008DF8360008A8FCF796FB13A8B7
:106F000008900DA809900EAA0021284600F012F85A
:106F1000ADF828001420ADF82C000EA8ADF82A40DA
:106F20000C90E88805F1080308AA6946A2DF14B0AE
:106F300070BD00002DE9F0410446407990460025DF
:106F400000B1042594F8220008B145F00205CAB248
:106F5000FF2908D9090A88F8012045F0010588F8B9
:106F60000210032602E088F801200226B4F84C0043
:106F700008B145F0100500271BE000BF94F84E1043
:106F8000B21C91420BD2B4F84C0004EB4701C01B79
:106F9000420004F124002431FCF720FB0DE004EB57
:106FA000470008EB0601808C0870000A4870D6B2D2
:106FB0007F1CB4F84C00B842E0DC34F84C0FC01B26
:106FC000208088F800503046BDE8F08170B5064654
:106FD0002A480C460A7803210088012A01EB004068
:106FE00029D0022A48D1A28825A102F0E7F9284831
:106FF00002214170A18841804FF0A040D0F80415D3
:107000004FF400328A43C0F8082501F40031C0F87B
:107010000C15A1881F48FEF7F3F800282CD008288B
:107020002AD0132828D043F20141884224D0BDE859
:107030007040FDF769B8184D2988A1F57F42FF3AE5
:107040001AD162882A8015A102F0B8F9221D298878
:107050003046FEF76DF808B1FDF756F80021288894
:1070600004F022F8082802D008B1FDF74DF83046A8
:10707000FEF768F80028DAD170BD0000E433002084
:1070800048656172742052617465203D202564005A
:10709000F431002054340020502C0020485253205A
:1070A000646973636F7665726564206F6E20636FC9
:1070B0006E6E5F68616E646C6520307825780000C4
:1070C0003EB5027802230C46B3EB520F17D1B0F84D
:1070D0000110ADF80010C1788DF802108188ADF86C
:1070E000041080798DF8060002AA01A92046FCF759
:1070F00052FF032202A96846FCF7A9FA08B1002052
:107100003EBD01203EBD000010B50C46FFF760FDFE
:10711000FF280CD0074900EB400001EB80004168DC
:1071200021600189A180807AA071002010BD052016
:1071300010BD0000603C002070B5018892B010299D
:1071400059D1011D34226846FCF748FA9DF8040025
:107150004FF6FF76032134466D46B1EB500F2AD02F
:1071600003F0B6FC9DF8040040080ED001280CD0B6
:10717000022820D118E00F99281D1131FCF79BFE41
:1071800018B100BFBDF8344015E00EAA0DA90720C4
:1071900003F072FC0028EED10DE00F99281D491C68
:1071A000FFF78EFF0028EDD10EAA0DA9072003F0EE
:1071B00063FC0028F1D1BDF80000291D00F068FF34
:1071C000B44218D0BDF80000214600F0C5F8BDF863
:1071D0000000ADF836000020ADF83840074E8DF8BD
:1071E00034000DAD044600BF56F8241028468847E9
:1071F000641C022CF8D312B070BD0000F0D802005D
:10720000094A002101EB410332F82330834205D1C2
:1072100001EB410002EB800040887047491C1429B3
:10722000F0D34FF6FF707047603C00203EB50C462F
:10723000054603F04DFC0BE0BDF80000A04207D06E
:107240002846029900F02EF810B1BDF800003EBDAE
:1072500001AA6946072003F00FFC0028ECD14FF685
:10726000FF703EBD10B50D4C18200D4A6070002017
:107270004FF6FF7100EB400302EB8303401C598083
:107280001428F7D3FDF7C8FC6070182803D001203C
:107290002070002010BD032010BD00003E320020F1
:1072A000603C00202DE9F0410C46054600F1110735
:1072B00001F111061022491C401CFCF7C8F948B91D
:1072C000681C00F0F7F928B1601C00F0F3F908B170
:1072D000012400E0002431463846FCF7ECFD3B7801
:1072E0000222B2EB530F0CD00321B1EB530F08D0A5
:1072F0003378B2EB530F04D0B1EB530F01D001211F
:1073000000E00021084201D18C4302D00120BDE8F9
:10731000F0810020FBE7018811B9421892780AB188
:1073200001207047491C0829F7D30020704710B589
:107330000C460346FFF7EFFF00280AD01888218883
:10734000884205D10822A11C981CFCF780F908B1DD
:10735000002010BD012010BD03F060BD70B50446D3
:10736000FFF74EFF0546204603F03FFA4FF6FF7148
:1073700004468D4203D014B9284603F04FFD204641
:1073800070BD000010B5FFF723FCFF2805D00449AD
:1073900000EB400031F8200010BD4FF6FF7010BD2B
:1073A000603C00203EB5044603F092FB0EE00199DC
:1073B00020464631FFF7BBFF28B9019920462A3104
:1073C000FFF7B5FF10B1BDF808003EBD6A4602A93F
:1073D000072003F051FB0028E9D14FF6FF703EBDB6
:1073E00038B504460A4801216A46FBF7D1FF68B95F
:1073F0000848606002F0FAFA05491C238C220874E0
:1074000004488C39001F006800F098FE002038BD49
:107410003C430020ECD902002DE9F0412D4F00251E
:1074200018B17D600120BDE8F0810879012258B1D2
:10743000294E01280CD0274C4FF0020808340228AE
:1074400021D0032842D128E00A7103F075F83BE00F
:107450005FF0000000EB800116F82110022908D02F
:10746000401C80B20228F5D33A707D6041F61D5071
:10747000D9E700EB800006F8205006EB800040685A
:1074800003F04CF820E00D71A4F8048000230122E1
:107490001248216801F04EFC16E00D71206803F0DF
:1074A0003DF80D4923682831498801EB810206EB3C
:1074B0008201D1F804C0C4F800C04B60A3880B81DE
:1074C000A4F8048006F822500028ACD07D600E207D
:1074D000A9E70000E0320020684200206433002069
:1074E0000146034802888A4200D00020704700000D
:1074F000603800202DE9FC5F0E008346DDE90C4773
:10750000C6F1000098469246814600D408460125FF
:1075100003E000BF90FBFAF06D1C5045FADAA84575
:1075200000D9454624B1002E01DB780700D5641E42
:10753000B80702D5B8F1000F0AD0F80708D13CB15E
:10754000A54205D220215846641EFEF7DBFAF6E775
:10755000002E02DA4E462D2102E0780703D52B21BA
:107560005846FEF7CFFA07F0030002280BD1B8F116
:10757000000F08D13CB1A54205D230215846641E07
:10758000FEF7C0FAF6E7CDE90047434652463146DA
:10759000584605F0DFFDBDE8FC9F000070B50E46C3
:1075A0000446007918494FF4A27501EB4010017FA1
:1075B0002068A1B14FF4887102F0AEFA4FF49071D7
:1075C000206802F0A9FA4FF49271206802F0A4FA40
:1075D0002946206802F0A0FA0C49206809E04FF41F
:1075E0008E7102F088FA2946206802F084FA084970
:1075F0002068C0F80413206800F0B8FF3146BDE8E9
:10760000704000F097BF00006840002010030200A7
:10761000800002000248007A002800D00120704754
:107620003C430020F0B58488A518944200D8224637
:10763000A41AC288D6189A4200D81346D21A4B8888
:107640000788BB420CD34088834209D88888A0426F
:1076500006D3A84204D8C888904201D3B04201D9C9
:107660000020F0BD0120F0BD10B509892AB1D088F5
:10767000491C814218D1002010BD90F8C62202EBAF
:107680008204C4EB821200EB420212899142F2D0D2
:10769000491C198090F8C61201EB8102C2EB8111DE
:1076A00000EB4100008902E01980D088401E58801C
:1076B000012010BD0021425C0AB101207047491C25
:1076C0001029F8D300207047800701D000207047B0
:1076D000012070470A4810B5807860B1002401E0AD
:1076E000022C06D02046FDF7E9FF641C042CF7D3DA
:1076F00010BD0324F6E7BDE81040FEF707B8000010
:10770000FC31002003480179C90702D00078FEF758
:10771000EBB87047FC31002006490120086006489C
:107720000168C1F300410029FAD1044900208870A2
:10773000704700000C00004018040040FC3F00208F
:107740001721018041800021017141711B2181714C
:10775000C17170472DE9FE4F2A4D984691460F00A2
:10776000824601D000260DE0684600F0BDFC6A4666
:107770000021504602F0A5FF2878009E10B99DF820
:10778000090098B14A463146504605F02DF80446A6
:10779000014600225046FFF70BF8112C1AD008DCE6
:1077A00074B3082C2CD00D2C09D129E00520BDE89C
:1077B000FE8F862C1AD0A4F54050023820D0032525
:1077C000B8F1000F04D0324621465046FEF73DFD89
:1077D0002846ECE73A4629795046FDF757FA4A46DB
:1077E000E9785046FDF752FA0025E9E73A4629794B
:1077F0005046FDF74BFA4A46E9785046FDF746FAFF
:107800002546DDE7703200207CB50D4606466A4607
:107810000721284602F0E6FF040005D0052C0FD012
:10782000112C1DD003241BE0019C94F84400183453
:1078300010F0010001D0019C34340CB110B106E00D
:1078400011240DE004F11200FFF765FD38B1224666
:1078500004F11201304685DF04000FD000E00B2454
:1078600000210022304604F0ABFC4CB10022002382
:107870002946304604F088FC20467CBD0121F0E713
:107880000122F4E72DE9FC4716000D4681464FF032
:1078900002084FF0000710D03078C00720D04FF614
:1078A000FF744FF00108A54203D102F091FF054695
:1078B0000127A54206D1032417E0002148467EDFB8
:1078C00004461BE06B4601220721284602F0B4FF64
:1078D00004000AD10721284603F058F8040004D117
:1078E000314648467EDF04001CD00721284603F0BD
:1078F00025F818B1052801D0032404E0042C01D098
:1079000084B100E0112400214246484604F058FCAE
:1079100054B100223B462946484604F035FC204637
:10792000BDE8FC870121EFE70122F3E72DE9F041F3
:10793000204F0E46154604463978FDF791F9002888
:1079400035D0204602F098FE50B32046FFF71AFDCE
:1079500080462046B978FDF783F908B1012700E099
:107960000227204603F06CF90028404602D0FFF7BA
:10797000F5FC0DE0A8F57F41FF3909D0072102F0A1
:10798000DDFF010004D0052902D0204604F07AFC76
:107990002B46324639462046BDE8F041FEF71CBA78
:1079A0002A4631462046BDE8F041FEF7B1BBBDE8AE
:1079B000F0810000683200202DE9F04391B081464B
:1079C000FDF740F9002820D06846FDF7F5F80024BF
:1079D0006E4617E006EB44054946A888FDF740F9D6
:1079E00078B10B4FA888F978FDF73AF98046A88856
:1079F0003979FDF735F90146A88801234246FFF79A
:107A0000A9FE641C0098A042E4D811B0BDE8F08340
:107A1000703200202DE9F047394E002780463D4660
:107A2000DFF8E090D6F804A057E003D00446D0F881
:107A30001C8035E099F8002002EB4201521CD2B2C2
:107A400089F8002009EBC10199F80230091D9A421A
:107A500001D189F8005048680A780446012A12D0FA
:107A6000022A02D0032A3BD108E005F081F800B1D8
:107A70000127257434E00574C06900E070680028AF
:107A8000F9D170602CE0207C50BB88686060C868C9
:107A9000A0600869E0604869A061F07800B16560A5
:107AA0006268B168184B501A20F07F40984202D2A9
:107AB000A168084406E0881AA16820F07F4081424E
:107AC00002D9081A206000E0256065600120A560E9
:107AD00020742046E56105F02DF8B8F10000A4D12E
:107AE00099F8001099F801008142A3D117B9716883
:107AF000514502D00120BDE8F0870020FBE70000DF
:107B0000AC320020A8400020FFFF7F0030B585B0D8
:107B10000546002414216846FBF787FDA5F57F4044
:107B2000ADF80250FF3815D02846FFF7D7F898B1C6
:107B30000B2815D0112811D0A0F54051023903D0DF
:107B40000146284604F08AFB09482246C1782846A7
:107B5000FDF79CF805B030BD0E2002E00124F3E7EC
:107B60000F208DF800006846FEF7AAFBECE7000046
:107B70002C3200200A4602498978FDF787B80000B8
:107B80002C320020F8B5054600780C46002620422D
:107B90000FD100208DF800006846FCF70BFC287818
:107BA000204202D12043287001269DF80000FCF7F6
:107BB00025FC3046F8BD000070B588B0214800F0C3
:107BC000FCFA2048001F064600F0F7FA1E4DD5E9E2
:107BD000014105E0C0F3891202EB9050641C04449B
:107BE00004EA010005EB8000C0688207F2D00020A3
:107BF0000DF1080204EA010305EB8303641CDB6852
:107C000042F82030401C0228F4D3029800F0030010
:107C1000012808D002280AD10298032101EB9050D4
:107C200004EB900403E00298C0F383100444304650
:107C3000002101AAFBF755FC002800D06C6008B0B9
:107C400070BD00009848002080440020A8B005F0D6
:107C5000DDF8002001F020FC08B1FCF755FA01F036
:107C6000A3FAFCF797FA08B1FCF74EFA804A012113
:107C70008048FCF77DFA08B1FCF746FA7D487E4A59
:107C80000121001DFCF774FA08B1FCF73DFA002150
:107C90000320FDF7DFFD08B1FCF736FA6946002046
:107CA000FDF750FD08B1FCF72FFA9DF800000228FF
:107CB0007ED0002601F052FE08B1FCF725FA002420
:107CC00069460120009401F015FD08B1FCF71CFA8B
:107CD000684601F091FD08B1FCF716FA9DF808001E
:107CE00066A120F00F00401C20F0F00010308DF84D
:107CF0000800152202A87CDF08B1FCF705FA062768
:107D00000094ADF8007018200194ADF80200ADF8B1
:107D100004404FF4C870ADF8060068467ADF08B139
:107D2000FCF7F2F900215B4800F0AEFA08B1FCF76D
:107D3000EBF91C216846FBF778FC4FF42031CDE9C4
:107D4000004120464FF470210590032402915248CF
:107D50008DF80C404FF6FF7101250690ADF80E101E
:107D60008DF810506846FCF7F3FE08B1FCF7CCF92B
:107D70004A48FCF7C3FF08B1FCF7C6F903F05CF80A
:107D800047480090434869461838FDF701FA08B1A2
:107D9000FCF7BAF9434800903E4869460C38FDF7B5
:107DA000FDFA08B1FCF7B0F904F042FBA02100E0B5
:107DB00031E06846FBF739FC02208DF800008DF8B1
:107DC0000250ADF810008DF80370374805904FF45D
:107DD00096702290B4202390344826902D488DF838
:107DE0007C5069462430FCF7E5FC08B1FCF78CF9BF
:107DF000284801212430FCF7DAFC2D4D6EB128888B
:107E00002CA104EB004001F0D5FA03F069FB30B17E
:107E1000FCF77AF903E001264CE7FCF789F828889B
:107E200028A104EB004001F0C5FA124C00224FF4E7
:107E300000412068FCF7D8F908B1FCF765F9002289
:107E400040F6CD416068FCF7CFF908B1FCF75CF96A
:107E5000112001F0C2F8122001F0BFF801F0B2F9D0
:107E60000028FBD13EDF0028F8D0FCF74DF9F5E7FC
:107E7000FDCF020094D70200A9CF0200512D547209
:107E800061636B204469676974616C20426F617241
:107E900064000000D83400208D5D02001D5E0200E9
:107EA000CD6F020065BC0200542C0020259B02000F
:107EB000E4330020457261736520626F6E64732144
:107EC00000000000512D547261636B2052656C619B
:107ED00079206578616D706C65207374617274656A
:107EE000642E000070B5144682880E460546208830
:107EF000111D0144921C994201D8FE2A01D90C207F
:107F000070BD521C32542088FF21401C80B220805A
:107F100031542088401C80B220808119288805F0C7
:107F200004F92188084480B22080AA8842B1A96857
:107F300041B13044FBF752FB2088A98808442080D7
:107F4000002070BD072070BD2DE9F047C7880446AA
:107F5000181D16468946B0FBF7F1B0FBF7F207FB98
:107F600012009A193A44D21CB2FBF7F2DDF820A0B5
:107F700001E02468491E0029FBD13D1A8846B5421C
:107F800016D818E0BAF1000F05D0211809EB080047
:107F90002A46091D04E0204409EB08012A46001D79
:107FA000FBF71CFB00202468761BA844B74201D9CC
:107FB000354600E03D46002EE4D1BDE8F0870000E4
:107FC00030B5024669B101F095FA0021084C0BE08A
:107FD00001EB410304EB830315685B88AB4202D1DC
:107FE0001160002030BD491C8142F1D3052030BD15
:107FF00078330020F8B50E4601781446054601296D
:1080000001D1687830B12088821C9A422DD801298C
:1080100002D006E00720F8BD69780144891C994226
:1080200023D8181A801E87B2ADF800702188B01CC2
:10803000084469467DDF0028EDD12878022805D163
:10804000BDF80010B94201D809210AE00821012831
:1080500005D16878B84202D8ADF8000001E0ADF86B
:108060000070BDF80000FE2801D90C20F8BD228860
:10807000401CB0542088401C80B22080315420889D
:10808000401C2080BDF80010084420800020F8BD6E
:1080900070B505460C004FF0FF0020D04FF6FF767C
:1080A000B5421CD00E48012241782846FCF7EEFD6F
:1080B0002846FEF78DFDFF2803D1FEF7A5FDFF281A
:1080C0000DD0084B00EB400203EB82014D8023F8FA
:1080D000226022684A60A2880A81A2798A7270BDF1
:1080E0003E320020603C0020034A00219268C0E933
:1080F00000218160704700007032002070B54FF69B
:10810000FF750E46A84201D1002000E0401C84B259
:1081100008E02146304603F0C8F808B1204670BD9B
:10812000641CA4B2FF2CF4D9284670BD10B5FBF72F
:108130000AF908B1002010BD112010BD10B531B1F1
:10814000B2FBF3F403FB14241CB1092010BD0E2074
:1081500010BD01600021416081608281C3810846B9
:1081600010BD70B50C460546FBF7A2F8002802D0FA
:1081700021882868084470BD10B50A8849888A4259
:1081800003D1FBF7D7F8012010BD002010BD70B55A
:108190000C460546FBF7B1F8002802D06188286834
:1081A000084470BD10B50A8849888A4203D1FBF79C
:1081B0009BF8012010BD002010BD08B501216A46C2
:1081C000FBF782F9009808BD08B56A46FBF755F839
:1081D000009808BD38B5044600258DF80050684663
:1081E000FCF7E8F821686268086890420ED9401EE2
:1081F00008600178238AE26801FB0325227A21685E
:10820000101AC0B20A79824200D208719DF80000AB
:10821000FCF7F4F8284638BD38B5054600208DF83F
:1082200000000C466846FCF7C5F8E868298A201A61
:10823000B0FBF1F12A681068431C136001709DF8CF
:108240000000FCF7DBF838BD10B530B1017A4268A8
:108250000368891AC9B21A6006E00E2010BD0368CF
:108260001A68541C1C601170491EC9B2F7D200680C
:1082700000210171084610BDC20800F0070301206B
:10828000895C98400840704770B5040010D01720F2
:108290002162208060801B202071002504EBC50036
:1082A000801DFFF74DFA6D1C032DF7D3002070BD24
:1082B0000E2070BD2DE9F047858890B00C46032D47
:1082C0007ED20188DFF83C910026DFF83CA14FF018
:1082D000010824293ED006DC102909D011290CD030
:1082E000232972D152E03A290DD055296DD12CE0C5
:1082F0000146204601F0D6FE67E004EBC500801D74
:10830000FFF71EFA61E0294604EBC107408937F800
:10831000062F824200D810467880172800D21720F6
:108320007880206A70B1787960B1D9E90020CDE910
:108330000020ADF802107888ADF80400226A2046CB
:10834000694690477E713E713FE00146204601F04C
:108350006FFF3AE0011D34226846FBF73FF9BDF894
:108360000000BDF8042004EBC0014A73226A42B346
:10837000D9E90432CDE90D32ADF83600487B8DF8ED
:108380003800226A20460DA990471EE0009601960B
:1083900030F8041F04EBC1020179127B8A4200D23B
:1083A0001146ADF80010ADF80210008800226946B1
:1083B00090DF020009D0BAF8001008EB014001E09C
:1083C0001CE002E0114900F0F9FF04EBC504A07ABB
:1083D000002813D0E18828469EDF02000BD0112A26
:1083E0000CD0BAF8001010B008EB0140BDE8F0471F
:1083F000074900F0E3BFA67284F80B8010B0BDE817
:10840000F0870000F8D802008433002054DD020019
:10841000CCDC020000F180400068002800D0012080
:10842000704708B500F180400021016000680090AD
:1084300008BD000000283ED01F49204A096800BF3F
:1084400000BF00BF00BF00BF00BF00BF00BF914220
:108450002FD000BF00BF00BF00BF00BF00BF00BFE4
:1084600000BF00BF00BF00BF00BF00BF00BF00BF14
:1084700000BF00BF00BF00BF00BF00BF00BF00BF04
:1084800000BF00BF00BF00BF00BF00BF00BF00BFF4
:1084900000BF00BF00BF00BF00BF00BF00BF00BFE4
:1084A00000BF00BF00BF00BF00BF00BF00BF00BFD4
:1084B00000BF0138C3D17047603300200024F400AE
:1084C00070B50F4C0025207808B1852516E00021F5
:1084D000A16061602161E1604FF0E020D0F800010F
:1084E000012610F0010F03D10721002000F022F82F
:1084F00001F07CFA08B9034806602670284670BD72
:10850000FC3F00201805004008B500208DF8000051
:108510006846FBF74FFF0648C168491EC160C06846
:1085200008B9FFF7F9F89DF80000FBF767FF08BDF1
:10853000FC3F00204907090E002806DA00F00F0270
:1085400002F1E02282F8141D03E000F1E02282F83B
:10855000001400F01F02012191404009800000F149
:10856000E020C0F88012C0F800117047000B40B244
:10857000704700002DE9F0418846054602F0FEFCF8
:10858000234E002828461AD0FDF70CFB304490F803
:1085900048008009032802D001280ED007E04FF0E0
:1085A000A040D0F81005E84010F0010F05D00321DD
:1085B0002846BDE8F04100F0FFBC0221F8E702F0D8
:1085C000E9FC002822D02846FDF7ECFA04464FF4D7
:1085D000807000EB84000F4F81B207EB8400D0F86D
:1085E000102542F00102C0F81025084600F010FDE9
:1085F000B8F1000F0AD02846FDF7D4FA56F820004B
:10860000002803D00120A040C7F80403BDE8F08192
:1086100010400020006000402DE9FC41DFF8A480FC
:10862000044608EB0400002790F930001346C017F9
:108630000E46401C01D0082741E0F278194620463A
:10864000FDF78CFA0546401C38D0B07850B14FF099
:10865000A04000EB8400D0F8001721F00201C0F820
:10866000001707E000217378204600910A46019127
:1086700000F06BFCF078C0B11348317800EB850056
:10868000D0F81025114B1A40C0F810254FF4F852BD
:108690004FF4403302EA042203EA01410A43D0F8CE
:1086A00010150A43C0F8102509E008EB05003278E0
:1086B00010F8481F41EA8211017000E00427384693
:1086C000BDE8FC811040002000600040FFE0FCFF9E
:1086D0004FF0A041D1F81015C14011F0010000D0B9
:1086E0000120704770B5144D95F8540008B108206A
:1086F00070BD0020411E2A18401CC0B282F8301004
:108700002028F8D300242046FDF71AFA641CE4B2AE
:108710000C2CF8D307210620FFF70CFF4FF4BE7096
:1087200000F076FC05494FF00040C1F80403012039
:1087300085F85400002070BD10400020006000400B
:10874000034890F85400002800D001207047000032
:10875000104000200121B1EB507F01D10120704772
:10876000002070472DE9F04105460079164F9046EC
:1087700007EB40140E46E07E10B10820BDE8F08102
:10878000707F20772846FBF753FE5FEA08006060A1
:108790003169216003D0317F2846FEF7FFFE28793A
:1087A00007EB4010007F0028286801D0082100E076
:1087B0000421C0F800150020E0752076A075012185
:1087C000E176A076DAE70000684000202DE9F0416C
:1087D00005460079284E904606EB40140F46207F50
:1087E00018B10846FFF7B6FF80B1626800234FF466
:1087F00004704FF4017172B12A7906EB4212127FB4
:10880000002A2A6805D0C2F8080304E01020BDE859
:10881000F081C2F80813E27DB2B1227E7AB16268BB
:108820005AB12A7906EB4212127F1AB12968C1F8AF
:10883000040302E02868C0F804131120E7E7276169
:10884000012384F8188005E084F817800020E76091
:10885000607620762879424606EB40103946007F44
:108860000028284603D0BDE8F04100F073B8BDE809
:10887000F04100F01BB800006840002070B50446CD
:108880000079094D05EB4010017F00290AD1807E57
:10889000002807D1204603F094FA2179012005EB46
:1088A0004111887670BD0000684000202DE9F05F1E
:1088B00004460079264901EB4015A87E184302D1F1
:1088C000204603F07EFA68680028206806D04FF43E
:1088D0000171C0F804130020BDE8F09F4FF4A276A8
:1088E000314601F008F9B1464FF4927A4FF4847B97
:1088F0005146206801F0FAF806465946206801F012
:10890000F5F880464946206801F0F0F8074648EA45
:1089100007003043ECD056EA070007D1294620680B
:1089200003F02AFAE87D697E8842E1D80020E875E4
:108930000EB10320D0E70FB10F20CDE7A97E0120B3
:108940000029216801D00860C5E74860C3E700003E
:10895000684000202DE9F05F894604464FF4887591
:108960009A46904600260068294601F0D5F84FF453
:10897000A2773946206801F0CFF82068C0F8349516
:10898000C0F838852068BAF1000F14D0D0F8001272
:1089900041F02001C0F800122179DFF8648008EB73
:1089A0004110406850B120684FF40471C0F80413BE
:1089B0003046BDE8F09F01210160EDE7AA46B946C7
:1089C0004FF4927B5146206801F0A1F807464946D2
:1089D000206801F09CF805465946206801F097F898
:1089E000014647EA05000843ECD02379002208EB52
:1089F0004310C27501B10326002DD9D00F26D7E749
:108A0000684000202DE9F047054600793F4E90462A
:108A100006EB40140F46207F18B10846FFF79AFE78
:108A200030B1284600F074F820B11120BDE8F0877D
:108A30001020FBE784F81680A7600027A78228791A
:108A40004FF0010806EB40143E46207F00282868BE
:108A500025D04FF49079494601F05EF84FF4AC7A96
:108A60005146286801F058F82868A17DA268C0F82E
:108A70004425C0F848152868C0F808806068F0B937
:108A80004946286801F043F880465146286801F0BD
:108A90003EF858EA0001F3D058BBA7750FE04FF439
:108AA0008E7A514601F027F82868C0F808802146E0
:108AB000286804F033F961684FF4807089B130465A
:108AC000B4E75146286801F011F810B9A08A48456A
:108AD000F7D1A08A484505D02146286804F01EF940
