:020000040002F8
:10300000686C00204D35020055350200573502002E
:10301000593502005B3502005D35020000000000FA
:103020000000000000000000000000005F3502000A
:1030300061350200000000006335020065350200C2
:103040000D390200673502000D3D020067350200B0
:103050006735020067350200353702006735020028
:1030600067350200673502006735020067350200E8
:1030700067350200673502006735020067350200D8
:1030800067350200653902006735020067350200C6
:10309000E939020067350200ED39020067350200A8
:1030A00067350200673502006735020067350200A8
:1030B00067350200673502000000000000000000D4
:1030C0006735020067350200673502006735020088
:1030D0006735020067350200673502000000000016
:1030E00000000000000000000000000000000000E0
:1030F00000000000000000000000000000000000D0
:1031000000000000000000000000000000000000BF
:1031100000000000000000000000000000000000AF
:10312000000000000000000000000000000000009F
:10313000000000000000000000000000000000008F
:10314000000000000000000000000000000000007F
:10315000000000000000000000000000000000006F
:10316000000000000000000000000000000000005F
:10317000000000000000000000000000000000004F
:10318000000000000000000000000000000000003F
:10319000000000000000000000000000000000002F
:1031A000000000000000000000000000000000001F
:1031B000000000000000000000000000000000000F
:1031C00000000000000000000000000000000000FF
:1031D00000000000000000000000000000000000EF
:1031E00000000000000000000000000000000000DF
:1031F00000000000000000000000000000000000CF
:10320000DFF80CD000F058FA00480047797D020042
:10321000686C002030B4044654E8000F0D4644E8C2
:103220000053002BF8D1156030BC704730B4044611
:1032300054E8000F40EA010544E80053002BF7D1A1
:10324000156030BC704730B4044654E8000F00EA03
:10325000010544E80053002BF7D1156030BC7047DE
:1032600030B4044654E8000F80EA010544E80053F6
:10327000002BF7D1156030BC704730B4044654E8D9
:10328000000F00EB010544E80053002BF7D1156057
:1032900030BC704730B4044654E8000FA0EB010581
:1032A00044E80053002BF7D1156030BC7047000094
:1032B00030B450E8012F93B2C48923448489A342D7
:1032C00028BF1B1B0489A34202BFBFF32F8F00201E
:1032D00007E0C3EA020340E80134002CE9D14FF0D3
:1032E00001000A6030BC704750E8012FC2EA024278
:1032F00040E801210029F7D1704730B450E8022F8F
:103300001FFAA2F3C488A34202BFBFF32F8F00208D
:103310000DE0C48923448489A34228BF1B1BC2EA51
:10332000034340E80234002CE8D14FF001000A606A
:1033300030BC704750E8022FC2EA224240E8022126
:103340000029F7D17047034653E8022FD988B2EB22
:10335000324F4FF0000017BF92B241EA014142EAFA
:10336000014104E05A68B2EB324F08BF012043E844
:103370000212002AE8D1704730B4044654E8000F26
:103380000D4644E80053002BF8D1156030BC70475F
:1033900030B4044654E8000F40EA010544E8005305
:1033A000002BF7D1156030BC704730B4044654E8A8
:1033B000000F00EA010544E80053002BF7D1156027
:1033C00030BC704730B4044654E8000F80EA010571
:1033D00044E80053002BF7D1156030BC704730B47F
:1033E000044654E8000F00EB010544E80053002BAD
:1033F000F7D1156030BC704730B4044654E8000F74
:10340000A0EB010544E80053002BF7D1156030BC58
:103410007047000030B4044654E8000F0D4644E8FD
:103420000053002BF8D1156030BC704730B404460F
:1034300054E8000F40EA010544E80053002BF7D19F
:10344000156030BC704730B4044654E8000F00EA01
:10345000010544E80053002BF7D1156030BC7047DC
:1034600030B4044654E8000F80EA010544E80053F4
:10347000002BF7D1156030BC704730B4044654E8D7
:10348000000F00EB010544E80053002BF7D1156055
:1034900030BC704730B4044654E8000FA0EB01057F
:1034A00044E80053002BF7D1156030BC7047000092
:1034B00030B4044654E8000F0D4644E80053002B96
:1034C000F8D1156030BC704730B4044654E8000FA2
:1034D00040EA010544E80053002BF7D1156030BCE9
:1034E000704730B4044654E8000F00EA010544E890
:1034F0000053002BF7D1156030BC704730B4044640
:1035000054E8000F80EA010544E80053002BF7D18E
:10351000156030BC704730B4044654E8000F00EB2F
:10352000010544E80053002BF7D1156030BC70470B
:1035300030B4044654E8000FA0EB010544E8005302
:10354000002BF7D1156030BC70470000064880475B
:1035500006480047FEE7FEE7FEE7FEE7FEE7FEE778
:10356000FEE7FEE7FEE7FEE7F13902000132020066
:103570002DE9F05F0546002092469B4688460646A8
:10358000814640241BE0284641464746224600F03B
:1035900083F853465A46C01A914110D31146184633
:1035A000224600F06AF82D1A67EB01084F462246C2
:1035B0000120002100F061F817EB00094E41201EA8
:1035C000A4F10104DFDC484631462A464346BDE803
:1035D000F09F0000004870475CDE020010B5431AFF
:1035E000934209D28318881803E010F8011D03F8EC
:1035F000011D521EF9D210BD40EA01039B0703D002
:1036000009E008C9121F08C0042AFAD203E011F821
:10361000013B00F8013B521EF9D210BDD2B201E0CD
:1036200000F8012B491EFBD270470022F6E710B5C7
:1036300013460A4604461946FFF7F0FF204610BD20
:10364000421C10F8011B0029FBD1801A704730B5CD
:1036500004460020034600E05B1C934203D2E05C7A
:10366000CD5C401BF8D030BD034611F8012B00F8AB
:10367000012B002AF9D118467047202A04DB203A92
:1036800000FA02F1002070479140C2F1200320FAB5
:1036900003F3194390407047202A04DB203A21FAB3
:1036A00002F00021704721FA02F3D040C2F120025B
:1036B0009140084319467047064C074D06E0E06804
:1036C00040F0010394E8070098471034AC42F6D369
:1036D000FFF79AFD4CE502006CE5020070B58C180E
:1036E00010F8015B15F0070301D110F8013B2A1116
:1036F00006D110F8012B03E010F8016B01F8016B03
:103700005B1EF9D12B0705D40023521E0DD401F8FE
:10371000013BFAE710F8013BCB1A921C03E013F8C7
:10372000015B01F8015B521EF9D5A142D8D30020FC
:1037300070BD00002DE9F04700268CB0DFF86091E5
:10374000B0464FF48075012437460696284605F0AA
:1037500023FD38B1D9F80403204203D0284605F0F0
:1037600011FD26432D1D64007F1CADB2082FEDD343
:103770004FF4BE74204605F00FFD48B1204605F019
:1037800001FD46F0004606AA0121002005F0E6FCF6
:10379000444D16F0FF0F15D00127002437420DD0FD
:1037A00009EB8401D1F81005D1F81015C0F30420FD
:1037B00055F82420C1F3014102B190477F00641CF9
:1037C000082CEBD3002E67DA4FF0FF30CDE90880EC
:1037D00000263446281910F8507F90F9000027F091
:1037E000C008401C44D009A9404604F0FFFD58B36E
:1037F0004FEA9719404602F0ADF955F820701FB115
:10380000B9F1030F03D00FE0B9F1030F30D108A8CD
:103810004FEAD80208F00703815C4FF0010C0CFA64
:1038200003FC41EA0C0181544FF0A04101EB8800F8
:10383000D0F8000706A9C0F3014A404604F0D6FDBF
:1038400018B1BAF1020F03D012E0BAF1030F0FD191
:10385000B9F1030F08D1BAF1020F1BD00221404683
:1038600005F064FC761CF6B217B149464046B847ED
:10387000641C042CAED3002E0ED06A460121002019
:1038800005F06CFC06990098884205D006900898CF
:1038900009909DE70321E2E70CB0BDE8F087000046
:1038A000006000405041002000F01F0201219140C3
:1038B0004009800000F1E020C0F88012704700F05D
:1038C0001F02012191404009800000F1E020C0F872
:1038D0000011704700F01F02012191404009800053
:1038E00000F1E020C0F8001270474907090E0028D7
:1038F00006DA00F00F0000F1E02080F8141D704798
:1039000000F1E02080F80014704700002DE9F0413C
:103910004FF48077384604F037FE0124104EA50797
:1039200048B1384604F037FE0120C5F8080374702A
:10393000002002F055F94FF48277384604F024FE57
:1039400000280BD0384604F026FE0220C5F80803F4
:10395000B470BDE8F041012002F042B9BDE8F08149
:103960003C41002007480021C0F84011C0F8441134
:10397000C0F84811C0F84C11C0F80011C0F804118B
:1039800009F01CBA0010014000F0CEB970B50E4627
:10399000144900EB400001EBC0051446E86A1835F5
:1039A00020B101280FD0022805D113E0284600F0ED
:1039B000EFF9A04201D2002411E022463146284608
:1039C00000F01EFA0BE0284600F0E2F9A042F4D223
:1039D0000446F2E73146284600F0E5F90446204661
:1039E00070BD0000E049002009F036B906F0B4B817
:1039F000F0B5B5480023021D0178101D01254FF0D8
:103A0000805406290BD11678360708D10678C6F3FC
:103A10000316032E06D0042E04D0052E02D006294C
:103A200007D00EE0B4F82463A84FC6F304263E6026
:103A300002E01678360704D10678C6F30316032E83
:103A400002D0062904D00FE0A24FA14E7E670EE0FF
:103A50001678360708D10678C6F30316032E06D06B
:103A6000042E04D0052E02D0062907D00EE0D4F88B
:103A70004462994FC6F342363E6002E0167836073C
:103A800004D10678C6F30316032E02D0062906D009
:103A900011E0924E376827F0807737600EE0167895
:103AA000360708D10678C6F30316032E06D0042E77
:103AB00004D0052E02D006290AD011E04FF080462E
:103AC000C6F80C31C6F81031834E361F336002E061
:103AD0001678360704D10678C6F30316032E02D0F3
:103AE000062905D00CE07C4F032664373E600AE0CF
:103AF0001678360704D10678C6F30316032E02D0D3
:103B000006290DD014E0764F05263E60744E7836B7
:103B10003560734E083633603F263F1D3E6002E03D
:103B20001678360704D10678C6F30316052E02D0A0
:103B3000062957D062E06B4E36686B4F3E60694E87
:103B4000361D36683F1D3E60664E083636683F1D9E
:103B50003E60644E0C3636683F1D3E60614E103646
:103B600036683F1D3E605F4E143636683F1D3E602E
:103B70005C4E183636685C4F20373E60594E1C3616
:103B800036683F1D3E60574E203636683F1D3E600A
:103B9000544E243636683F1D3E60524E28363668F5
:103BA0003F1D3E604F4E2C3636683F1D3E604D4EE9
:103BB000303636684C4F40373E604A4E34363668B1
:103BC0003F1D3E60474E383636683F1D3E60454ECD
:103BD0003C3636683F1D3E60424E403636683F1DDB
:103BE0003E6002E01678360708D10678C6F3031661
:103BF000032E06D0042E04D0052E02D0062907D0AD
:103C000019E0D4F85812394A01F04F01116002E06E
:103C1000117809070FD10078C0F30310032803D0EF
:103C2000042801D0052806D131480168C90702D00F
:103C30006FF001010160D4F83001062808D1D4F8F2
:103C40003401062804D12B48016841F480610160E9
:103C500022487438016841F470010160BFF34F8F4E
:103C6000BFF36F8F4FF01021D1F80002002803DB63
:103C7000D1F80402002822DA1F4A15601F480468A0
:103C8000002CFCD01524C1F800420568002DFCD0A2
:103C9000C1F8044201680029FCD0136001680029C2
:103CA000FCD0BFF34F8F0D48F0380168144A01F47F
:103CB000E06111430160BFF34F8F00BFFDE7124980
:103CC00010480860F0BD0000E00F00F040350140F2
:103CD0000DF0ADBA00C007403C050040FCED00E02F
:103CE000105600400404001020C50040E40E0040BF
:103CF000000400403C17004004E5014000E401409E
:103D00000400FA050090D0036C3300200448017FC2
:103D100004480029024901D009F082BA09F078B9B3
:103D2000A84100200020004010B5124C0220206164
:103D3000606111A0A06104F17800E0614FF40070AF
:103D400020620020A06260620BA1A164E06204F521
:103D50001E71E1641021A065C4E91410E06509A199
:103D6000E01DFFF781FC08A12046FFF77DFC202025
:103D7000A07110BDE04900205465726D696E616CE0
:103D8000000000005254540053454747455200007C
:103D90000269C1688A4203D88068401A104400E072
:103DA000501A401E70472DE9F047C46817468946EF
:103DB00006464FF000083069A04201D9051B02E019
:103DC000B168201A0D1AB0686D1E001BA84200D8F9
:103DD0000546BD4200D33D4670682A462044494608
:103DE000FFF7FCFBB0687F1B2C44A844A944A04209
:103DF00000D10024F460002FDDD14046BDE8F087FB
:103E00002DE9F04104468846D4E90207C51BE16864
:103E1000606816460844B54206D94146FFF7DEFB06
:103E2000B819E060BDE8F0812A464146FFF7D6FBAD
:103E3000761B08EB050132466068FFF7CFFBE660B2
:103E4000F0E702E008C8121F08C1002AFAD1704743
:103E50007047002001E001C1121F002AFBD170470A
:103E60000121202803DA81400548014003E0402871
:103E700002DA2038814009B10120704700207047E4
:103E8000FC06FFBD082806D228B1012803D004286B
:103E900001D0012070470020704710B560B159B1C2
:103EA00002780B785208B2EB530F05D10622401C62
:103EB000491CFFF7CCFB08B1002010BD012010BD4C
:103EC000800701D00020704701207047C3688B42F3
:103ED00006D811440069491E814201D8012070476B
:103EE0000020704710B5002005F00EF800280BD117
:103EF00001F0BDFB0321054800F01CFD002803D0A4
:103F0000BDE8104000F0D8B810BD000028350020F2
:103F100010B501220221002001F052FC08B107284F
:103F200010D107220221012001F04AFC08B1072824
:103F300008D100210A22084601F042FC08B10728F6
:103F400000D1002010BD70B58CB015460E46002380
:103F50006C46C3F10F01415CE1545B1C102BF8D39C
:103F60000D2104F11000FFF760FB0020C0F10F02EB
:103F7000315C2244401C11740328F7D3684643DFA8
:103F80000020C0F10F01214491F820102954401C59
:103F90000328F6D30CB070BD022001F055BB000021
:103FA0000149097900F034BE7432002070B5002454
:103FB000064D06E06868012110F8340004F094FB17
:103FC000641C28788442F5D3002070BDA432002000
:103FD000F8B515460C460646052A01D20720F8BD5D
:103FE00004F068FC18B904F037FC0028F7D1104938
:103FF00000204E600C70C1E902500E4D08610DE0CA
:1040000006EBC4006968009181788DF80110007892
:10401000094A694604F0BAFB0028E0D1641EE4B204
:10402000EED2BDE8F840054A0021024800F078B819
:10403000A432002090DB0200656D0200696002007E
:1040400005F038FB05F078F90028FBD1104C012170
:10405000208801EB00400FA105F066FA10480068C7
:10406000C00700D000BE2088022101EB00400DA156
:1040700005F05AFABFF34F8F0948E43801680D4A3A
:1040800001F4E06111430160BFF34F8F00BFFDE712
:10409000F0330020466174616C206572726F7200AB
:1040A000F0ED00E053797374656D2072657365748B
:1040B000000000000400FA050EB500210091CDE9D2
:1040C00001106A4644F20100FFF7BAFF0EBD10B5B9
:1040D0008268C368934203D002F09AFB002010BDAF
:1040E000052010BD29B112B1531E134203D009207F
:1040F00070470E2070470160838000218160C1609D
:104100000846704710B58268C3689A1A83889A4235
:1041100003D802F087FB002010BD042010BD000072
:10412000074B9B7823B12AB120B10068037C1BB1F7
:104130000820704707207047417442610020704793
:10414000E841002070B507F0CBFE104800240B2199
:10415000047044700E4D817014206C602C706C7073
:10416000FFF7A2FB07211420FFF7BFFB1420FFF786
:10417000A6FB0848046007211120FFF7B6FB05489D
:10418000001F0068A860002070BD0000E84100200A
:10419000B8320020081501402DE9FC47DFF878907F
:1041A00099F8023073B368B3052902D20720BDE83D
:1041B000FC87436933B3437C012B25D00027044699
:1041C0000025884616468DF80050684600F0CAF86B
:1041D00001A809F04DF9C8B1012101700F494460EF
:1041E0000968C0E90218C0E904769DF8040089F85E
:1041F00001009DF8000000F0D9F81420FFF76AFBD9
:104200002846D4E70820D2E70F46D8E704259DF8D2
:10421000000000F0CBF8F3E7E8410020041501406E
:104220000649897839B130B1416921B10021017461
:10423000022108F09FBD082070470000E8410020DF
:1042400070B50A4E01460A48B578FFF740FF0446AC
:104250004DB10020B070711C0122C81D04F070FB2C
:1042600008B1FFF729FF204670BD0000043300208D
:10427000A0440020F0B5284E89B01F460D0004462A
:1042800072603BD0A888296882B22448FFF72AFFD1
:10429000002834D1A889A96882B220481030FFF7DD
:1042A00021FF00282BD120221D496846FFF796F9EF
:1042B00060690690207C00B101208DF814008DF813
:1042C0001C70607C00B10E208DF81500E068029033
:1042D000A068039020680190606800900E48114A21
:1042E0006946083004F0F8FA002808D1B070206858
:1042F000401C04D09DF81D0018B106E0072009B04D
:10430000F0BD0548083004F073FB03490122491C45
:10431000C81D04F015FBF2E704330020A044002080
:10432000F4DC020011CF020010B501460B48FFF784
:10433000E9FE040010D10A4804F0A4FC60B9084961
:1043400006480839FFF7C3FE30B90549012208398C
:10435000034804F011FC0446204610BDB044002080
:104360000C33002030B5EFF3108172B60D4A94681B
:10437000012324B10370002900D162B630BD9360DF
:104380004FF0E023D3F88051074C25401560C3F867
:104390008041D3F8844154605A17C3F88421002225
:1043A0000270E8E7F4420020FC06FFBD0B498A6872
:1043B000002A11D000280FD1EFF3108072B60B68DD
:1043C0004FF0E022C2F800314B68C2F804310022FD
:1043D0008A60002800D162B670470000F4420020D5
:1043E0002DE9F041064608680C46411C4FF0A047F5
:1043F0004FF0010506D005FA00F1C7F8081520684E
:1044000004F08AFE6068411C02D0002104F07BFEAB
:104410003079204901EB4010A169007F0028306805
:10442000C0F8241525D0607D227D31681043C1F885
:104430006C05D4E900123068C0F80C15C0F81425DA
:1044400024E0A068411C02D0002104F05CFEE0687A
:10445000411C05D08540C7F80855E06804F05CFEB3
:10446000D4E902123068C0F80825C0F81015BDE87C
:10447000F081607D217D32680843C2F86C05D4E983
:1044800000123068C0F81425C0F80C15207D0128F2
:10449000D7D0ECE7A84100202DE9F0470746008877
:1044A0008EB0804600F078FB0646404603F000F8E8
:1044B000824604462E4800252A460178404600F0F0
:1044C000BDFB002E50D07879400734D501254FF63A
:1044D000FF7603AB2A460721504606F07FFA01001B
:1044E00004D0404607F0A0FF00252BE0B14631463E
:1044F000049802F031FF064648450FD004460146B5
:10450000404602F0BFFF4046FFF74AFD30B9404643
:1045100007F05CFF4046FFF743FD48B12246072104
:10452000504606F0F1FA010003D0404607F07CFF48
:1045300000254E4506D0404606F054FC10B15046CA
:1045400002F0A2FF02208DF81800ADF81A807879E9
:10455000400701D5012000E002208DF820008DF8F1
:10456000215006A801F060FF0EB0BDE8F087000002
:10457000743200202DE9FC47002517880646158077
:1045800090F82D001446894630B13A4621464846F7
:1045900000F0F6FB050009D1B0784FF00C0A18B313
:1045A0002088C846001DB84202D95046BDE8FC87A5
:1045B000684679DF0028F9D12088032108F8001027
:1045C00020881921401C80B2208008F80010208823
:1045D000401C80B2208000EB0801BDF8000008F00C
:1045E00097FE218808442080F0780222C8B12188F3
:1045F00096F9033001F1030C4846BC45D5D8425426
:1046000021884FF0010C491C89B2218000F801C0BB
:104610002188491C89B2218009F801302088401C7A
:1046200020807068B8B1218890F9003001F1030C46
:104630004846BC45B9D8425421880A22491C89B24F
:10464000218042542188491C89B2218009F8013017
:104650002088401C2080308950B1CDE900474B466E
:104660000622022106F1080008F01AFF05009DD17C
:10467000308A50B1CDE900474B460722032106F1AD
:10468000100008F00DFF050090D1308B50B1CDE93E
:1046900000474B461522142106F1180008F000FFD0
:1046A000050083D1306A30B13B462246494601F0CD
:1046B00001FB0500DBD1706A30B13B46224649461A
:1046C00003F0CAFC0500D2D196F82C0038B13B4665
:1046D00022464946304607F039FF0500C7D13078F9
:1046E00038B13B4622464946304603F03DFD0500C1
:1046F000BDD128465AE7F0B50C4693B01F210726D6
:10470000ADF80010ADF80410002750B1C17849078A
:104710000DD56A4602A9FFF72DFF002808D102AD8A
:1047200002E00025ADF800706CB1E07810B13046C1
:1047300013B0F0BD01AA0AA92046FFF71BFF00280D
:10474000F6D10AAA02E00022ADF80470BDF8040018
:10475000C3B2BDF80000C1B2284672DFE8E780F8B6
:104760002410704770B50D00044653D0F4B30120F7
:1047700020700026E670202205F17801201DFEF74A
:104780002DFF84F82460D5F89800C4F8CC00D5F843
:104790009C00C4F8D0004FF6FF70A4F8C800C4F81D
:1047A0002560A4F8296084F82B6004F130003C21D6
:1047B0000646FEF73AFF287884F83000A87884F897
:1047C0003200E87884F83300687884F83100D5E95D
:1047D0000401C4E91001D5E90201C4E90E01D5E9DB
:1047E0000601C4E9120195F82D0000E012E084F8FA
:1047F0005D00686AD8B104F1780104F16C0061676A
:104800006065696A09880180686A616D808888804E
:10481000002008E00E2070BD696A22188968095CD2
:1048200082F87810401C616D89888142F4D8A86AAA
:10483000E8B104F1A400C4F8A0000C38A065A96A8E
:1048400089888180A86AA16D00880880002006E020
:10485000A96A22188968095C82F8A410401CA16D1D
:1048600089888142F4D895F82C0084F85C00286A85
:1048700048B104F1C4002065296A49884180286A4A
:10488000216D00880880686800B1606305F13C0113
:104890003046BDE87040FFF72EBF10B50288102AE1
:1048A0001AD0112A1FD01B2A1CD1007A0C460028CE
:1048B00018D1E0780521401CB0FBF1F201FB120198
:1048C000204600F037F800280CD0D4F8D01000298A
:1048D00008D0BDE810400847C27B012A02D1808879
:1048E000A1F8C80010BD0C46002184F8D4108088BF
:1048F000B4F8C8108842F5D120790028F2D10121FE
:10490000DEE710B50C46022801D0032811D16078EB
:1049100000280ED000206070E178204600F00AF8F0
:10492000002806D0D4F8D010002902D0BDE81040ED
:10493000084710BD2DE9FF47044600780F4638B1FF
:10494000E770002004F0E0FA012628B16670D2E09A
:10495000082004B0BDE8F0870025C4F82550A4F86D
:10496000295084F82B50A07910B1E078012806D0A6
:10497000E07970B1E078012801D0022809D1D4F89B
:10498000CC1021B184F82C600820884701E084F81D
:104990002C5004F1260100200A5C0AB1304603E0E5
:1049A000401C0628F8D300204FF002084FF0030AFD
:1049B0004FF00409012F06D0022F09D0032F0CD08D
:1049C000042F12D10DE0A17911B108B130460DE0EC
:1049D000E17911B108B1404608E0207A08B15046AB
:1049E00004E0607A08B1484600E02846E070D4F858
:1049F000CC1041B1032801D0042804D1607910B152
:104A000094F8D400A8B184F8D5500095029501958A
:104A100003958DF800508DF80850E17804F12500D9
:104A200004F13002052958D2DFE801F0670A131FAC
:104A30003B0084F8D65084F8D56007208847E4E727
:104A4000A67001908DF80060ADF80C50ADF80A50DA
:104A500043E084F8028001908DF80060208AADF870
:104A60000C00A089ADF80A0037E0A08AADF80A0072
:104A7000208BADF80C00607980B194F8D40068B94F
:104A800094F8D60050B18DF8088084F83390002156
:104A90001046FFF730FE00BB05211AE084F802A0A3
:104AA0001BE0A08BADF80A00208CADF80C006079FB
:104AB00088B194F8D40070B994F8D60058B18DF844
:104AC000088084F8339000211046FFF714FE20B9C7
:104AD0000621A17001E084F80290E07830B194F8EA
:104AE0002410684673DF00287FF433AFD4F8CC106D
:104AF00009B1A078884700202BE7A570F6E70000F1
:104B000070B5040012D001461C221448FEF766FD61
:104B10001248134D0560206850B17ADF002806D195
:104B20002068016829604068686005E00E2070BD5B
:104B30000B487BDF0028FAD108484FF6FF71143884
:104B4000084A20F8041B0549343901600021FFF7A9
:104B5000E7FA0028EBD0032070BD0000B439002034
:104B600020320020F1D3020002494A6C091D07F0EF
:104B7000DFBA0000D039002002460248016D001D56
:104B800007F0C3BAD03900200249C86C896C0840CC
:104B900007F0F3BAD039002070B50A4E054600245C
:104BA0002A46301D716C07F0B0FA40B12A46301D1C
:104BB000F16C07F0AAFA08B1022400E001242046B3
:104BC00070BD0000D039002010B50024204608F048
:104BD00043FC28B1641CE4B2182CF7D3182010BD94
:104BE00003480122A240016811430160204610BD24
:104BF000D039002010B5044608F02EFC002803D060
:104C0000024800EB8400806D10BD0000D039002008
:104C100070B505460C46084608F01EFC002809D071
:104C200005482A4600EB8401001D896DBDE87040EF
:104C300007F06BBA70BD0000D039002070B5064691
:104C400015460C46084608F007FC00280AD006481E
:104C50002B4600EB84013246BDE87040001D583100
:104C600007F09ABA70BD0000D039002070B540B18D
:104C70000C4D297839B1044606F0C6FF28B1002052
:104C800070BD0E2070BD082070BDE868062807D2F0
:104C90000549226801EB8001401C0A60E860EEE7EC
:104CA000042070BD28320020883A002040B1054918
:104CB00000220123CA600B70C1E90102104670474F
:104CC0000E2070472832002070B504002DD0002936
:104CD0002BD020480078002827D020880D461128A6
:104CE00015D0302804D0322807D033281ED109E04F
:104CF000211D284605F01EFC18E0211D284605F060
:104D000019FA13E0211D284605F0ECFA0EE0A08800
:104D1000B5F8CA12884209D1002085F8C70285F883
:104D2000C8024FF6FF70A5F8CA0270BD95F8C80218
:104D30000028FAD020883028F7D34F28F5D8A0884B
:104D4000B5F8CA128842F0D12846BDE8704001F09B
:104D500021BA00002832002048B1084A137843B134
:104D6000D26832B190F8C7222AB1112070470E20C4
:104D700070470820704701F00DBA0000283200206B
:104D80007CB5054608880C460930904201D90C20B4
:104D90007CBD68466DDF0028FAD121880820685460
:104DA00020881B21401C80B2208029542088401C70
:104DB00080B220802844DDF801100160BDF80510A4
:104DC00081802088801D80B220809DF800104908D5
:104DD00000D0012129542088401C208000207CBD67
:104DE00010B504468088FFF7D7FE012816D0218829
:104DF0001B2901D1227A8AB1022801D01D291CD198
:104E00000E49204600F0B4F90C4920460C3100F060
:104E1000B5FA2046BDE8104004F076BF07492046A9
:104E20006C3900F022FA054920461C3900F04AFB93
:104E30002046BDE8104005F0F7B810BDEC34002066
:104E400010B51A4C0188606810290ED011292BD199
:104E5000401E606028D1FFF75BF8002824D021684D
:104E6000002921D0BDE810400847D0B90021012217
:104E7000084600F0A5FC08B107280FD1072202213F
:104E8000012000F09DFC08B1072807D1042202216F
:104E9000002000F095FC20B1072802D0216801B164
:104EA00088476068401C606010BD00001832002018
:104EB0002DE9F04701883B4E40F2F3194FF6FF759C
:104EC00010291BD011293ED0122954D0502946D187
:104ED000C188F289841D914241D1618902293ED164
:104EE0008688304602F092FB050038D004F10C00B1
:104EF00000F053FBA8B3294630464EE0C17B8788BB
:104F0000044601292BD1A846284602F07FFB050064
:104F100017D02F8000202872234843464A46016854
:104F2000C5F80A104068C5F80E0004F1100105F13B
:104F30000A0002F00DFC6872F08900280FD12946A2
:104F40002AE0042013E0808802F060FB040006D011
:104F50006068FFF765F908B107F04AFA2580BDE8F7
:104F6000F087FFE76868FFF75BF90028F7D0BDE836
:104F7000F04707F03DBA87880646384602F046FB00
:104F80000400ECD02B464A4606F1080104F10A0061
:104F900002F0DEFB607221463846BDE8F04700F0C3
:104FA000CFBE0000B4390020203200202DE9F047A8
:104FB000044603883F480122A4B000F1480A102BA0
:104FC00009D0112B54D01A2B70D1217AB2EB111FBA
:104FD00053D2012352E0D0E911218A430546011D35
:104FE00012A807F0A5F8442212A901A8FEF7F6FAC4
:104FF000DFF8C0900026374609F144090DF1040896
:105000000AE000BF08EB46001D2283884946281DA0
:10501000009707F03FF8761C0198B042F2D8686C10
:10502000A688C04307F058F8A0F57F41FF3917D094
:1050300005EB40000123868032465146281D07F0CB
:10504000ABF8012332464946281D07F0A5F8E07B5E
:1050500002280BD000231749A2884C31281D20E0DC
:1050600024B00420BDE8F047FFF726B80123F2E79B
:105070000023A2885146001D13E000230D49054678
:10508000A2885031001D07F087F8207A0221B1EB89
:10509000101F01D2012300E000230649A2885431E9
:1050A000281D24B0BDE8F04707F076B824B0BDE86D
:1050B000F0870000D039002010B50446074800787A
:1050C00000280AD0204602F0CDF8204607F0FAFA70
:1050D0002046BDE8104001F01FBD10BD6432002025
:1050E00030B1018012B11168C0F802100020704781
:1050F0000E20704770B5E8B10F4C028843882068D5
:105100000E4D00EB8001401C00F00700206005EB15
:10511000810102204B81C881081D086100248C8117
:105120000120087208714C710A80887007F080FEB7
:10513000204670BD0E2070BD94320020FC3F002040
:1051400008B598B191B101228DF8022041F60D0207
:10515000ADF80020096881604FF6FF7101800021E1
:10516000418081806846FFF781FD08BD0E2008BDA3
:105170000A46014610001AD0002918D00A88112AC0
:105180000BD0382A03D0392A11D105F05DB9008837
:10519000898888420BD107F04BBE028889888A42F1
:1051A00005D14FF6FF710180002141808180704759
:1051B00030B50446008C8BB0A0F57F42FF3A23D077
:1051C00005AA204601F04CFF0546ADF8000000207E
:1051D00001900290039004902189ADF80410012100
:1051E000ADF808008DF8061005A8CDF80CD0049095
:1051F000208C01A9A6DF002804D1BDF80010A94227
:1052000000D00C200BB030BD0820FBE738B50446B9
:1052100008682060087960714FF6FF7020840020D4
:1052200084F82200A4F84C00142084F84E000120D9
:105230008DF8020041F60D000D46ADF80000A21DEC
:1052400069460120A0DF00280ED12946204601F042
:10525000A5FE002808D1A86828B12946204600F0FC
:10526000A0F9002800D1002038BD38B50288102AE6
:1052700015D0112A15D0502A16D130F8062F8B8957
:105280009A4211D10C46418902290DD12168002989
:105290000AD00C3000F081F938B1002006E0808897
:1052A00001E04FF6FF70088438BD01208DF8000042
:1052B000226869462046904738BD000030B50A781C
:1052C0008DB0002A36D18A88A2F5C0530D3B31D16A
:1052D0008A79012A2ED18DF800204A88ADF8022063
:1052E000002242F637240B7A13E000BF02EBC2051E
:1052F00001EB4505ED89A5420AD102EBC20201EBA3
:1053000042010A8BADF80420C98AADF8061002E00C
:10531000521C9342EAD80188A1F57F42FF3A06D099
:10532000418821B9818811B90199C0F802108268B9
:10533000694690470DB030BD30B1018012B111689F
:10534000C0F80210002070470E20704708B598B1D1
:1053500091B101228DF8022041F61402ADF800202F
:10536000096881604FF6FF710180002141808180D2
:105370006846FFF77BFC08BD0E2008BD0A00014609
:105380001BD0002919D010460A88112A0BD0382AC0
:1053900003D0392A11D105F090B800888988884255
:1053A0000BD107F069BD028889888A4205D14FF682
:1053B000FF710180002141808180704770B518B372
:1053C0000288A2F57F41FF391CD0104C4388104D54
:1053D000206800EB8001401C00F00700206005EB16
:1053E000810102204B81C881081D086100248C8145
:1053F0000120087208714C710A80887007F03CFD2A
:10540000204670BD082070BD0E2070BD9C3200206B
:105410009C40002038B50D4604001FD0F5B1286827
:1054200020604FF6FF70E0826889208301208DF8AC
:10543000020041F61400ADF80000221D694601206B
:10544000A0DF002809D12946204606F04DFC00289F
:1054500003D12946204606F0FDFB38BD0E2038BD9D
:1054600030B58BB0040029D041B3E08AA0F57F426B
:10547000FF3A25D005AA204606F097FC0546ADF870
:10548000000000200190029003900490E188ADF8A4
:1054900004100121ADF808008DF8061005A8CDF81C
:1054A0000CD00490E08A01A9A6DF002804D1BDF841
:1054B0000010A94200D00C200BB030BD0E20FBE73D
:1054C0000820F9E738B500291FD000281DD0028830
:1054D000102A15D0112A15D0502A16D130F8062FCF
:1054E0004B899A4211D10C46418902290DD121687C
:1054F00000290AD00C3000F050F838B1002006E046
:10550000808801E04FF6FF70C88238BD01208DF819
:105510000000226869462046904738BD30B50A78B9
:1055200085B0002A37D18A88A2F5C053143B32D106
:105530008A79012A2FD14A88ADF80220002242F64A
:1055400053240B7A13E000BF02EBC20501EB4505C3
:10555000ED89A5420AD102EBC20201EB42010A8B9E
:10556000ADF80420C98AADF8061002E0521C93423F
:10557000EAD80188A1F57F42FF3A06D0418821B9D7
:10558000818811B90199C0F8021001218DF800102D
:1055900082686946904705B030BD007800F0010090
:1055A0007047F0B58FB00D4606461C216846FEF7E1
:1055B0003CF800249DF80000039440F002008DF8B0
:1055C0000000012701948DF8367042F638200494CB
:1055D00005940694ADF834000C94E87B8DF8300007
:1055E000287C8DF831009DF83200142120F006004F
:1055F000801C20F019008DF8320007A8FEF715F87E
:105600000DA807900CA8ADF824700890ADF82640BE
:10561000ADF82870A8680B90F08806F1100307AA6F
:105620006946A2DF0FB0F0BD0649095C4FF0A0400B
:10563000D0F81005C84010F0010000D0012080F023
:1056400001007047B4D9020007490B5C4FF0A0413C
:10565000D1F804250120984020EA0203C1F808355A
:105660001040C1F80C057047B0D902007047704770
:105670000649095C4FF0A040D0F80405C84010F07E
:10568000010000D0012080F001007047B0D9020075
:105690007CB50024084E25460122305D009500238C
:1056A0001146019503F0F9FC641C042CF4D3BDE809
:1056B0007C4000F003B80000B0D902000020401C7C
:1056C0000428FCD370470020401C0428FCD37047FA
:1056D00010B50246064B4FF0FF3000215C5C94424F
:1056E00001D1084610BD491C0429F7D310BD0000A4
:1056F000B4D9020070B50C4E0C004FF000053060BC
:105700000BD0012000F05AF808B1022004E000207C
:1057100000F054F800B10B202070706810B9FEF74B
:10572000F7FB0546284670BD183200202DE9F047EA
:105730000D468146FFF7CCFF0446042836D2DFF839
:1057400074801B481C4EA8F10C0725B3012D0ED008
:10575000022D2BD104EB440030444578002D25D098
:10576000B968002922D02846BDE8F047084704EB75
:105770004401755C0E44717849B10E4A4FF4004102
:10578000093A8068FEF708FD08B987F80390B178F8
:1057900008F80410E2E78068FEF742FD04EB4401DC
:1057A000314418F804008D78A842D7D0BDE8F087BE
:1057B000B8D902001432002054390020FFF734BF5A
:1057C00070B50023042810D20D4D00EB4004012ACF
:1057D00002D101290CD00022094E00EB40003044D8
:1057E00061B1012906D0022906D00723184670BDF1
:1057F0000E30C2B22A55F9E74270F7E78270F5E73A
:105800005439002070B506461E480024C0E90161E5
:10581000B00720D50025012211462846FFF7D0FF0A
:105820006D1C0446042D02D2002CF4D013E094B970
:1058300040F2666204211448FEF7CAFB04000AD154
:10584000FEF7B4FB040006D10F48104A0021001FE8
:10585000FEF766FC0446F00701D0FFF719FF74B9A4
:1058600009480B4A00210C38FEF75AFC040006D107
:105870000548084A01210838FEF752FC0446204634
:1058800070BD000008320020C4D90200E95A0200AD
:1058900031780200993F02002DE9F05F6A4C05461D
:1058A00000266078B34618B184F801B001F0A8FF73
:1058B000664F4FF47A694FF4C87A4FF00108182DFB
:1058C00062D2DFE805F0AC0C0C31404D62676B74BE
:1058D0006B74BE7D7D7D7D7DACAFB2B5BEBE00205C
:1058E000FFF7C6FE00284FF0000008D0FFF7BEFE0D
:1058F000022D02D14FF4E16008E0484606E0FFF7D0
:10590000B6FE022D01D1C82000E05046410CC00374
:105910004FF4FA72801841F1000125705200002303
:10592000FDF726FE01462AE00020FFF7A1FE002831
:105930004FF0000004D0FFF799FE4FF44870E5E700
:10594000FFF795FEDFE70020FFF792FE00284FF0FB
:10595000000002D0FFF78AFECFE7FFF788FED4E70A
:105960000020FFF785FE00284FF0000002D0FFF76F
:105970007DFE01E0FFF77BFE257041F69A110022C3
:105980003868FEF709FC064646E00020FFF75CFE9B
:10599000257008E0002051E025703DE084F801808A
:1059A0000120FFF751FE002240F6CD41E8E784F8E0
:1059B00001800120FFF748FE00224FF48041DFE71D
:1059C0007868FEF72DFC0646D5F1110000D02EB107
:1059D0000220FFF74BFE84F802B01DE0012816D923
:1059E00080B2C8214843C117C90341EA5041C003EE
:1059F0004FF4FA72801841F1000152000023FDF7C4
:105A0000B7FD014600227868FEF7C6FB0646022075
:105A1000FFF72DFE84F802803046BDE8F09F01F0CC
:105A2000EFFEB9E701F0ECFEB4E701F0E9FE04E0B7
:105A300001F0E6FE0020FFF71AFE0120FFF717FE37
:105A4000AAE7FFF740FEA7E708320020B8D9020016
:105A5000F8B5871C00208DF800000E460125684629
:105A6000FEF780FC124C20683060D4E90001401A37
:105A7000A168091ABE1C06E002F034F9D4E900015D
:105A8000401AA168091A491C8E42F5D8A1682068FD
:105A9000084004EB8000C16841F00301C160206848
:105AA000384420609DF80000FEF780FC2846F8BDD1
:105AB000C045002030B482680468531C8360A15440
:105AC000D0E901128A4202D330BC03F0F4B830BCF2
:105AD00070470000034803C8814201D1012070478C
:105AE00000207047C045002000780221FFF71EBE4D
:105AF00005494FF0FF32082841F8202002D308441E
:105B000080F848207047000050410020F0B54FF069
:105B1000FF3512B10023082601E008230C260C4CA7
:105B200005E000BF54F823707F1C04D05B1CB34217
:105B3000F8D32846F0BD26185DB286F8305044F8F8
:105B40002310002AF5D1E11881F84800F1E70000A0
:105B5000504100200249084490F93000704700008D
:105B60005041002008B5024690F8C6020B4600EBF3
:105B70008001C1EB801002EB400092F8C52242B1D7
:105B8000521ED2B202EBC20100EB4102518A491C03
:105B900000E0C188ADF800100089ADF80200694648
:105BA000184696DF08BD70B504464FF6FF750A46E5
:105BB0002846AC4208D14FF480742146104605F0C7
:105BC0002BFCA04209D070BDFF2CFCD8214610460A
:105BD00005F015FC08B1204670BD284670BD0000D8
:105BE00070B5084C050009D010342168002907D091
:105BF00008682060496828468847F6E70834F4E7D3
:105C000070BD00003C4100202DE9F05F264841684E
:105C1000F1B3DFF898B00E688146DBF80040876882
:105C20008078E11B21F07F45ED1CB0B9DFF8808062
:105C30004FF48030C8F84403C8F804031120FDF77E
:105C400033FE1120FDF73BFE4FF0010AC8F800A01B
:105C50002F2002F0A9FC89F802A0B54200D23546F7
:105C6000124BE8193C3320F07F401860DBF800103D
:105C70005A46091B21F07F41001B20F07F40C91CC0
:105C800081420FD9106818602F2002F08DFC00E0CF
:105C900004E0BDE8F05F1120FDF71CBEBDE8F05F39
:105CA00006F01EB9BDE8F09FB8320020041501408F
:105CB000001001402DE9F04117880646B81D144632
:105CC0000D46984202D90C20BDE8F08131880722A8
:105CD00006290AD34FF4486C4FF6FF73614501D98A
:105CE000994202D17088062801D21046ECE760453F
:105CF00001D99842F9D1994203D0984201D081420A
:105D0000F3D80520E85520881221401C80B220805D
:105D100029542088401C80B220804119308807F027
:105D2000F7FA2188084480B220804119708807F072
:105D3000EFFA2188084420800020C5E7FEF7BCB9AF
:105D400038B54A7A0F4B62B100220A7259690029AC
:105D500006D001228DF80020ADF802006846884781
:105D600038BD0A7A62B19B684C68024619462046E3
:105D7000FEF712FA0028F3D0BDE8384006F038BB31
:105D80005B68F1E7B4390020F0B585B016460F46E0
:105D900004461D4614220B496846FDF71FFC0A48BD
:105DA0008DF80870ADF80240ADF80A608DF80C501F
:105DB000017800222046FEF741FF684600F034FBE0
:105DC00005B0F0BD4CDB0200743200202DE9FF5F0E
:105DD0003E4C002703262078DFF8F48040F2111BA8
:105DE000052821D2DFE800F020031A226400394898
:105DF0001321008876DFB8F8000037A106EB0040D9
:105E000003F092FB06F0C0F802202070676004B037
:105E10005946BDE8F05F3648FDF707BC6068401C96
:105E20006060322800D92670BDE8FF9F8BDF304DBF
:105E30001F20C146287001206870B8F80010AA78A9
:105E400006EB0140B0462BA103F072FB0026AA46E8
:105E500024E000BF06EBC60101EB410101EB0A059E
:105E6000B9F80010EB1C08EB0140324626A103F004
:105E700066FB00BF03F060FA0028FBD1A87E6B7FB1
:105E80002A7FE97E8DE80F00B9F800106B7E08EBE1
:105E900001402A7E21A103F063FB761C9AF80210D0
:105EA000B142D7D85946124807F0ABF92770BBE783
:105EB000A068401CA0600A28B6D3A76004B00348BD
:105EC000BDE8F05F06210C3007F09BB9F4310020EB
:105ED000F0330020502C00207363616E5F73746197
:105EE000727421212121212121212121212121001F
:105EF000003800207363616E20646576206E756DD6
:105F0000203D202564000000646576202564206E15
:105F1000616D65203D2025730000000064657620DA
:105F2000736D6163203D2025782025782025782019
:105F300025782025782025780000000010B504463B
:105F400001460548FFF7BAF921460348BDE810406D
:105F50000C30FFF7E3BA0000EC3400207FB50C46AC
:105F600010B1012004B070BD2079002638B141F68F
:105F70001D5501281BD0022826D00F20F2E7022051
:105F8000207102960396E0680190694601A805F029
:105F9000A1FD50B102988188E18000882081BDF880
:105FA0000010029805F014FEDCE70A20DAE70A4B3D
:105FB0006A460021A01D05F049FD38B1064918398F
:105FC0008E61CE610A28CDD12846CBE70248818870
:105FD000019805F0FDFDF5E7E43200202DE9F843D6
:105FE000054690F8C6020F4600EB8001C1EB801019
:105FF00005EB400695F8C542914604EBC40006EB5C
:1060000040013279601C0A31904226D16B46002251
:10601000284601F0BFFB18B310E0401EA04201D19A
:10602000002004E004EBC40006EB40001C30804676
:1060300002466B46284601F0ADFB30B100203870B7
:106040006946484697DFBDE8F88395F8C5024146A2
:10605000401C641C85F8C502E4B23079A042DCD84B
:10606000012038700020EEE72DE9F04100260125DF
:10607000144C22E06068226900EBC607387805FA04
:1060800000F1114217D08A43226102F0DBFB024685
:106090003878E36805FA00F1194002FA00F39942F2
:1060A00009D17978012901D0012100E00021514076
:1060B0007A6802B19047761CF6B220788642D9D32E
:1060C000BDE8F081A43200202DE9F047894690F820
:1060D000C612904601EB8102C2EB811100EB410731
:1060E000384605F091FD06002FD0194CA06806280F
:1060F0002BD2184D762205EBC0103946A0F802804D
:10610000001DFDF76BFA0027B9F1000F04D0A0685D
:1061100005EBC010077004E0A168022005EBC11177
:106120000870A06805EBC011401CCE67A060E16854
:1061300088420AD1002604E005EBC610C16F8847EB
:10614000761CE0688642F7D3A760BDE8F0870000C0
:1061500028320020A03A002070B50E4690F8C612F2
:10616000154601EB8102C2EB8111A0B000EB4100AA
:1061700005F04AFD040009D07C2205496846FDF778
:106180002DFAADF8025068460196A04720B070BDC8
:10619000E4D9020070B50E4604464FF43371FDF7A2
:1061A00044FA11480025A4F8CA62856084F8C952EF
:1061B0000E4884F8C65284F8C55200682060224612
:1061C0000121304694DF0121112806D0002809D191
:1061D00084F8C71284F8C85203E084F8C71284F820
:1061E000C812002070BD000028320020883A00202C
:1061F0000E4910B50A784C780023A24212D0521CE6
:10620000D2B20A70022A00D10B70084A0B780C3205
:1062100052F8232002608868104420F07F40886094
:10622000012010BD0360002010BD0000B832002026
:1062300013460A460021FFF7A7BD00002DE9F843E9
:10624000104D0F4680461E4691466946286802F06A
:1062500042F8040014D01C21FDF7E7F90120207159
:10626000C4F81490380BC4F80080C4E90260694691
:10627000286802F051F805F085FB0020BDE8F8839E
:106280000420FBE7C0DB020010B503780022072BD7
:1062900006D2DFE803F005040610202930000A705A
:1062A00010BD01230B7003898B818388CB81C0686B
:1062B00088600A7410BD02220A7002898A8182886D
:1062C000CA81C2688A60807D062802D000200874D6
:1062D00010BD0120FBE703220A70C2888A8102896F
:1062E000CA81C068886010BD04230B70C088888193
:1062F000CA818A6010BD0520087010BD70B5064DBA
:106300000646002455F8241009B130468847641C1D
:10631000042CF7D370BD00000C43002030B50446B8
:10632000006885B00D46806800281CD0142168469E
:10633000FDF77BF90195A0680490207910B1012840
:106340000DD104E001208DF80000206904E0022056
:106350008DF80000E06800030290606903902068F7
:1063600081686846884705B030BD70B586B015466F
:106370000C00064619D0112C17D0082C15D014216A
:106380006846FDF752F9ADF80260304601F090F82A
:10639000ADF804000D2C0AD0862C1CD007208DF8F7
:1063A00000000294684600F04DF806B070BD03206E
:1063B0008DF8000025B12878C00701D0012000E049
:1063C00002208DF8080000208DF80C0041F2011029
:1063D000ADF80A00E6E706208DF80000E2E70000CD
:1063E00010B50446408801F063F8A08002480168B7
:1063F0002046BDE810400847403200202DE9F0411A
:1064000007460024064E074D05E000BF56F824104D
:1064100038468847641CE8788442F7DBBDE8F081A1
:10642000B03F00206432002010B50446408801F0DF
:106430003FF8A080024801682046BDE810400847A8
:1064400020DB0200014909680847000088DB0200E0
:1064500070B586B0044614216846FDF7E6F8A089B9
:106460000026A0F54040ADF8040020782D4D062808
:1064700035D2DFE800F0340303032E4EA08900F08C
:10648000DAF9012130B9E08943F6FE72A0F5404007
:10649000904224D8A07B8DF808002078032810D0E3
:1064A0005FF000008DF80900A0680390606850B1AB
:1064B00009208DF8000060680490684604F06CFBC9
:1064C0000DE00120EEE708208DF800008DF8101097
:1064D000F3E7A08900F0AFF908B1E08938B1687836
:1064E000002802D06E7004F087FC06B070BD6068B2
:1064F00038B10B208DF800006E70AE7004F07CFC9B
:10650000DBE70A208DF80000BDF8040004F004FD6C
:10651000F2E713208DF800004FF6FF70ADF804008D
:10652000CBE700005032002038B504460E48007812
:10653000A8B1A4F57F40FF380FD0684605F05CF99C
:1065400078B10521017001210171C480684605F010
:1065500061F905F007FA002038BD042038BD02209B
:1065600038BD082038BD0000EC3200200C4808B5CA
:10657000007888B1684605F03FF978B106210170CE
:10658000684605F047F90748017809B10121017310
:1065900005F0E8F9002008BD022008BD082008BD6C
:1065A000EC320020D0430020F0B589B014216846B9
:1065B000FDF73BF82C4C207818B16846FFF79EFE9B
:1065C00050E0201D012105AAFCF730FEB8BB4FF0BA
:1065D000102041690004026940694B1C01D100FB95
:1065E00002F1224800220161A1F54051C160204919
:1065F00002F081FC002820D11F481C238C221D4959
:10660000006801F055FE04F07BF8050014D0022D5F
:1066100012D000270126062D12D006A805F0ECF8AE
:1066200088B106700C2D18D2DFE805F0170F170F90
:1066300017161716171113110B2009B0F0BD11E032
:1066400026706760B9E70820F7E7077105E00321C6
:1066500000E00221017100E0067106A805F0DAF8F9
:1066600005F080F90020E8E7EC32002070330020CC
:10667000D0DB02001C43002098DB020038B5040088
:1066800014D0694605F026FAA0B1BDF8000000EB71
:106690008001094800EB8100C16849B1A17A39B194
:1066A000C168491EC1600020A07238BD052038BDF8
:1066B000062038BD0A2038BDA84300201FB501A917
:1066C000684605F0C3F904B010BD07B513460A4685
:1066D0006946002005F0BAF90EBD07B513460A4613
:1066E0000021684605F0B2F90EBD20B119B100686D
:1066F0000860002070470520704700007CB50D46FB
:10670000040019D0C5B1694605F0E4F9B0B1BDF88F
:1067100000000B4900EB800001EB8000012101AA81
:106720000C306668FCF7A9FD2E6060680C3068606C
:106730000120A07200207CBD05207CBD0A207CBD0C
:10674000A843002018B10323002206F0EFBF052064
:1067500070470223002206F0E9BF12B1022306F0BF
:10676000E5BF052070470000094908B50A69042AF9
:106770000BD0084A096942F8210005480121103070
:106780006A46FCF77AFD002008BD0C2008BD000019
:10679000CC3200200C43002038B5044609480D4691
:1067A000007858B164B16946284607F0B9F8002866
:1067B00003D1BDF800102180658038BD022038BDAE
:1067C000052038BDEC32002010B504460E48007894
:1067D00098B1A4B12188022913D80C4A01EB810099
:1067E00002EB800260885289C31C934209D807F0EB
:1067F0008BF800202080608010BD022010BD052095
:1068000010BD042010BD0000EC320020A843002081
:10681000826883881A4003689A5C0A708168491C00
:1068200081607047C26883881A4003689954C168C0
:10683000491CC160704743F6FE71A0F54040884294
:1068400001D8012070470020704700007FB50E4638
:10685000044643790279C178807800258DE80F00DD
:106860000E48032163780088227801EB00400CA1D8
:1068700002F076FE05EBC50000EB40008119062210
:1068800020461831FCF7E3FE28B16D1C0A2DF1D328
:10689000002004B070BD0120FBE70000F0330020B1
:1068A000737263203D2025782025782025782025C7
:1068B000782025782025780010B50446007818281F
:1068C00002D1FEF781F9207010BD10B504460078A2
:1068D000182802D1FEF778F9207010BD70B5134664
:1068E000002206461546862902D0112902D002E070
:1068F000012200E001250D4C73B1A179FEF79EF94C
:106900002A4661793046FEF799F90022A17830468F
:10691000FEF794F9002203E0A178FEF78FF92A46EA
:1069200061783046BDE87040FEF788B97C320020BF
:10693000406804F077BF000070B508B1012070BD59
:10694000194C0025207B08B1257301E000F0A0F868
:106950002078082826D2DFE800F02504080C10254E
:106960001420BDE8704000F021B8BDE8704000F090
:106970007DB8BDE8704000F05FB8BDE8704000F041
:106980003BB86088084900EB8000283901EB8000A3
:106990004068BDE8704003F093BE6560BDE870409C
:1069A00003F09CBE0F2070BDD04300201149F0B40D
:1069B0008A1C00200346A1F128050C18A67A4EB1C6
:1069C000A37200EB800405EB8404E66816B9247C0E
:1069D000012C0AD0401C80B20228EED30B704B80F1
:1069E0004B60F0BC41F61D5070471080F0BC00F0C9
:1069F0003DB80000D04300200C48418801EB8102E3
:106A0000A0F1280101EB8201CA6852B10521017091
:106A1000074802218180016800230122054802F015
:106A200043BA042202704968F6E70000D043002010
:106A3000F43200207033002038B50A490848032496
:106A40000B684268898803EB810153880470DB1C62
:106A500000201B0400909B0B034802F0EBFA38BDAA
:106A6000D0430020F432002070330020074910B5D5
:106A70004888091D05F07EF818B1BDE81040FFF701
:106A8000DBBFBDE81040FFF7B7BF0000D0430020D8
:106A9000F0B51F481F490125067802248B88A0F114
:106AA0002802082E19D2DFE806F00418181B222F3E
:106AB0002F170189491C01810021418080F80C10A9
:106AC00001EB810312F8233043B100234418491C21
:106AD00089B2A3720229F3D30570F0BD0123F5E753
:106AE00042685288D21C1A448A800470F0BD4688DD
:106AF0000D6806EB860602EB860256680E6055604E
:106B000013818C80062100E007210170F0BD000098
:106B1000D0430020F432002030B501888588224C13
:106B200085B0502924D0522902D0542932D103E013
:106B3000284601F081F82DE014221C496846FCF734
:106B40004DFDADF80250284600F0B2FCADF804004F
:106B500000F034F9002261792846FEF76FF8002230
:106B600021792846FEF76AF86846FFF739FC11E0FC
:106B7000017B01290ED1817A01290BD10089A0F571
:106B80002451023906D10121284601F089F8A07864
:106B900004F05AFAE07804F057FA207905B0BDE81D
:106BA000304004F051BA0000383200209CDA020074
:106BB00010B50446007800280FD1608801F03CF839
:106BC000608800F0A3F9002807D0044960880122FA
:106BD0000979BDE81040FEF731B810BD3832002009
:106BE00010B5124C00202070FDF7EEFFA070FDF7ED
:106BF000EBFFE070FDF7E8FF2071FDF7E5FF607146
:106C0000A17818290FD0E17818290CD021791829FA
:106C100009D0182807D00121601C04F0E9FB0120ED
:106C20002070002010BD032010BD0000383200206D
:106C30002DE9F04192B000F0D9F86846FDF794FFD5
:106C400000246E460D4D4FF6FF780DE006EB44072D
:106C5000B88800F02DFC404504D1B888012229797C
:106C6000FDF7ECFF641CA4B20098A042EED828798E
:106C700004F0EAF912B0BDE8F081000038320020DB
:106C80007CB5044600781C4D08282FD1607A38BBAB
:106C9000207A4FF6FF7601280DD0072802D0082869
:106CA00024D11EE0A08800F041FBB0421ED001219B
:106CB00000F0F6FF1AE0A0886A46012103F064FEA6
:106CC00070B90198007858B1A08800F02FFBB0424D
:106CD0000CD001222979FDF7B1FF287904F0B4F92D
:106CE00004E005480021401C04F0BDFBA878BDE885
:106CF0007C4004F0A9B900003832002010B50446E9
:106D00000A4841782046FDF783FF68B10848002112
:106D100001EB410200EB82025288A24201D1C8B2CB
:106D200010BD491C1429F3D3FF2010BD4A320020A6
:106D3000A03D002070B5094D094E002404EB44002D
:106D400005EB800071784088FDF762FF20B1641C7C
:106D5000142CF3D3FF2070BDE0B270BDA03D002025
:106D60004A3200202DE9F041124E07460125BD4070
:106D70003068FDF755FA00280DD10F4C20692842E4
:106D800007D1384601F05EFD0028E06805D02843B1
:106D900004E0A8432061BDE8F081A843E0602069D9
:106DA00028432061A1683068BDE8F0410022FDF76A
:106DB000F3B9000090DB0200A43200201CB5054AA4
:106DC000D2E90212CDE900120022694603F001FE69
:106DD0001CBD0000B4DA020003484FF6FF71818049
:106DE00001210170002070474432002010B54FF699
:106DF000FF7003F081FD03498880BDE8104005F075
:106E00003DBB0000443200202DE9FC41804600F0EB
:106E10004FFB002403250127A0F57F412646FF39BB
:106E200008D06A46082103F0AFFD18B90198841D07
:106E30008688056832462B4621464046A9DF04284D
:106E400004D0082804D00B2808D002E0112000E06C
:106E50000020002F00D10B20BDE8FC810027A807EF
:106E600001D50125E6E73443F5D000242646032565
:106E7000E0E72DE9FC41804600F01AFB0646A0F54C
:106E80007F40FF380ED001252A466D1C0027ADB289
:106E90006B460821304603F0A1FD040006D0072C04
:106EA00025D025E043F20200BDE8FC8101990323CF
:106EB0000A1D0B604046891DAADF040004D00C2C7B
:106EC00009D0052C09D009E032460821104603F00C
:106ED0001BFE04460CE0012700E000240821304698
:106EE00003F0FEFD00B10324002FCDD100E00C24FF
:106EF0002046D9E704488088A0F57F41FF3901D0BA
:106F000005F0BCBA70470000443200200EB502A95B
:106F1000019100F0CDFA6A46012103F035FD08B178
:106F200000200EBD019800780EBD00002DE9F04153
:106F300007464FF6FF760A48ABDF10B10320BDE8E5
:106F4000F081074C43F20305A41E3246618838469F
:106F5000A7DFA842F3D16088401C6080F5E70000FD
:106F600046320020428800EB82020C328A4201D96C
:106F7000022070478188A1F57F42FF3A03D0008844
:106F800008B10020704701207047884204D2006891
:106F9000401C01D0012070470020704770B594B0AC
:106FA0000024054607949DF81C000E4620F00F00B3
:106FB000401C20F0F00010308DF81C00087B8DF88C
:106FC0001D009DF81E001C2120F00600801C8DF87D
:106FD0001E006846FCF729FB9DF80000019440F074
:106FE00010008DF8000007A8CDE9044001208DF8BD
:106FF0004E00039442F637200694ADF84C000D94F1
:10700000707B8DF83400B07B8DF835009DF836002C
:10701000142120F00600801C20F0180040F0010030
:107020008DF8360008A8FCF700FB13A808900DA8FF
:1070300009900EAA0021284600F012F8ADF82800A9
:107040001420ADF82C000EA8ADF82A400C90E8886A
:1070500005F1080308AA6946A2DF14B070BD00005C
:107060002DE9F041044640799046002500B1042501
:1070700094F8220008B145F00205CAB2FF2908D9E8
:10708000090A88F8012045F0010588F80210032656
:1070900002E088F801200226B4F84C0008B145F05F
:1070A000100500271BE000BF94F84E10B21C91425F
:1070B0000BD2B4F84C0004EB4701C01B420004F1B2
:1070C00024002431FCF78AFA0DE004EB470008EBBA
:1070D0000601808C0870000A4870D6B27F1CB4F894
:1070E0004C00B842E0DC34F84C0FC01B208088F81C
:1070F00000503046BDE8F08170B506462A480C467F
:107100000A7803210088012A01EB00402AD0022AD4
:1071100049D1A28825A102F00BFA284802218170EA
:10712000A188A0F803104FF0A040D0F804154FF448
:1071300000328A43C0F8082501F40031C0F80C156C
:10714000A1881F48FEF734F800282CD008282AD040
:10715000132828D043F20141884224D0BDE8704072
:10716000FCF7AABF174D2988A1F57F42FF3A1AD133
:1071700062882A8014A102F0DBF9221D298830469A
:10718000FDF7AEFF08B1FCF797FF0021288804F057
:107190005DF8082802D008B1FCF78EFF3046FDF7F5
:1071A000A9FF0028DAD170BDF03300204865617274
:1071B000742052617465203D202564000032002057
:1071C00080340020502C002048525320646973639F
:1071D0006F7665726564206F6E20636F6E6E5F6898
:1071E000616E646C65203078257800003EB50278C9
:1071F00002230C46B3EB520F17D1B0F80110ADF8D3
:107200000010C1788DF802108188ADF804108079E3
:107210008DF8060002AA01A92046FCF794FE03227D
:1072200002A96846FCF713FA08B100203EBD012010
:107230003EBD000010B50C46FFF760FDFF280CD0E6
:10724000074900EB400001EB8000416821600189A3
:10725000A180807AA071002010BD052010BD000023
:10726000A03D002070B5018892B0102959D1011DB0
:1072700034226846FCF7B2F99DF804004FF6FF7619
:10728000032134466D46B1EB500F2AD003F0F2FCD7
:107290009DF8040040080ED001280CD0022820D10F
:1072A00018E00F99281D1131FCF7F7FD18B100BF48
:1072B000BDF8344015E00EAA0DA9072003F0AEFC7E
:1072C0000028EED10DE00F99281D491CFFF78EFF15
:1072D0000028EDD10EAA0DA9072003F09FFC00287D
:1072E000F1D1BDF80000291D00F08CFFB44218D088
:1072F000BDF80000214600F0C5F8BDF80000ADF86B
:1073000036000020ADF83840074E8DF834000DAD42
:10731000044600BF56F8241028468847641C022CF7
:10732000F8D312B070BD0000C8DA0200094A00218B
:1073300001EB410332F82330834205D101EB4100D8
:1073400002EB800040887047491C1429F0D34FF6A7
:10735000FF707047A03D00203EB50C46054603F087
:1073600089FC0BE0BDF80000A04207D02846029936
:1073700000F02EF810B1BDF800003EBD01AA69462C
:10738000072003F04BFC0028ECD14FF6FF703EBD08
:1073900010B50D4C18200D4A607000204FF6FF719B
:1073A00000EB400302EB8303401C59801428F7D301
:1073B000FDF70AFC6070182803D00120207000201F
:1073C00010BD032010BD00004A320020A03D002067
:1073D0002DE9F0410C46054600F1110701F11106B7
:1073E0001022491C401CFCF732F948B9681C00F017
:1073F000F7F928B1601C00F0F3F908B1012400E0AE
:10740000002431463846FCF748FD3B780222B2EBB7
:10741000530F0CD00321B1EB530F08D03378B2EBEC
:10742000530F04D0B1EB530F01D0012100E0002134
:10743000084201D18C4302D00120BDE8F081002038
:10744000FBE7018811B9421892780AB10120704710
:10745000491C0829F7D30020704710B50C46034695
:10746000FFF7EFFF00280AD018882188884205D14D
:107470000822A11C981CFCF7EAF808B1002010BDF6
:10748000012010BD03F09CBD70B50446FFF74EFF10
:107490000546204603F07BFA4FF6FF7104468D4205
:1074A00003D014B9284603F08BFD204670BD0000C0
:1074B00010B5FFF723FCFF2805D0044900EB40007E
:1074C00031F8200010BD4FF6FF7010BDA03D002028
:1074D0003EB5044603F0CEFB0EE00199204646314E
:1074E000FFF7BBFF28B9019920462A31FFF7B5FF06
:1074F00010B1BDF808003EBD6A4602A9072003F09E
:107500008DFB0028E9D14FF6FF703EBD38B504462B
:107510000A4801216A46FBF73BFF68B908486060EA
:1075200002F02CFB05491C238C22087404488C397A
:10753000001F006800F0BCFE002038BD7C44002025
:10754000C4DB02002DE9F0412D4F002518B17D600C
:107550000120BDE8F0810879012258B1294E0128A7
:107560000CD0274C4FF002080834022821D0032801
:1075700042D128E00A7103F0B1F83BE05FF000006F
:1075800000EB800116F82110022908D0401C80B2BF
:107590000228F5D33A707D6041F61D50D9E700EB23
:1075A000800006F8205006EB8000406803F088F861
:1075B00020E00D71A4F80480002301221248216804
:1075C00001F072FC16E00D71206803F079F80D49A6
:1075D00023682831498801EB810206EB8201D1F84A
:1075E00004C0C4F800C04B60A3880B81A4F80480D9
:1075F00006F822500028ACD07D600E20A9E70000DC
:10760000EC320020A84300207033002001460348DC
:1076100002888A4200D0002070470000A039002074
:107620002DE9FC5F0E008346DDE90C47C6F1000042
:1076300098469246814600D40846012503E000BFE3
:1076400090FBFAF06D1C5045FADAA84500D9454682
:1076500024B1002E01DB780700D5641EB80702D5DF
:10766000B8F1000F0AD0F80708D13CB1A54205D205
:1076700020215846641EFEF71DFAF6E7002E02DAB6
:107680004E462D2102E0780703D52B215846FEF700
:1076900011FA07F0030002280BD1B8F1000F08D14E
:1076A0003CB1A54205D230215846641EFEF702FACD
:1076B000F6E7CDE90047434652463146584605F0C5
:1076C0003DFEBDE8FC9F000070B50E460446007903
:1076D00018494FF4A27501EB4010017F2068A1B159
:1076E0004FF4887102F0E0FA4FF49071206802F0D4
:1076F000DBFA4FF49271206802F0D6FA294620682E
:1077000002F0D2FA0C49206809E04FF48E7102F0C1
:10771000BAFA2946206802F0B6FA08492068C0F88B
:107720000413206800F0DCFF3146BDE8704000F033
:10773000BBBF0000A841002010030200800002002F
:107740000248007A002800D0012070477C440020C5
:10775000F0B58488A518944200D82246A41AC2889D
:10776000D6189A4200D81346D21A4B880788BB42D3
:107770000CD34088834209D88888A04206D3A84207
:1077800004D8C888904201D3B04201D90020F0BD8E
:107790000120F0BD10B509892AB1D088491C814269
:1077A00018D1002010BD90F8C62202EB8204C4EB71
:1077B000821200EB420212899142F2D0491C1980D8
:1077C00090F8C61201EB8102C2EB811100EB41007F
:1077D000008902E01980D088401E5880012010BD29
:1077E0000021425C0AB101207047491C1029F8D3DE
:1077F00000207047800701D00020704701207047AB
:107800000A4810B5807860B1002401E0022C06D04F
:107810002046FDF72BFF641C042CF7D310BD032476
:10782000F6E7BDE81040FDF749BF00000832002030
:1078300003480179C90702D00078FEF72DB87047D8
:107840000832002006490120086006480168C1F39B
:1078500000410029FAD104490020887070470000D7
:107860000C000040180400403C410020172101801A
:1078700041800021017141711B218171C1717047EB
:107880002DE9FE4F2A4D984691460F00824601D0C1
:1078900000260DE0684600F0E1FC6A4600215046F3
:1078A00002F0E1FF2878009E10B99DF8090098B118
:1078B0004A463146504605F069F804460146002222
:1078C0005046FFF70BF8112C1AD008DC74B3082CC3
:1078D0002CD00D2C09D129E00520BDE8FE8F862C87
:1078E0001AD0A4F54050023820D00325B8F1000F7B
:1078F00004D0324621465046FEF737FD2846ECE7D5
:107900003A4629795046FDF799F94A46E9785046B2
:10791000FDF794F90025E9E73A4629795046FDF745
:107920008DF94A46E9785046FDF788F92546DDE7A6
:107930007C3200207CB50D4606466A460721284663
:1079400003F022F8040005D0052C0FD0112C1DD017
:1079500003241BE0019C94F84400183410F001004B
:1079600001D0019C34340CB110B106E011240DE0BB
:1079700004F11200FFF765FD38B1224604F112014F
:10798000304685DF04000FD000E00B2400210022E8
:10799000304604F0E7FC4CB1002200232946304673
:1079A00004F0C4FC20467CBD0121F0E70122F4E78D
:1079B0002DE9FC4716000D4681464FF002084FF0B6
:1079C000000710D03078C00720D04FF6FF744FF07A
:1079D0000108A54203D102F0CDFF05460127A542CB
:1079E00006D1032417E0002148467EDF04461BE051
:1079F0006B4601220721284602F0F0FF04000AD15D
:107A00000721284603F094F8040004D13146484683
:107A10007EDF04001CD00721284603F061F818B16E
:107A2000052801D0032404E0042C01D084B100E037
:107A3000112400214246484604F094FC54B100222F
:107A40003B462946484604F071FC2046BDE8FC87C9
:107A50000121EFE70122F3E72DE9F041204F0E4627
:107A6000154604463978FDF7D3F8002835D020466E
:107A700002F0D4FE50B32046FFF71AFD80462046A0
:107A8000B978FDF7C5F808B1012700E002272046C4
:107A900003F0A8F90028404602D0FFF7F5FC0DE0FE
:107AA000A8F57F41FF3909D0072103F019F801003B
:107AB00004D0052902D0204604F0B6FC2B463246FD
:107AC00039462046BDE8F041FEF75EB92A46314608
:107AD0002046BDE8F041FEF7ABBBBDE8F0810000F9
:107AE000743200202DE9F04391B08146FDF782F811
:107AF000002820D06846FDF737F800246E4617E0CE
:107B000006EB44054946A888FDF782F878B10B4F8B
:107B1000A888F978FDF77CF88046A8883979FDF7C0
:107B200077F80146A88801234246FFF7A9FE641CA6
:107B30000098A042E4D811B0BDE8F0837C32002068
:107B40002DE9F047394E002780463D46DFF8E090AA
:107B5000D6F804A057E003D00446D0F81C8035E0E6
:107B600099F8002002EB4201521CD2B289F80020A1
:107B700009EBC10199F80230091D9A4201D189F837
:107B8000005048680A780446012A12D0022A02D01E
:107B9000032A3BD108E005F0BDF800B101272574A8
:107BA00034E00574C06900E070680028F9D17060A5
:107BB0002CE0207C50BB88686060C868A0600869C1
:107BC000E0604869A061F07800B165606268B16802
:107BD000184B501A20F07F40984202D2A168084406
:107BE00006E0881AA16820F07F40814202D9081A75
:107BF000206000E0256065600120A56020742046BB
:107C0000E56105F069F8B8F10000A4D199F8001019
:107C100099F801008142A3D117B97168514502D08A
:107C20000120BDE8F0870020FBE70000B83200200B
:107C3000E8410020FFFF7F0030B585B005460024F5
:107C400014216846FBF7F1FCA5F57F40ADF8025022
:107C5000FF3815D02846FFF7D7F898B10B2815D074
:107C6000112811D0A0F54051023903D00146284611
:107C700004F0C6FB09482246C1782846FCF7DEFF1F
:107C800005B030BD0E2002E00124F3E70F208DF88F
:107C900000006846FEF7A4FBECE700003832002045
:107CA0000A4602498978FCF7C9BF00003832002033
:107CB000F8B5054600780C46002620420FD100207A
:107CC0008DF800006846FCF74DFB2878204202D171
:107CD0002043287001269DF80000FCF767FB304622
:107CE000F8BD000070B588B0214800F020FB2048A6
:107CF000001F064600F01BFB1E4DD5E9014105E0C3
:107D0000C0F3891202EB9050641C044404EA0100A1
:107D100005EB8000C0688207F2D000200DF1080258
:107D200004EA010305EB8303641CDB6842F820309E
:107D3000401C0228F4D3029800F00300012808D068
:107D400002280AD10298032101EB905004EB900421
:107D500003E00298C0F3831004443046002101AAD6
:107D6000FBF7BFFB002800D06C6008B070BD0000BE
:107D7000D8490020C0450020A8B0002001F054FCE4
:107D800008B1FCF799F901F0C9FAFCF7DBF908B181
:107D9000FCF792F98F4A01218F48FCF7C1F908B12D
:107DA000FCF78AF98C488D4A0121001DFCF7B8F9CF
:107DB00008B1FCF781F98848894A01210830FCF7AD
:107DC000AFF908B1FCF778F900210320FDF71AFD9F
:107DD00008B1FCF771F969460020FDF78BFC08B18A
:107DE000FCF76AF99DF8000002287CD05FF00006DD
:107DF00001F07CFE08B1FCF75FF900246946012020
:107E0000009401F03FFD08B1FCF756F9684601F017
:107E1000BBFD08B1FCF750F99DF8080071A120F0F6
:107E20000F00401C20F0F00010308DF808001522E3
:107E300002A87CDF08B1FCF73FF906270094ADF8F3
:107E4000007018200194ADF80200ADF804404FF422
:107E5000C870ADF8060068467ADF08B1FCF72CF967
:107E60000021664800F0CAFA08B1FCF725F91C2188
:107E70006846FBF7DAFB4FF42031CDE9004120469C
:107E80004FF470210590032502915D488DF80C5048
:107E90004FF6FF7101240690ADF80E108DF81040DA
:107EA0006846FCF72DFE08B1FCF706F95548FCF7CB
:107EB000FDFE08B1FCF700F903F090F8524800907D
:107EC0004E4869461838FDF73BF908B1FCF7F4F85D
:107ED0004E480090494869460C38FDF737FA08B11A
:107EE000FCF7EAF800E036E004F074FBA0216846F5
:107EF000FBF79BFB02208DF800008DF80240ADF8E7
:107F000010008DF80370424805904FF4967022904F
:107F1000B42023903F48269038488DF87C4069462D
:107F20002430FCF71FFC08B1FCF7C6F833480121E8
:107F30002430FCF714FC05F03BF8374C6EB1208878
:107F400036A105EB004001F0EFFA03F09BFB30B1E6
:107F5000FCF7B2F803E001264AE7FBF7C3FF2088ED
:107F600032A105EB004001F0DFFA1B4E00224FF476
:107F700000413068FCF710F908B1FCF79DF840F6B5
:107F8000CD47002239467068FCF706F908B1FCF7C6
:107F900093F800223946B068FCF7FEF808B1FCF708
:107FA0008BF8112001F0D3F8122001F0D0F82088CE
:107FB00040F2111205EB004024A101F0B9FA00BF14
:107FC00001F0BAF90028FBD13EDF0028F8D0FCF719
:107FD00073F8F5E701D202007CD9020055D1020006
:107FE000CD5D0200512D547261636B204469676955
:107FF00074616C20426F61726400000004350020DF
:108000003D5D02003D5F0200F970020009BE020002
:10801000542C0020B59C0200F0330020457261739F
:108020006520626F6E64732100000000512D547250
:1080300061636B2052656C6179206578616D706C4D
:108040006520737461727465642E000073697A65CB
:10805000203D20256400000070B5144682880E463D
:1080600005462088111D0144921C994201D8FE2A20
:1080700001D90C2070BD521C32542088FF21401CB5
:1080800080B2208031542088401C80B22080811929
:10809000288805F03DF92188084480B22080AA880C
:1080A00042B1A96841B13044FBF798FA2088A98809
:1080B00008442080002070BD072070BD2DE9F047E6
:1080C000C7880446181D16468946B0FBF7F1B0FB79
:1080D000F7F207FB12009A193A44D21CB2FBF7F2EE
:1080E000DDF820A001E02468491E0029FBD13D1ADB
:1080F0008846B54216D818E0BAF1000F05D021180D
:1081000009EB08002A46091D04E0204409EB080198
:108110002A46001DFBF762FA00202468761BA8445B
:10812000B74201D9354600E03D46002EE4D1BDE816
:10813000F087000030B5024669B101F0A3FA0021D2
:10814000084C0BE001EB410304EB830315685B88EB
:10815000AB4202D11160002030BD491C8142F1D3F5
:10816000052030BD84330020F8B50E460178144652
:108170000546012901D1687830B12088821C9A42D5
:108180002DD8012902D006E00720F8BD6978014406
:10819000891C994223D8181A801E87B2ADF8007046
:1081A0002188B01C084469467DDF0028EDD128787D
:1081B000022805D1BDF80010B94201D809210AE012
:1081C0000821012805D16878B84202D8ADF800002E
:1081D00001E0ADF80070BDF80000FE2801D90C20C8
:1081E000F8BD2288401CB0542088401C80B22080FA
:1081F00031542088401C2080BDF8001008442080A5
:108200000020F8BD70B505460C004FF0FF0020D0EF
:108210004FF6FF76B5421CD00E4801224178284621
:10822000FCF70CFD2846FEF769FDFF2803D1FEF799
:1082300081FDFF280DD0084B00EB400203EB8201CB
:108240004D8023F8226022684A60A2880A81A279C0
:108250008A7270BD4A320020A03D0020034A0021EE
:108260009268C0E900218160704700007C320020E4
:1082700070B54FF6FF750E46A84201D1002000E010
:10828000401C84B208E02146304603F0E0F808B113
:10829000204670BD641CA4B2FF2CF4D9284670BDE2
:1082A00010B5FBF750F808B1002010BD112010BD2B
:1082B00010B531B1B2FBF3F403FB14241CB1092057
:1082C00010BD0E2010BD01600021416081608281DF
:1082D000C381084610BD70B50C460546FAF7E8FFA5
:1082E000002802D021882868084470BD10B50A888B
:1082F00049888A4203D1FBF71DF8012010BD0020F8
:1083000010BD70B50C460546FAF7F7FF002802D0FD
:1083100061882868084470BD10B50A8849888A4277
:1083200003D1FAF7E1FF012010BD002010BD08B510
:1083300001216A46FBF7C8F8009808BD08B56A46EF
:10834000FAF79BFF009808BD38B5044600258DF864
:1083500000506846FCF706F8216862680868904299
:108360000ED9401E08600178238AE26801FB0325CC
:10837000227A2168101AC0B20A79824200D20871AA
:108380009DF80000FCF712F8284638BD38B50546C0
:1083900000208DF800000C466846FBF7E3FFE86814
:1083A000298A201AB0FBF1F12A681068431C136077
:1083B00001709DF80000FBF7F9FF38BD10B530B132
:1083C000017A42680368891AC9B21A6006E00E2071
:1083D00010BD03681A68541C1C601170491EC9B294
:1083E000F7D2006800210171084610BDC20800F0F4
:1083F00007030120895C98400840704770B504006D
:1084000010D017202162208060801B202071002561
:1084100004EBC500801DFFF729FA6D1C032DF7D36F
:10842000002070BD0E2070BD2DE9F047858890B00A
:108430000C46032D7ED20188DFF83C910026DFF840
:108440003CA14FF0010824293ED006DC102909D0B8
:1084500011290CD0232972D152E03A290DD0552987
:108460006DD12CE00146204601F0EEFE67E004EB02
:10847000C500801DFFF7FAF961E0294604EBC1074A
:10848000408937F8062F824200D810467880172896
:1084900000D217207880206A70B1787960B1D9E96C
:1084A0000020CDE90020ADF802107888ADF8040076
:1084B000226A2046694690477E713E713FE0014640
:1084C000204601F087FF3AE0011D34226846FBF7A1
:1084D00085F8BDF80000BDF8042004EBC0014A7324
:1084E000226A42B3D9E90432CDE90D32ADF8360043
:1084F000487B8DF83800226A20460DA990471EE07F
:108500000096019630F8041F04EBC1020179127B3A
:108510008A4200D21146ADF80010ADF80210008872
:108520000022694690DF020009D0BAF8001008EB7B
:10853000014001E01CE002E0114900F0F9FF04EB0A
:10854000C504A07A002813D0E18828469EDF0200E7
:108550000BD0112A0CD0BAF8001010B008EB014073
:10856000BDE8F047074900F0E3BFA67284F80B802E
:1085700010B0BDE8F0870000D0DA02009033002090
:108580002CDF0200A4DE020000F180400068002819
:1085900000D00120704708B500F180400021016043
:1085A0000068009008BD000000283ED01F49204A06
:1085B000096800BF00BF00BF00BF00BF00BF00BF11
:1085C00000BF91422FD000BF00BF00BF00BF00BF5F
:1085D00000BF00BF00BF00BF00BF00BF00BF00BFA3
:1085E00000BF00BF00BF00BF00BF00BF00BF00BF93
:1085F00000BF00BF00BF00BF00BF00BF00BF00BF83
:1086000000BF00BF00BF00BF00BF00BF00BF00BF72
:1086100000BF00BF00BF00BF00BF00BF00BF00BF62
:1086200000BF00BF00BF0138C3D170476C330020CA
:108630000024F40070B50F4C0025207808B1852582
:1086400016E00021A16061602161E1604FF0E0204F
:10865000D0F80001012610F0010F03D107210020FE
:1086600000F022F801F08AFA08B903480660267083
:10867000284670BD3C4100201805004008B5002088
:108680008DF800006846FBF76DFE0648C168491E7C
:10869000C160C06808B9FFF7D5F89DF80000FBF786
:1086A00085FE08BD3C4100204907090E002806DA76
:1086B00000F00F0202F1E02282F8141D03E000F145
:1086C000E02282F8001400F01F02012191404009CD
:1086D000800000F1E020C0F88012C0F8001170475F
:1086E000000B40B2704700002DE9F0418846054676
:1086F00002F016FD234E002828461AD0FDF72AFA6C
:10870000304490F848008009032802D001280ED098
:1087100007E04FF0A040D0F81005E84010F0010F3E
:1087200005D003212846BDE8F04100F0FFBC02213E
:10873000F8E702F001FD002822D02846FDF70AFAEA
:1087400004464FF4807000EB84000F4F81B207EBBA
:108750008400D0F8102542F00102C0F81025084628
:1087600000F010FDB8F1000F0AD02846FDF7F2F92D
:1087700056F82000002803D00120A040C7F80403C9
:10878000BDE8F08150410020006000402DE9FC412F
:10879000DFF8A480044608EB0400002790F93000BD
:1087A0001346C0170E46401C01D0082741E0F2785E
:1087B00019462046FDF7AAF90546401C38D0B07886
:1087C00050B14FF0A04000EB8400D0F8001721F02A
:1087D0000201C0F8001707E00021737820460091DD
:1087E0000A46019100F06BFCF078C0B11348317873
:1087F00000EB8500D0F81025114B1A40C0F8102569
:108800004FF4F8524FF4403302EA042203EA0141E4
:108810000A43D0F810150A43C0F8102509E008EB08
:108820000500327810F8481F41EA8211017000E01B
:1088300004273846BDE8FC8150410020006000401C
:10884000FFE0FCFF4FF0A041D1F81015C14011F03E
:10885000010000D00120704770B5144D95F8540008
:1088600008B1082070BD0020411E2A18401CC0B26B
:1088700082F830102028F8D300242046FDF738F97C
:10888000641CE4B20C2CF8D307210620FFF70CFF80
:108890004FF4BE7000F076FC05494FF00040C1F87F
:1088A0000403012085F85400002070BD50410020D1
:1088B00000600040034890F85400002800D00120D8
:1088C00070470000504100200121B1EB507F01D1E1
:1088D00001207047002070472DE9F04105460079DE
:1088E000164F904607EB40140E46E07E10B108206C
:1088F000BDE8F081707F20772846FBF771FD5FEAC5
:10890000080060603169216003D0317F2846FEF79E
:10891000DBFE287907EB4010007F0028286801D093
:10892000082100E00421C0F800150020E075207641
:10893000A0750121E176A076DAE70000A8410020C9
:108940002DE9F04105460079284E904606EB40148B
:108950000F46207F18B10846FFF7B6FF80B1626866
:1089600000234FF404704FF4017172B12A7906EBC1
:108970004212127F002A2A6805D0C2F8080304E0D8
:108980001020BDE8F081C2F80813E27DB2B1227E6A
:108990007AB162685AB12A7906EB4212127F1AB193
:1089A0002968C1F8040302E02868C0F80413112004
:1089B000E7E72761012384F8188005E084F8178031
:1089C0000020E760607620762879424606EB40106A
:1089D0003946007F0028284603D0BDE8F04100F06A
:1089E00073B8BDE8F04100F01BB80000A8410020BA
:1089F00070B504460079094D05EB4010017F002950
:108A00000AD1807E002807D1204603F0ACFA2179F4
:108A1000012005EB4111887670BD0000A8410020BF
:108A20002DE9F05F04460079264901EB4015A87E48
:108A3000184302D1204603F096FA6868002820689F
:108A400006D04FF40171C0F804130020BDE8F09F78
:108A50004FF4A276314601F016F9B1464FF4927AFE
:108A60004FF4847B5146206801F008F906465946C8
:108A7000206801F003F980464946206801F0FEF8BD
:108A8000074648EA07003043ECD056EA070007D112
:108A90002946206803F042FAE87D697E8842E1D8E1
:108AA0000020E8750EB10320D0E70FB10F20CDE70D
:108AB000A97E01200029216801D00860C5E748602F
:108AC000C3E70000A84100202DE9F05F8946044675
:108AD0004FF488759A46904600260068294601F0B2
